:100000000C9476010C9442100C941B100C949E01DD
:100010000C949E010C949E010C949E010C949E01E4
:100020000C949E010C949E010C949E010C949E01D4
:100030000C949E010C949E010C949E010C949E01C4
:100040000C94D10F0C949E010C949F0F0C94790F7B
:100050000C949E010C949E010C949E010C949E01A4
:100060000C949E010C949E01504944726573004F9C
:10007000004400550059004E00005EBCE2613FDDC7
:1000800083C29C7E20A3FD1F41009D23BE46DB65ED
:10009000F88C11AF32CA57E9740000000024002721
:1000A000002A0000000000250028002B0042726199
:1000B0007576657265696E2E6F726700202020204C
:1000C00020202020202000526173744E72004F6661
:1000D000004F6E00416C61726D202020004F660061
:1000E0004F6E005761697420202020004F66004F3A
:1000F0006E0041637469766520200054696D655B0C
:100100004D696E5D0054656D705B435D200052610A
:1001100073744E72004D656E7500526173740052B7
:100120006173744D656E75005341564556414C00E0
:1001300053774F66660053774F6E0053774269746A
:1001400073005377527074005377504C00537750BC
:10015000726F74005069644D696E576E645B6D73A5
:100160005D0050696457537A5B6D735D005069643C
:100170004F57496E745B6D735D005069644B44006A
:100180005069644B49005069644B500053657420BA
:10019000004F56522000526173740042726577001E
:1001A0004D656E75000000000800020100000304A8
:1001B000070000000000000000504944636F6D70AC
:1001C0003A0020573A0020543A0020523A00205476
:1001D000733A002054693A003000310020483A0058
:1001E00020533A00423A00413A002054733A002D1D
:1001F0002D0054693A0020573A0020543A0020520A
:100200003A003000310020483A00533A0054696DFA
:10021000655265616368656400546D705265616321
:10022000686564006E787453743A002054693A002B
:10023000300031004F565220483A002D2D002054F6
:10024000693A003000310020483A005E01011F0188
:10025000030301008A02010A010202010064001E78
:1002600047040B0906007C0101060103030100F4A9
:1002700001060E0102020100C20117010102020182
:10028000019600023E0106060100C8000382071025
:10029000031000C800820710071003016D0112014E
:1002A00003010103010E01240101020201014001C9
:1002B00024010102020101000000002300260029A0
:1002C00000040404040404040402020202020203FF
:1002D0000303030303010204081020408001020409
:1002E00008102001020408102000691011241FBE0C
:1002F000CFEFD8E0DEBFCDBF11E0A0E0B1E0E0E29B
:10030000F2E502C005900D92A637B107D9F724E0B7
:10031000A6E7B1E001C01D92AA3AB207E1F711E0E9
:10032000C6E7D1E004C02197FE010E941626C5371A
:10033000D107C9F70E9480120C940E290C9400007A
:100340000895DC01ED91FC910190F081E02D09947C
:10035000EF92FF920F931F93CF93DF938C017B015A
:10036000D0E0C0E0F701EC0FFD1F6491662361F05F
:10037000D801ED91FC910190F081E02DC801099523
:10038000892B11F02196EECFCE01DF91CF911F91F5
:100390000F91FF90EF900895AF92BF92CF92DF92AE
:1003A000EF92FF920F931F93CF93DF936C017B012A
:1003B0008B01040F151FEB015E01AE18BF08C017BB
:1003C000D10759F06991D601ED91FC910190F0812E
:1003D000E02DC6010995892B79F7C501DF91CF91F1
:1003E0001F910F91FF90EF90DF90CF90BF90AF9053
:1003F0000895FC01538D448D252F30E0842F90E02B
:10040000821B930B541710F0CF960895019708950F
:10041000FC01918D828D981761F0A28DAE0FBF2FD8
:10042000B11D5D968C91928D9F5F9F73928F90E02E
:1004300008958FEF9FEF0895FC01918D828D98179D
:1004400031F0828DE80FF11D858D90E008958FEFDA
:100450009FEF0895FC01918D228D892F90E0805CA3
:100460009F4F821B91098F73992708958AE392E029
:100470000E942A0221E0892B09F420E0822F0895AE
:1004800080E090E0892B29F00E94360281110C94C3
:1004900000000895FC01A48DA80FB92FB11DA35A27
:1004A000BF4F2C91848D90E001968F739927848F94
:1004B000A689B7892C93A089B1898C9183708064B7
:1004C0008C93938D848D981306C00288F389E02D58
:1004D00080818F7D80830895EF92FF920F931F9309
:1004E000CF93DF93EC0181E0888F9B8D8C8D9813E7
:1004F0001AC0E889F989808185FF15C09FB7F894F3
:10050000EE89FF896083E889F9898081837080643E
:1005100080839FBF81E090E0DF91CF911F910F9189
:10052000FF90EF900895F62E0B8D10E00F5F1F4F98
:100530000F731127E02E8C8D8E110CC00FB607FCA7
:10054000FACFE889F989808185FFF5CFCE010E9435
:100550004A02F1CFEB8DEC0FFD2FF11DE35AFF4F57
:10056000F0829FB7F8940B8FEA89FB8980818062C3
:10057000CFCFCF93DF93EC01888D8823B9F0AA8980
:10058000BB89E889F9898C9185FD03C0808186FD4E
:100590000DC00FB607FCF7CF8C9185FFF2CF80819D
:1005A00085FFEDCFCE010E944A02E9CFDF91CF91C6
:1005B000089590E0FC01EB55FE4F2491FC01EB52B5
:1005C000FD4F3491FC01EF53FD4FE491EE23C9F050
:1005D000222339F0233001F1A8F4213019F122301F
:1005E00029F1F0E0EE0FFF1FED55FF4FA591B491FB
:1005F0008FB7F894EC91611126C030953E233C935F
:100600008FBF08952730A9F02830C9F0243049F76A
:10061000809180008F7D03C0809180008F778093D0
:100620008000DFCF84B58F7784BDDBCF84B58F7D2D
:10063000FBCF8091B0008F778093B000D2CF8091B4
:10064000B0008F7DF9CF3E2BDACF1F93CF93DF938E
:10065000182FD92F80916C0460E0C1E0811102C095
:1006600061E0C0E0809160040E94D902209164049E
:1006700030916504129FC001139F900D11248230A8
:10068000910538F0880F991F880F991F05970197DA
:10069000F1F76C2F809160040E94D90220916404CC
:1006A00030916504D29FC001D39F900D11248230F8
:1006B000910538F0880F991F880F991F05970197AA
:1006C000F1F7DF91CF911F9108954F925F926F9252
:1006D0007F928F929F92AF92BF92CF92DF92EF92D2
:1006E000FF920F931F93CF93DF932B013C016A017D
:1006F000C0915E04D0915F04CF3FDC07A9F0C23007
:1007000068F4FE01FF27C130D1F1E898EE0FFF1F1A
:10071000EA5FFE4F80EA91E0918380838FEF9FEF45
:1007200090935F0480935E04F12CE12C812C912C3A
:10073000540183948091620490916304E816F90651
:100740007CF586010150110917FD20C0D501C401B7
:10075000002E04C0880F991FAA1FBB1F0A94D2F74E
:1007600084219521A621B721892B8A2B8B2B49F037
:1007700080916A0490916B040E942503E3CFE9986D
:10078000C5CF8091680490916904F6CF809166048A
:10079000909167040E9425038FEFE81AF80ACACFE8
:1007A00060E0809160040E94D902CF3FDC0729F10C
:1007B000D0935F04C0935E041092D7021092D802C7
:1007C0001092D9021092DA02109239021092380275
:1007D0008C2FC23090F4DD27CC0FDD1FCA5FDE4FB7
:1007E00026E637E0398328838130C1F080916900A3
:1007F0008C7F816080936900E89ADF91CF911F918F
:100800000F91FF90EF90DF90CF90BF90AF909F90AF
:100810008F907F906F905F904F90089580916900C6
:10082000837F846080936900E99AE7CFCF93DF9359
:1008300090E0FC01EB52FD4F24918F539D4FFC0142
:1008400084918823D1F090E0880F991FFC01E7562E
:10085000FF4FA591B491FC01ED55FF4FC591D49187
:1008600061110EC09FB7F8948C91E22FE0958E2312
:100870008C932881E223E8839FBFDF91CF91089575
:100880008FB7F894EC91E22BEC938FBFF6CF3FB784
:10089000F89480910D0290910E02A0910F02B091F8
:1008A000100226B5A89B05C02F3F19F00196A11D87
:1008B000B11D3FBFBA2FA92F982F8827BC01CD01AA
:1008C000620F711D811D911D42E0660F771F881F09
:1008D000991F4A95D1F708958F929F92AF92BF9238
:1008E000CF92DF92EF92FF926B017C010E9447044E
:1008F0004B015C01C114D104E104F104B9F00E9480
:100900004704681979098A099B09683E7340810583
:10091000910580F321E0C21AD108E108F10888EEC0
:10092000880E83E0981EA11CB11CE4CFFF90EF90CD
:10093000DF90CF90BF90AF909F908F9008952FB78A
:10094000F8946091090270910A0280910B029091D3
:100950000C022FBF0895089590E080E00895DC0117
:1009600080E0615090F09D919827E92FEF70F0E0C2
:10097000E758FF4F2491E92FE295EF70F0E0E75739
:10098000FF4FE491822F8E27ECCF0895DC012C914C
:100990001196ED91FC91F8948181822B8183928153
:1009A000322F30959323928387E090E00197F1F7FF
:1009B00081818323818383E290E00197F1F7908125
:1009C0007894EFECF0E03197F1F7922381E009F4AD
:1009D00080E00895FC0190810180F281E02D292FB3
:1009E000209560FF14C0F8948281822382838181E4
:1009F000892B8183A3E2B0E01197F1F78281982BD4
:100A00009283789487ED90E00197F1F70895F89438
:100A10008281822382838181892B8183AFEFB0E041
:100A20001197F1F78281982B928378948FE090E070
:100A3000EBCFDF92EF92FF920F931F93CF93DF9351
:100A4000EC01D62EE42E08E010E0FF24F39461E0E0
:100A50008D2D8F2109F460E0CE010E94EA04FF0C85
:100A600001501109A1F7E11010C0F894E981FA8151
:100A700091818881809589238183E981FA8192819E
:100A800088818095892382837894DF91CF911F910B
:100A90000F91FF90EF90DF900895EF92FF920F93E8
:100AA0001F93CF93DF938C017B0140E065E50E94AB
:100AB0001905E70188E0E80EF11C699140E0C801E2
:100AC0000E941905CE15DF05C1F7DF91CF911F9167
:100AD0000F91FF90EF900895FC0190810180F281C9
:100AE000E02DF8948181292F2095822381837894A9
:100AF0003DE743E050E0315029F1DA011197F1F779
:100B000080818923C1F3F894828182238283818149
:100B1000892B81837894ABE7B7E01197F1F7F894CC
:100B2000818182238183A3E1B1E01197F1F7808174
:100B3000982381E009F080E07894E3E6F6E03197CD
:100B4000F1F7089580E00895CF92DF92EF92FF923F
:100B500080917604909177040E946C0540E06CECE3
:100B600080917604909177040E94190540916D045C
:100B700064E480917604909177040E941905809135
:100B80007104882309F1E091700480917204882334
:100B900001F180916D0481111CC00E949F046B01C2
:100BA0007C0180917604909177040E94C604813084
:100BB00059F00E949F046C197D098E099F096E3EB1
:100BC00072408105910568F3FF90EF90DF90CF9020
:100BD0000895E9508EEE92E0E33038F4F0E0EE0F45
:100BE000FF1FE45EFE4F808191816C01990FEE083A
:100BF000FF0880916E04882329F060E080916F04E3
:100C00000E94D902C701B6010E946C0480916E0453
:100C10008823D1F261E080916F04FF90EF90DF9024
:100C2000CF900C94D9026F927F928F929F92AF9245
:100C3000BF92CF92DF92EF92FF920F931F93CF93C9
:100C4000DF938C01EB0180917604909177040E94F0
:100C50006C05882309F43FC0B80180917604909117
:100C600077040E944D0540E06EEB809176049091F0
:100C700077040E9419057E016E0189E0C80ED11C1F
:100C80008E01A0907604B090770488E0882E912C95
:100C9000712C66246394C5010E94C60481117628D4
:100CA000660CE1E08E1A9108B1F7F80171928F019C
:100CB000CE16DF0631F780917604909177040E947A
:100CC0006C05813041F4F70181917F01811105C0EC
:100CD000E017F107C1F790E008C068E0CE010E947C
:100CE000AF0491E028852813F6CF892FDF91CF91AB
:100CF0001F910F91FF90EF90DF90CF90BF90AF903A
:100D00009F908F907F906F900895CF93DF93CDB792
:100D1000DEB729970FB6F894DEBF0FBECDBFBE0178
:100D20006F5F7F4F0E941306882331F08D818F33D0
:100D3000A9F020F48F31A1F080E007C08F3521F0B9
:100D40008F37D1F78CE001C08BE029960FB6F8946D
:100D5000DEBF0FBECDBFDF91CF9108958AE0F5CF02
:100D600089E0F3CF90915B04981719F091E090938C
:100D70001B0280935B0408950F931F93CF938C0104
:100D8000C091310210923102CC23E9F063E770E0A8
:100D90008AE392E00E94A8018091190290911A02C0
:100DA00001968017910751F090931A0280931902CF
:100DB000C0E08C2FCF911F910F91089510921A02CD
:100DC00010921902F5CF80913202109232028823DC
:100DD000C9F061E770E08AE392E00E94A801809187
:100DE000190290911A02009739F4015011091093D9
:100DF0001A0200931902DDCF019790931A02809393
:100E00001902D7CFC091330210923302CC2381F262
:100E10006FE670E08AE392E00E94A801CACF0F93C8
:100E20001F93CF93DF93FC012289222331F080E0CE
:100E3000DF91CF911F910F910895EC010E949F04C3
:100E4000088119812A813B81DC01CB01801B910B38
:100E5000A20BB30B88879987AA87BB870C811D815A
:100E60002E813F8180179107A207B30700F30887FF
:100E700019872A873B8781E0DBCFCF93DF93FC0183
:100E80002089211109C0EC010E949F0468837983A5
:100E90008A839B8381E0888BDF91CF910895FC0149
:100EA0001082118212821382148615861686178686
:100EB000108A118A128A0895CF93DF93EC010E9461
:100EC0004F07CE01DF91CF910C943D072F923F92B7
:100ED0004F925F926F927F928F929F92AF92BF924A
:100EE000CF92DF92EF92FF920F931F93CF93DF93F6
:100EF000CDB7DEB765970FB6F894DEBF0FBECDBF96
:100F00000E9447046B017C018091040290910502CC
:100F10002601481A590A4DEC441640E1540608F4DB
:100F2000E0C08091020290910302009789F0209125
:100F30007C0130917D011201221A330A910137FEA2
:100F400003C0319521953109283C31050CF0C5C00D
:100F500001969093030280930202029709F0BDC0AC
:100F60009BE4692E92E0792E01E010E020907A0156
:100F700030907B013B862A8649E050E0B301CE01E8
:100F800001960E9471238B816C81681708F4682F89
:100F900070E080917C0190917D010E94CC259B01A5
:100FA00040910A0150910B01649FC001659F900D13
:100FB000749F900D112464E670E00E94CC25898511
:100FC000A1E0B0E0882311F0A2E0B0E08D81829F23
:100FD000A001839F500D11245D874C878E81829FD5
:100FE0001001839F300C11243F862E868F81829FB3
:100FF000A001839F500D1124598B488B8885829FB7
:101000001001839F300C11243B8A2A8AFD01EE0FC8
:10101000FF1FE458FE4F812C912C54014A855B85BB
:10102000415051095D8B4C8B8C899D89A817B9075C
:1010300008F040C0880C991CAA1CBB1C80819181BF
:10104000AC012C843D844219530957FF03C05195CC
:10105000419551094617570770F4428153812E84F8
:101060003F844219530957FF03C0519541955109D7
:1010700046175707E0F048895989841B950B97FF5D
:1010800003C091958195910986179707C8F48281CD
:1010900093812A883B888219930997FF03C0919511
:1010A000819591098617970758F4689480F81296ED
:1010B0003496BACF4A855B854830510508F053C055
:1010C0000F5F1F4F59E0650E711C0D30110509F0BF
:1010D0004DCF109203021092020210927B011092E7
:1010E0007A0180917A0190917B018334910540F0DF
:1010F00010927B0110927A01109203021092020268
:1011000080917A0190917B019C012F5F3F4F30933A
:101110007B0120937A01880F991FFC01E458FE4F50
:1011200051824082C0920402D0920502E0920602EF
:10113000F092070265960FB6F894DEBF0FBECDBFE2
:10114000DF91CF911F910F91FF90EF90DF90CF90A3
:10115000BF90AF909F908F907F906F905F904F90D7
:101160003F902F9008958092D7029092D802A0923B
:10117000D902B092DA022C883D88369427943092B6
:10118000390220923802309379012093780110932C
:101190007701009376019DCFBF92CF92DF92EF92BD
:1011A000FF920F931F93CF93DF93EC01B62EC72EC0
:1011B0008D85811105C0CE010E946C0581110EC084
:1011C0001B861D861C8680E0DF91CF911F910F91B9
:1011D000FF90EF90DF90CF90BF90089540E060EFD8
:1011E000CE010E94190501E0E12CD12C11E0CE01C5
:1011F0000E94C604F82ECE010E94C60491E0F912A6
:1012000018C0813099F51134D8F2DB86D11002C0B4
:1012100081E08D878B81882399F22396EB2DFC2D1D
:10122000CF01089629912193E817F907D9F781E0B2
:10123000CBCFEE2DF0E0F8120FC08B851817A0F47D
:10124000DE01AE0FBF1F13968C91802379F4F12C31
:10125000193008F41C87D12EEC0FFD1F8381902FCD
:101260009095892383830AC08113F1CFFE01EE0D8F
:10127000F11D8381802B8383FF24F3946F2DCE0196
:101280000E94EA041F5F000F11F4E39401E087E07D
:101290008E1508F0ACCFB7CFFF920F931F93CF936B
:1012A000DF938C01F62EE0917604F091770413869B
:1012B000158614861286118610861782168215826C
:1012C00014821382C0E0B801809176049091770473
:1012D0000E94CC08D82F882329F0FC1629F0CF5F74
:1012E000FC1688F7D0E008C067E0C8010E94AF0490
:1012F000F80197818913F3CF8D2FDF91CF911F9143
:101300000F91FF900895CF93DF93EC0160E08E8101
:101310000E94D90261E08E810E94D90260E08E8134
:101320000E94D9028BE891E00197F1F7DF91CF910C
:101330000895CF92DF92EF92FF920F931F93CF9376
:10134000DF936C017C0187E0E80EF11CD0E0C0E087
:10135000062F10E0B8010C2E02C0759567950A940F
:10136000E2F76170F70181917F010E94D902219615
:10137000C430D10579F7C601DF91CF911F910F914C
:10138000FF90EF90DF90CF900C948309CF92DF9283
:10139000EF92FF920F931F93CF93DF93EC01F62E02
:1013A000642F8C810E94D9028D818F3F19F060E0FB
:1013B0000E94D9020F2D10E08F8584FF25C06E0199
:1013C00087E0C80ED11CF12CE12CB8010E2C02C014
:1013D000759567950A94E2F76170F60181916F0146
:1013E0000E94D902FFEFEF1AFF0A88E0E816F10425
:1013F00061F7CE01DF91CF911F910F91FF90EF9098
:10140000DF90CF900C948309B80184E075956795BF
:101410008A95E1F7CE010E9499096F2DCE01DF91E7
:10142000CF911F910F91FF90EF90DF90CF900C9490
:10143000990940E0682F82E994E00C94C60981E0A4
:101440000E94190A8BE39FE10197F1F70895CF936A
:10145000DF93823029F49091A10498609093A104C5
:101460008093A5041092A60480E48093A70480E1F1
:101470008093A80480E58093A90461E0809196049C
:101480000E941604809197048F3F19F061E00E943A
:10149000160461E0809198040E941604C2E9D4E029
:1014A0009E01225934408091A10484FD0BC084E048
:1014B00090E021962817390744F461E08E810E945C
:1014C0001604EECF88E090E0F4CF8BE39DE0019727
:1014D000F1F760E0809196040E94D90260E080916B
:1014E00098040E94D902809197048F3F19F060E020
:1014F0000E94D9028091A10484FD34C063E082E996
:1015000094E00E949909CBE4D6E4CE010197F1F76B
:1015100063E082E994E00E9499092197F1F763E082
:1015200082E994E00E94990983E592E00197F1F73E
:1015300062E082E994E00E9499098091A1048062AE
:101540000E94190A84E08093A2048CE00E94190A88
:101550000E941F0A82E08093A30486E0DF91CF916E
:101560000C94190A80620E94190A8BE496E4019790
:10157000F1F78091A10480620E94190A83E592E04C
:101580000197F1F78091A10480620E94190AD5CFDA
:101590009091A504891710F08FEF890FE82FF0E0E4
:1015A000EE56FB4F848980680C94190ACF93C82F9C
:1015B00081E00E94C80A65E770E0C11102C067E7D8
:1015C00070E082E994E0CF910C94A80141E00E9480
:1015D000C60981E090E00895CF93DF93EC010E946B
:1015E0001F0A80E00E94C80AD0933602C0933502D9
:1015F00010921A021092190210925A0410925B046F
:1016000010922C0261E08CE00E94160460E08CE0F5
:101610000E94D90283E090E090932E0280932D02E5
:1016200084E193E0DF91CF910C944F07FB0101908F
:101630000020E9F73197AF01461B570BDC01ED9114
:10164000FC910280F381E02D09948F929F92AF92DA
:10165000BF92EF92FF920F931F93CF93DF93CDB77B
:10166000DEB7A1970FB6F894DEBF0FBECDBF7C01E9
:10167000FA01CB0119A2223008F42AE08E010F5D95
:101680001F4F822E912CB12CA12CBF01A5019401DA
:101690000E94F425F901CA016A300CF5605DD80199
:1016A0006E938D01232B242B252B79F790E080E07E
:1016B000109721F0BD01C7010E94160BA1960FB62D
:1016C000F894DEBF0FBECDBFDF91CF911F910F9178
:1016D000FF90EF90BF90AF909F908F900895695CBE
:1016E000DECFCF92DF92EF92FF920F931F93CF93B3
:1016F000DF936B01770FEE08FF08F7FE1BC0EC01CC
:101700006DE20E94A1018C0144275527BA014C19B2
:101710005D096E097F092AE0CE010E94250B800F2A
:10172000911FDF91CF911F910F91FF90EF90DF906C
:10173000CF9008952AE0B701A601DF91CF911F91C4
:101740000F91FF90EF90DF90CF900C94250BCF93EB
:10175000DF93BC018AE392E00E94710BEC0160E42C
:1017600071E08AE392E00E94160B8C0F9D1FDF91BF
:10177000CF910895CF93DF93BC018AE392E00E945A
:10178000160BEC0160E471E08AE392E00E94160B14
:101790008C0F9D1FDF91CF910895CF93DF93BC01F4
:1017A0008AE392E00E94A801EC0160E471E08AE320
:1017B00092E00E94160B8C0F9D1FDF91CF91089530
:1017C0008F929F92AF92BF92CF92DF92EF92FF9251
:1017D00010929E03109260031092610310926203B4
:1017E00010926303E0918203F0918303C080D18063
:1017F000E280F380C0928A03D0928B03E0928C0344
:10180000F0928D03E0918003F091810380819181BA
:10181000A281B38180938E0390938F03A093900352
:10182000B093910380909A0390909B03A0909C03A7
:10183000B0909D03A5019401C701B6010E945525F2
:1018400018164CF480928A0390928B03A0928C031A
:10185000B0928D0310C08090960390909703A09053
:101860009803B0909903A5019401C701B6010E94A5
:10187000FD2387FDE7CF81E080939E0388E690E01B
:10188000FF90EF90DF90CF90BF90AF909F908F90A0
:101890000C94CD0B4F925F926F927F928F929F929A
:1018A000AF92BF92CF92DF92EF92FF92CF93DF93EE
:1018B00000D000D0CDB7DEB76091400470914104F4
:1018C00080914204909143040E94A3244B015C0147
:1018D00060914404709145048091460490914704BE
:1018E0000E94A3246B017C01AC019B01C501B401E2
:1018F0000E94FD2318160CF06EC0C0929603D09281
:101900009703E0929803F092990380929A03909241
:101910009B03A0929C03B0929D0380919E03882319
:1019200009F459C080918203909183039A8389833B
:10193000FC014080518062807380A3019201C50147
:10194000B4010E94FD2387FF27C0E981FA818082CC
:101950009182A282B38280908A0390908B03A090A0
:101960008C03B0908D03C0909A03D0909B03E090BD
:101970009C03F0909D03A7019601C501B4010E944C
:1019800055251816C4F4C0928A03D0928B03E092B6
:101990008C03F0928D031FC0A3019201C701B60111
:1019A0000E9455251816BCF6E981FA81C082D182C1
:1019B000E282F382D0CFC0909603D0909703E0905C
:1019C0009803F0909903A7019601C501B4010E9404
:1019D000FD2387FDD8CF40903004509031046090B3
:1019E00032047090330420E030E0A901C301B20159
:1019F0000E94FD2387FDB6C080903404909035048A
:101A0000A0903604B090370420E030E0A901C50171
:101A1000B4010E94FD2387FDA5C0C0903804D0907A
:101A20003904E0903A04F0903B0420E030E0A90152
:101A3000C701B6010E94FD2387FD94C081E020917B
:101A40007E0330917F032130310509F080E08093DF
:101A50009F03409264035092650360926603709204
:101A600067038092680390926903A0926A03B09220
:101A70006B03C0926C03D0926D03E0926E03F09200
:101A80006F036091920370919303809194039091FE
:101A900095030E94A32420E030E04AE754E40E942A
:101AA000022469837A838B839C83409270035092D3
:101AB000710360927203709273039B01AC01C501C4
:101AC000B4010E945A254B015C01809274039092EC
:101AD0007503A0927603B092770329813A814B81F6
:101AE0005C81C701B6010E9402246B017C01C09297
:101AF0007803D0927903E0927A03F0927B0380918D
:101B00007C0390917D03019769F5A301920160E048
:101B100070E0CB010E949023609370037093710377
:101B20008093720390937303A501940160E070E0C9
:101B3000CB010E949023609374037093750380938C
:101B4000760390937703A701960160E070E0CB01E4
:101B50000E949023609378037093790380937A03B3
:101B600090937B03C0903C04D0903D041C141D0452
:101B70000CF04CC00D2C000CEE08FF08C701B6019C
:101B80000E94A5244B015C01609192037091930324
:101B900080919403909195030E94A3249B01AC0132
:101BA000C501B4010E9402244B015C01AC019B0100
:101BB000609174037091750380917603909177031F
:101BC0000E945A2560937403709375038093760383
:101BD00090937703A5019401609178037091790344
:101BE00080917A0390917B030E9402246093780392
:101BF0007093790380937A0390937B03C09292034E
:101C0000D0929303E0929403F09295030F900F907B
:101C10000F900F90DF91CF91FF90EF90DF90CF90DA
:101C2000BF90AF909F908F907F906F905F904F90FC
:101C30000C94E00BCF93DF93AB01BC012AE08AE365
:101C400092E00E94250BEC0160E471E08AE392E0EF
:101C50000E94160B8C0F9D1FDF91CF9108952F923C
:101C60003F924F925F926F927F928F929F92AF922C
:101C7000BF92CF92DF92EF92FF921F93CF93DF93A9
:101C8000EC016A017B01722EAB019601CB01B6011A
:101C90000E94C72563E471E0811126C04601570107
:101CA000E894B7F82FEF3FEF4FE75FE7C501B401C6
:101CB0000E94C72581110CC02FEF3FEF4FE75FE770
:101CC000C501B4010E94FD2367E471E0181664F0B9
:101CD0002FEF3FEF4FE75FE4C701B6010E945525A4
:101CE0001816B4F46BE471E0CE01DF91CF911F912F
:101CF000FF90EF90DF90CF90BF90AF909F908F902C
:101D00007F906F905F904F903F902F900C94160BA8
:101D10002FEF3FEF4FE75FECC701B6010E94FD23B5
:101D200087FDE0CF20E030E0A901C701B6010E94A5
:101D3000FD23312C212C87FF09C06DE2CE010E94CA
:101D4000A1011C01F7FAF094F7F8F09410E060E0BC
:101D500070E080E09FE3711641F020E030E040E267
:101D600051E40E9402241F5FF6CFA70196010E9452
:101D700091232B013C010E9474244B015C012AE059
:101D8000BC01A401CE010E94250B7C01E20CF31CD6
:101D90001123C1F1C501B4010E94A3249B01AC0130
:101DA000C301B2010E9490234B015C016EE2CE019F
:101DB0000E94A101E80EF91E115020F120E030E050
:101DC00040E251E4C501B4010E945A252B013C01B7
:101DD0000E9474244B01B12CA12C2AE0B501A4016E
:101DE000CE010E94250BE80EF91EC501B4010E9428
:101DF000A3249B01AC01C301B2010E9490234B01BB
:101E00005C01DACFC701DF91CF911F91FF90EF9076
:101E1000DF90CF90BF90AF909F908F907F906F900A
:101E20005F904F903F902F900895CF93DF93AB0139
:101E3000BC0122E08AE392E00E942F0EEC0160E4F4
:101E400071E08AE392E00E94160B8C0F9D1FDF91D8
:101E5000CF910895DF92EF92FF920F931F93CF934C
:101E6000DF93EB0189017A01E20EF31E0E151F05C7
:101E7000A1F0C11584E0D80780F4F999FECFF801EC
:101E8000D1908F01CE010E947A23D81621F06D2DBA
:101E9000CE010E9482232196E9CFDF91CF911F913D
:101EA0000F91FF90EF90DF900895EF92FF920F93C4
:101EB0001F93CF93DF938A01020F131FE9017B0168
:101EC000E21AF30AC017D10769F0C7018C0F9D1FF2
:101ED000811524E0920730F4F999FECF0E947A230D
:101EE0008993F0CFDF91CF911F910F91FF90EF90E9
:101EF00008951F920F920FB60F9211242F933F93C4
:101F00004F935F936F937F938F939F93AF93BF9301
:101F1000EF93FF938AE392E00E944A02FF91EF91D0
:101F2000BF91AF919F918F917F916F915F914F91F1
:101F30003F912F910F900FBE0F901F9018951F92F9
:101F40000F920FB60F9211242F938F939F93EF93BD
:101F5000FF93E0914A02F0914B028081E0915002A0
:101F6000F091510282FD1BC09081809153028F5FDE
:101F70008F7320915402821741F0E0915302F0E0F8
:101F8000E65CFD4F958F80935302FF91EF919F91F7
:101F90008F912F910F900FBE0F901F9018958081F9
:101FA000F4CF1F920F920FB60F9211242F933F93ED
:101FB0008F939F93AF93BF938091090290910A02F0
:101FC000A0910B02B0910C023091080223E0230F84
:101FD0002D3758F50196A11DB11D2093080280935D
:101FE000090290930A02A0930B02B0930C02809115
:101FF0000D0290910E02A0910F02B0911002019675
:10200000A11DB11D80930D0290930E02A0930F02AB
:10201000B0931002BF91AF919F918F913F912F91FB
:102020000F900FBE0F901F90189526E8230F029671
:10203000A11DB11DD2CF1F920F920FB60F92112486
:102040002F933F934F935F936F937F938F939F93C0
:10205000AF93BF93EF93FF93E0910801F0910901D3
:102060000995FF91EF91BF91AF919F918F917F91D2
:102070006F915F914F913F912F910F900FBE0F90F5
:102080001F9018951F920F920FB60F9211242F9345
:102090003F934F935F936F937F938F939F93AF93F0
:1020A000BF93EF93FF93E0910601F091070109952B
:1020B000FF91EF91BF91AF919F918F917F916F9120
:1020C0005F914F913F912F910F900FBE0F901F90F6
:1020D00018954F925F926F927F928F929F92AF92DC
:1020E000BF92CF92DF92EF92FF920F931F93CF9305
:1020F00010923D0210923C0288EE93E0A0E0B0E026
:1021000080933E0290933F02A0934002B09341021D
:1021100086E291E090933B0280933A0285EC90E056
:10212000909347028093460284EC90E0909349029A
:102130008093480280EC90E090934B0280934A0297
:1021400081EC90E090934D0280934C0282EC90E001
:1021500090934F0280934E0286EC90E09093510250
:102160008093500210925302109254021092550222
:1021700010925602109295041092940488E391E014
:10218000909393048093920488E0809396048FEF59
:1021900080939704C9E0C093980484E080939904E5
:1021A00085E080939A0486E080939B0487E0809387
:1021B0009C0410929D0410929E0410929F04109211
:1021C000A0041092A10481E00E94270A60E08DE043
:1021D0000E941604E2EEF2E0E491E0938404EEEC57
:1021E000F2E0E491F0E0EE0FFF1FE954FD4F85911E
:1021F0009491909386048093850410928F0410929A
:1022000091041092900410928E0410928D041092FA
:102210008C0410928B0410928A04109289041092FC
:102220008804109287041092830410928204109202
:102230006E0484E894E0909377048093760410927F
:1022400074041092750410926D04C0937004C1E080
:10225000C0937104C0937204C09373040FEF1FEF17
:1022600010936104009360048AE090E0909363040B
:102270008093620449E050E06BE472E084E694E00D
:102280000E94712310935F0400935E048CE390E03E
:1022900090930B0180930A011092D7021092D802FA
:1022A0001092D9021092DA02C0903804D09039040A
:1022B000E0903A04F0903B04809034049090350410
:1022C000A0903604B0903704409030045090310410
:1022D000609032047090330480E693E0909383031F
:1022E0008093820380E191E0909381038093800347
:1022F0008CE091E0909385038093840310929E0379
:1023000010929603109297031092980310929903DB
:1023100080E090E0AFE7B3E480939A0390939B034F
:10232000A0939C03B0939D0384E690E0A0E0B0E00E
:102330008093920390939303A0939403B093950397
:1023400010927D0310927C0320E030E0A901C301CC
:10235000B2010E94FD2387FD5AC020E030E0A901B0
:10236000C501B4010E94FD2387FD51C020E030E08B
:10237000A901C701B6010E94FD2387FD48C081E085
:1023800090E090937F0380937E03C0939F034092DD
:1023900064035092650360926603709267038092B3
:1023A000680390926903A0926A03B0926B03C09293
:1023B0006C03D0926D03E0926E03F0926F03409233
:1023C00070035092710360927203709273032DEC4C
:1023D0003CEC4CEC5DE3C501B4010E945A256093CE
:1023E00074037093750380937603909377032DECB9
:1023F0003CEC4CEC5DE3C701B6010E940224609303
:1024000078037093790380937A0390937B030E94FF
:102410009F040091920310919303209194033091B3
:102420009503601B710B820B930B60938603709373
:10243000870380938803909389031092510310922D
:10244000520310925303109254038DE493E00E94C0
:102450004F0710923E0310923F03109240031092D8
:1024600041038AE393E00E944F0710922B031092DE
:102470002C0310922D0310922E0387E293E00E940A
:102480004F07109218031092190310921A0310921A
:102490001B0384E193E00E944F0710920503109202
:1024A0000603109207031092080381E093E00E9454
:1024B0004F071092F2021092F3021092F40210925F
:1024C000F5028EEE92E00E944F071092DF0210920A
:1024D000E0021092E1021092E2028BED92E0CF91C5
:1024E0001F910F91FF90EF90DF90CF90BF90AF9032
:1024F0009F908F907F906F905F904F900C944F07BC
:10250000CF93DF93CDB7DEB76E970FB6F894DEBFEB
:102510000FBECDBF789484B5826084BD84B58160E0
:1025200084BD85B5826085BD85B5816085BD80919E
:102530006E00816080936E00109281008091810016
:10254000826080938100809181008160809381000E
:10255000809180008160809380008091B1008460D0
:102560008093B1008091B00081608093B000809131
:102570007A00846080937A0080917A0082608093F0
:102580007A0080917A00816080937A0080917A004D
:10259000806880937A001092C100E0914A02F09125
:1025A0004B0282E08083E0914602F0914702108264
:1025B000E0914802F091490280E18083109252023A
:1025C000E0914E02F0914F0286E08083E0914C0250
:1025D000F0914D02808180618083E0914C02F09106
:1025E0004D02808188608083E0914C02F0914D0221
:1025F000808180688083E0914C02F0914D0280815F
:102600008F7D808382E00E94270A8FE491E00E9400
:10261000BA0B10925D0420EA33E04EEB50E070E01C
:1026200060E080E091E00E94550F80915D0481118F
:1026300091C0E0EAF3E08EEBDF011D928A95E9F7A5
:1026400080E090E4ACE9B5E48093300490933104E9
:10265000A0933204B093330480E090E0AAE7B4E49E
:102660008093340490933504A0933604B0933704D8
:1026700088EE93E0A0E0B0E080933C0490933D04AA
:10268000A0933E04B0933F0480E797E1A0E0B0E060
:102690008093400490934104A0934204B093430478
:1026A00084EF91E0A0E0B0E080934404909345046F
:1026B000A0934604B09347048FE694EEA8E1B0E0FF
:1026C0008093500490935104A0935204B093530408
:1026D0008EE694EEA8E1B0E0809354049093550404
:1026E000A0935604B093570481E090E0909349047E
:1026F000809348048BE391E090934B0480934A04C9
:1027000088E190E090934F0480934E048FE090E036
:1027100090934D0480934C0481E080935D0424E108
:1027200030E082E090E0A0E0B0E035832483808355
:102730009183A283B383399644E0E033F407A9F789
:1027400020EA33E04EEB50E070E060E080E091E0A2
:102750000E942A0F60E08DE00E94160461E08CE088
:102760000E94160461E08AE00E94160461E08CE099
:102770000E94160460E08CE00E94D90261E08AE0C9
:102780000E94D902E0917604F091770413861586B1
:10279000148612861186108617821682158214827C
:1027A0001382109274041092750411E0BE016F5FE1
:1027B0007F4F80917604909177040E94CC08882303
:1027C00009F45FC067E0CE0101960E94AF049885CE
:1027D0008913ECCF809174048F5F80937404898196
:1027E000883231F008F044C0803111F08232F1F6C5
:1027F000809175048F5F8093750480916D048111C1
:1028000028C080917604909177040E946C05BE01E7
:102810006F5F7F4F80917604909177040E944D0501
:1028200040E064EB80917604909177040E94190552
:1028300080917604909177040E94C604082F8091BD
:102840007604909177040E946C05011102C01093E8
:102850006D048981803199F0CE0101960E94850630
:1028600090917004981708F0A1CF809370049ECFC8
:102870008B3309F4BDCF823409F098CFB9CF8CE007
:10288000EFCF60E081E192E00E944C09809111025B
:10289000803109F46FC0BE016F5F7F4F81E192E02C
:1028A0000E941306882309F465C08D818F3709F4CF
:1028B00061C08FE78D8380917604909177040E94A8
:1028C0006C0561E172E080917604909177040E943A
:1028D0004D0540E06EE480917604909177040E946B
:1028E000190540E06B8180917604909177040E94F5
:1028F000190540E06C8180917604909177040E94E4
:10290000190580911102803141F040E06D81809184
:102910007604909177040E94190580917604909135
:10292000770420917304222319F10E946C058823F7
:1029300009F161E172E080917604909177040E9440
:102940004D0540916D0468E4809176049091770480
:102950000E94190580916D04811130C064E170E01E
:1029600080E090E00E946C0480917604909177045E
:102970000E946C058CE08093700480917404823016
:10298000C0F110E080917404181798F580917004DC
:102990008C3079F1612FCE0101960E944C0989811A
:1029A000803129F1CE0101960E9485069091700434
:1029B000981710F4809370041F5FE4CF80916E0429
:1029C000882329F060E080916F040E94D90264E1BD
:1029D00070E080E090E00E946C0480916E04882397
:1029E00019F261E080916F040E94D902BDCF8CE0A2
:1029F000DDCF109271040E94A4058BE090E09093CB
:102A000061048093600461E00E9416048091480490
:102A1000909149049C01215031092C30310510F06E
:102A200081E090E0019729E0289FB001299F700D77
:102A30001124655B7D4F49E050E084E694E00E94FC
:102A4000712380914A0490914B0490936504809384
:102A5000640480914C0490914D049093630480939E
:102A6000620480913C0490913D04A0913E04B09199
:102A70003F048093510390935203A0935303B09368
:102A800054038DE493E00E944F078091400490919D
:102A90004104A0914204B091430480933E0390937B
:102AA0003F03A0934003B09341038AE393E00E9465
:102AB0004F078091400490914104A0914204B0914D
:102AC000430480932B0390932C03A0932D03B09386
:102AD0002E0387E293E00E944F078AEF90E0A0E088
:102AE000B0E08093050390930603A0930703B0938F
:102AF000080381E093E00E944F0788EE93E0A0E096
:102B0000B0E08093F2029093F302A093F402B093AA
:102B1000F5028EEE92E00E944F070E944A0C0E943E
:102B20001F0A80E00E94C80A6DEA70E082E994E022
:102B30000E94A80160ED77E080E090E00E946C04C4
:102B40000E941F0AF12CE12CB0E4DB2ED0927C0015
:102B500080917A00806480937A0080917A0086FD6B
:102B6000FCCF809178009091790001E010E08C33E7
:102B70009105C4F002E010E0883C91059CF003E070
:102B800010E0803951E095076CF004E010E08835E2
:102B9000A2E09A073CF005E010E08032934014F088
:102BA00010E000E06AE070E080E090E00E946C04D9
:102BB000E016F10609F04EC0E114F104B9F0F70196
:102BC000E15DFD4F808181110BC081E080836AE56A
:102BD00071E08AE392E00E94160BC7010E94A70BE6
:102BE00068EC70E080E090E00E946C0480E00E945D
:102BF000C80AE0905804F0905904E0913502F09131
:102C00003602E132F10508F03BC0E75FF94E0C9463
:102C100016262C16E3179D184118F9185319AB19ED
:102C2000031A421A7F1ABC1AF91A4F1B4016A51B29
:102C3000E21B9E1C4E1CFB1C3E1D811D40164016B7
:102C40004016401640164016401640164016C21D4B
:102C5000601E601E78017ACF84E090E00E94BC067E
:102C6000882309F487C18091190290911A0281305A
:102C7000910509F467C50CF06CC1892B09F472C188
:102C80008DE493E00E943D078DE493E00E940F07DE
:102C90008823A1F18DE493E00E945C0760E0CE01FF
:102CA0000A960E944C0981110C94691EC12CD12CEA
:102CB000FEEFEF2EF2ECFF2EC0920201D092030144
:102CC000E0920401F09205010E94A4058091370270
:102CD000811103C082E00E94270A20E030E04EEF1D
:102CE00052ECC701B6010E94FD2381110C94B71E5E
:102CF0008CE591E00E94BA0B109237028091350268
:102D000090913602809709F07EC080913102109236
:102D10003102882311F40C94C41E81E00E94B20693
:102D200081E093E00E943D0781E093E00E940F075D
:102D30008823B1F181E093E00E945C0780E00E946B
:102D4000C80A67E472E082E994E00E94A8018091D9
:102D50005B0465E472E0811102C063E472E082E921
:102D600094E00E94A8016EE372E082E994E00E9480
:102D7000A80120E030E04EEF52EC6091020170912A
:102D8000030180910401909105010E94FD238111AE
:102D90000C94CF1E6BE372E082E994E00E94A801DC
:102DA0008EEE92E00E943D078EEE92E00E940F07A9
:102DB000882349F18EEE92E00E945C0764E372E0A2
:102DC0008AE392E00E94A80180915B0462E372E0D2
:102DD000811102C060E372E08AE392E00E94A801E0
:102DE0006BE272E08AE392E00E94A8014091100138
:102DF00050911101609112017091130122E08AE358
:102E000092E00E942F0E80915A04882311F40C94B2
:102E1000512280912D0290912E020397B1F580915D
:102E200058049091590429E0289FF001299FF00D42
:102E30001124E056FC4F382F292F803191050CF0DA
:102E4000BDC74681019639964423A9F330935804AF
:102E50002093590464E272E08AE392E00E94A801A0
:102E600080915804909159040E94A70B80915804B6
:102E700090915904409709F0A6C7109259041092F6
:102E8000580490E080E00E94EC0A80912D0290911D
:102E90002E02892B09F0A7C70091580410915904FC
:102EA00089E0809FF001819FF00D1124E056FC4FD6
:102EB00064817581072E000C880B990B0E94A52454
:102EC0002091100130911101409112015091130194
:102ED0000E9490236B017C0120E030E0A9010E9458
:102EE000552518160CF074C72AE939E949E95EE35B
:102EF000C701B6010E94FD2387FF75C781E090E0FE
:102F000090932E0280932D0289E0809FF001819F93
:102F1000F00D1124E056FC4F208131814281538114
:102F2000A0E6BAEE0E941C26609318037093190362
:102F300080931A0390931B0384E193E00E944F0750
:102F400084E193E00E943D0789E192E00E94CD0B6D
:102F50004AC78230910559F0039709F091CE81E07C
:102F600090E002C08EE190E00E94EC0A89CE80E2FF
:102F700090E0FACF60EA71E082E994E00E94A80153
:102F800081E00E94C80A8091190290911A02813052
:102F9000910599F054F46BE971E0892B09F070CE3A
:102FA00082E994E00E94A8016BCE8230910541F045
:102FB0006CE871E00397A1F363CE66E971E0F0CFAE
:102FC00061E971E0EDCF66E871E082E994E00E948A
:102FD000A80181E00E94C80A409130045091310458
:102FE000609132047091330422E082E994E00E94FF
:102FF0002F0E80913102109231028823B9F020E027
:1030000030E048EC52E460913004709131048091DA
:103010003204909133040E949123609330047093A2
:10302000310480933204909333042ACE809132028B
:1030300010923202882379F020E030E048EC52E42C
:103040006091300470913104809132049091330486
:103050000E949023E2CF80913302109233028823A2
:1030600009F40ECE83E090E00E94EC0A60913004F7
:103070007091310480913204909133040E94150FB5
:10308000FFCD60E871E082E994E00E94A80181E050
:103090000E94C80A4091340450913504609136046E
:1030A0007091370422E082E994E00E942F0E809113
:1030B0003102109231028823B9F020E030E048EC70
:1030C00052E46091340470913504809136049091FB
:1030D00037040E94912360933404709335048093E5
:1030E000360490933704CCCD809132021092320294
:1030F000882379F020E030E048EC52E46091340419
:103100007091350480913604909137040E94902389
:10311000E2CF8091330210923302882309F4B0CDBC
:1031200082E090E00E94EC0A6091340470913504D2
:103130008091360490913704A1CF6AE771E082E96B
:1031400094E00E94A80181E00E94C80A40913804DE
:103150005091390460913A0470913B0422E082E975
:1031600094E00E942F0E8091310210923102882348
:10317000B9F020E030E048EC52E4609138047091FE
:10318000390480913A0490913B040E94912360930A
:1031900038047093390480933A0490933B0470CDC3
:1031A0008091320210923202882379F020E030E0E0
:1031B00048EC52E4609138047091390480913A04EB
:1031C00090913B040E949023E2CF809133021092B1
:1031D0003302882309F454CD84E090E00E94EC0A85
:1031E000609138047091390480913A0490913B04C5
:1031F00045CF6DE671E082E994E00E94A80181E08C
:103200000E94C80A40913C0450913D0460913E04E4
:1032100070913F042AE082E994E00E94250B80919E
:103220003102109231028823A9F080913C049091E0
:103230003D04A0913E04B0913F048C509E4FAF4F8F
:10324000BF4F80933C0490933D04A0933E04B09301
:103250003F0416CD8091320210923202882369F029
:1032600080913C0490913D04A0913E04B0913F04B4
:10327000845F9140A109B109E4CF8091330210929B
:103280003302882309F4FCCC85E090E00E94EC0A2C
:1032900060913C0470913D0480913E0490913F0404
:1032A0000E941A0EEDCC62E671E082E994E00E9481
:1032B000A80181E00E94C80A409140045091410455
:1032C00060914204709143042AE082E994E00E94F4
:1032D000250B80913102109231028823A9F0809150
:1032E000400490914104A0914204B09143048C5059
:1032F0009E4FAF4FBF4F8093400490934104A093E3
:103300004204B0934304BCCC80913202109232024A
:10331000882369F08091400490914104A091420477
:10332000B0914304845F9140A109B109E4CF809139
:10333000330210923302882309F4A2CC86E090E095
:103340000E94EC0A60914004709141048091420413
:1033500090914304A5CF64E571E082E994E00E9476
:10336000A80181E00E94C80A40914404509145049C
:1033700060914604709147042AE082E994E00E943B
:10338000250B80913102109231028823A9F080919F
:10339000440490914504A0914604B09147048C5098
:1033A0009E4FAF4FBF4F8093440490934504A0932A
:1033B0004604B093470464CC8091320210923202EA
:1033C000882369F08091440490914504A0914604BB
:1033D000B0914704845F9140A109B109E4CF809185
:1033E000330210923302882309F44ACC87E090E03C
:1033F0000E94EC0A60914404709145048091460457
:10340000909147044DCF6DE471E082E994E00E9411
:10341000A80181E00E94C80A6091480470914904A3
:1034200082E994E00E94710B809131021092310286
:10343000882351F08091480490914904019690931B
:103440004904809348041CCC8091320210923202CD
:10345000882331F080914804909149040197EFCF7F
:103460008091330210923302882309F409CC88E05A
:1034700090E00E94EC0A80914804909149040E94D7
:10348000A70BFECB68E471E082E994E00E94A801FA
:1034900081E00E94C80A60914A0470914B0482E95D
:1034A00094E00E94710B80913102109231028823C6
:1034B00051F080914A0490914B04019690934B04F3
:1034C00080934A04DDCB809132021092320288232D
:1034D00031F080914A0490914B040197EFCF809195
:1034E000330210923302882309F4CACB89E090E0BA
:1034F0000E94EC0A80914A0490914B04C0CF62E490
:1035000071E082E994E00E94A80181E00E94C80A6B
:1035100060914C0470914D0482E994E00E94710B1B
:103520008091310210923102882351F080914C0435
:1035300090914D04019690934D0480934C04A0CB40
:103540008091320210923202882331F080914C0433
:1035500090914D040197EFCF809133021092330286
:10356000882309F48DCB8AE090E00E94EC0A8091D8
:103570004C0490914D0483CF6BE371E082E994E0B9
:103580000E94A80181E00E94C80A60914E047091D7
:103590004F0482E994E00E94710B809131021092F5
:1035A0003102882351F080914E0490914F0401968E
:1035B00090934F0480934E0463CB8091320210921B
:1035C0003202882331F080914E0490914F0401978C
:1035D000EFCF8091330210923302882309F450CB4D
:1035E00080914E0490914F040E94A70B8BE090E0D5
:1035F000BBCC66E371E082E994E00E94A80181E01F
:103600000E94C80A409150045091510460915204A4
:10361000709153042AE082E994E00E94250B809186
:103620003102109231028823A1F0809150049091D0
:103630005104A0915204B09153040196A11DB11DF3
:103640008093500490935104A0935204B093530478
:1036500017CB8091320210923202882361F0809160
:10366000500490915104A0915204B09153040197D9
:10367000A109B109E5CF809133021092330288236A
:1036800009F4FECA60915004709151048091520473
:10369000909153040E941A0E8CE090E065CC60E398
:1036A00071E082E994E00E94A80181E00E94C80ACA
:1036B0004091540450915504609156047091570400
:1036C0002AE082E994E00E94250B80913102109259
:1036D00031028823A1F08091540490915504A09167
:1036E0005604B09157040196A11DB11D8093540456
:1036F00090935504A0935604B0935704C1CA809187
:10370000320210923202882361F080915404909129
:103710005504A0915604B09157040197A109B1092D
:10372000E5CF8091330210923302882309F4A8CAAE
:1037300060915404709155048091560490915704FF
:103740000E941A0E8EE090E00FCC82E090E00E9482
:10375000BC068823F9F08091190290911A02009713
:10376000B1F0019709F08CCA20EA33E04EEB50E04B
:1037700070E060E080E091E00E942A0F0E944A0C15
:1037800088E291E00E94CD0B90E080E0EDCB8FE0ED
:1037900090E0EACB6FE171E082E994E00E94A80139
:1037A00081E00E94C80A8091190290911A02009744
:1037B00031F0019709F064CA65E171E0F1CB6AE18B
:1037C00071E0EECB6EE071E082E994E00E94A80126
:1037D00081E00E94C80A609158047091590482E9FE
:1037E00094E00E94710B8091310210923102882383
:1037F00009F1C0905804D0905904EFEFCE1ADE0AB8
:103800000D2C000CEE08FF0881E00E94C80A6CEB4A
:1038100070E082E994E00E94A801F0E1CF16D104A3
:10382000E104F1043CF5F7FC02C2D0925904C092C5
:10383000580426CA80913202109232028823F1F095
:10384000C0905804D090590421E0C21AD1080D2C20
:10385000000CEE08FF0881E00E94C80A6CEB70E0E3
:1038600082E994E00E94A80130E1C316D104E1048A
:10387000F104CCF2C12CD12C7601D7CF8091330248
:1038800010923302882309F4FBC980915804909167
:1038900059040E94A70B81E190E066CB65E071E0DE
:1038A00082E994E00E94A80181E00E94C80A89E0B0
:1038B0008E9D80018F9D100D112400561C4FD80144
:1038C00014966D917C9182E994E00E94710B809135
:1038D0003102109231028823A9F0F801E480F580CA
:1038E000FFEFEF1AFF0A81E00E94C80A6CEB70E05C
:1038F00082E994E00E94A801D8011596FC92EE920C
:103900001497BEC98091320210923202882339F096
:10391000F801E480F580F1E0EF1AF108E4CF80913E
:10392000330210923302882309F4AAC9F801848172
:1039300095810E94A70B80E190E016CB6BEF70E0C1
:1039400082E994E00E94A80181E00E94C80A89E00F
:103950008E9D80018F9D100D112400561C4FD801A3
:103960004D915D916D917C912AE082E994E00E94F5
:10397000250B80913102109231028823D1F0F80199
:10398000C080D180E280F380FFEFCF1ADF0AEF0A18
:10399000FF0A81E00E94C80A6CEB70E082E994E0C3
:1039A0000E94A801D801CD92DD92ED92FC9213976E
:1039B00067C98091320210923202882359F0F801CF
:1039C000C080D180E280F380F1E0CF1AD108E10815
:1039D000F108DFCF8091330210923302882309F47B
:1039E0004FC9F80160817181828193810E941A0E12
:1039F00082E190E0B9CA62EF70E082E994E00E944F
:103A0000A80189E08E9D80018F9D100D1124005624
:103A10001C4FD80116968C910E94D60A80913102D3
:103A200010923102882331F0F801868191E08927D4
:103A3000868326C98091320210923202882349F08F
:103A4000D80116968C91169791E0892716968C933B
:103A500017C98091330210923302882309F410C9E8
:103A6000F8018681882339F08FEE90E00E94CD0B1B
:103A700083E190E079CA8CEE90E0F8CF63EE70E0DD
:103A800082E994E00E94A80189E08E9D80018F9DCB
:103A9000100D112400561C4FD80117968C910E94CE
:103AA000D60A8091310210923102882331F0F80158
:103AB000878191E089278783E3C880913202109241
:103AC0003202882349F0D80117968C91179791E01C
:103AD000892717968C93D4C88091330210923302B1
:103AE000882309F4CDC8F8018781882339F080EE56
:103AF00090E00E94CD0B84E190E036CA8DED90E01D
:103B0000F8CF64ED70E082E994E00E94A80189E0BA
:103B10008E9D80018F9D100D112400561C4FD801E1
:103B200018968C910E94D60A80913102109231022F
:103B3000882331F0F801808591E089278087A0C82B
:103B40008091320210923202882349F0D8011896EF
:103B50008C91189791E0892718968C9391C8809141
:103B6000330210923302882309F48AC8F801808551
:103B7000882329F081ED90E00E94CD0BE3CD8EECFF
:103B800090E0FACF67EC70E082E994E00E94A8012F
:103B900081E00E94C80A609158047091590482E93A
:103BA00094E00E94710B80913102109231028823BF
:103BB000E1F0C0905804D0905904FFEFCF1ADF0A0B
:103BC0000D2C000CEE08FF0881E00E94C80A6CEB87
:103BD00070E082E994E00E94A80120E1C216D104BD
:103BE000E104F1040CF41FCE45CE80913202109214
:103BF0003202882311F1C0905804D090590431E06A
:103C0000C31AD1080D2C000CEE08FF0881E00E94B9
:103C1000C80A6CEB70E082E994E00E94A80140E1E0
:103C2000C416D104E104F1040CF4FDCD23CEAFE0C1
:103C3000CA2ED12CE12CF12CF8CD809133021092B8
:103C40003302882309F41CC88FE190E00E94EC0A3B
:103C500089E08E9D80018F9D100D112400561C4F10
:103C6000F80180819181A281B381809318039093A0
:103C70001903A0931A03B0931B0384E193E00E94FD
:103C80004F07D80114966D917C91072E000C880B7C
:103C9000990B0E94A52460930C0170930D018093F1
:103CA0000E0190930F0181E080935A04E3E0F0E06D
:103CB000F0932E02E0932D020E94E00B0C9440162C
:103CC0008091330210923302882311F40C94401631
:103CD0005BCDBE016F5F7F4FCE010A960E94130637
:103CE000882311F40C9456166A8170E0762F6627AB
:103CF000770F770F770F2981F8E02F9F900111241C
:103D0000262B372B8A858031E1F468856623C9F03C
:103D100070E08F81AB01481B5109CA019695982F1D
:103D20008827979587950E94E025CB018097B90158
:103D300053E0660F771F5A95E1F760789C01260FD4
:103D4000371F213854EE350714F40C945616B90178
:103D5000330F880B990B0E94A52420E030E040E04F
:103D60005CE30E945A256B017C010C945C16C092A6
:103D70001001D0921101E0921201F092130181E042
:103D8000809337020C947E16809132021092320298
:103D9000882311F40C94901680E00C948E164091B8
:103DA000100150911101609112017091130122E0F4
:103DB00082E994E00E942F0E0C94D016909359043F
:103DC0008093580447C810922E0210922D025DC8AD
:103DD0002AE939E949E95EEBC701B6010E94552598
:103DE00018160CF48BC880912D0290912E02019729
:103DF00009F051C084E193E00E940F07882309F481
:103E000094C08DE092E00E94CD0BA2E0B0E0B093B0
:103E10002E02A0932D02809158049091590429E01C
:103E2000289FF001299FF00D1124E056FC4F80855A
:103E30008823C1F181E080932C0261E08CE00E9434
:103E40001604E1EBF1E0E491E33009F496C350F499
:103E5000E130E1F0E23009F48AC361E08CE00E94D5
:103E6000D90219C0E73009F494C3E83009F49AC3C1
:103E7000E43099F78091800080628093800084EB29
:103E800090E090938B0080938A0005C084B5806891
:103E900084BD84EB87BD80912D0290912E02029704
:103EA00009F043C080912C02882381F08091320276
:103EB00010923202882351F010922C0261E08CE0C3
:103EC0000E94160460E08CE00E94D90280915804A0
:103ED0009091590429E0289FF001299FF00D1124A9
:103EE000E056FC4F2781222309F465C380913102FB
:103EF000109231028823C9F0E3E0F0E0F0932E0243
:103F0000E0932D0210922C0261E08CE00E941604D6
:103F100060E08CE00E94D90280915804909159048D
:103F20000196909359048093580480915A048823F1
:103F300009F4B5C081E093E00E943D0781E093E081
:103F40000E940F07882309F4AAC081E093E00E9431
:103F50005C076AE072E082E994E00E94A801609147
:103F600058047091590482E994E00E94710B66E054
:103F700072E082E994E00E94A80180915B0464E011
:103F800072E0811102C062E072E082E994E00E9476
:103F9000A80180912D0290912E028130910509F0A7
:103FA00011C36EEF71E082E994E00E94A801C09015
:103FB0001803D0901903E0901A03F0901B0380912E
:103FC0001C0390911D03A0911E03B0911F03C81AFA
:103FD000D90AEA0AFB0AC701B60128EE33E040E03D
:103FE00050E00E94F425283731054105510540F085
:103FF000C701B60120E63AEE40E050E00E94F42509
:104000003F932F9349E651E05F934F938CE192E009
:104010009F938F930E9436266CE172E082E994E0D0
:104020000E94160B0F900F900F900F900F900F9013
:1040300081E00E94C80A62EF71E082E994E00E9488
:10404000A80120E030E04EEF52EC60910201709147
:10405000030180910401909105010E94FD238111CB
:10406000D9C26FEE71E082E994E00E94A8016AEE85
:1040700071E082E994E00E94A80180915804909137
:10408000590429E0289FF001299FF00D1124E056E2
:10409000FC4F6481758182E994E00E94710B8EEE81
:1040A00092E00E943D078EEE92E00E940F07882367
:1040B00009F48FC08EEE92E00E945C0780912C0282
:1040C00067EE71E0811102C064EE71E08AE392E074
:1040D0000E94A80160912D0270912E028AE392E065
:1040E0000E94710B60EE71E08AE392E00E94A801E9
:1040F00060915804709159048AE392E00E94710B18
:104100006CED71E08AE392E00E94A80180915B046B
:104110006AED71E0811102C068ED71E08AE392E01E
:104120000E94A80163ED71E08AE392E00E94A80179
:104130004091100150911101609112017091130191
:1041400022E08AE392E00E942F0E6EEC71E08AE397
:1041500092E00E94A801809158049091590419E0BE
:10416000189FF001199FF00D1124E056FC4F648157
:1041700075818AE392E00E94710B80912D029091EB
:104180002E028130910509F053C26AEC71E08AE396
:1041900092E00E94A8016091180370911903809128
:1041A0001A0390911B0300911C0310911D03209191
:1041B0001E0330911F03601B710B820B930B28EEC3
:1041C00033E040E050E00E94F425CA01B9010E94AA
:1041D0001A0E8AE393E00E943D078AE393E00E946F
:1041E0000F07882309F45DC18AE393E00E945C070E
:1041F00080919E03882309F42AC10E949F046A8B40
:104200007B8B8C8B9D8B8091860390918703A091F3
:104210008803B09189034A895B896C897D89481B31
:10422000590B6A0B7B0B8091920390919303A091A1
:104230009403B0919503481759076A077B0708F460
:1042400006C1E0918003F09181034080518062803B
:104250007380E0918403F0918503A3019201608152
:104260007181828193810E9490236B017C01209156
:104270008E0330918F034091900350919103C301BD
:10428000B2010E9490236E8B7F8B888F998F209133
:104290007403309175034091760350917703C70101
:1042A000B6010E945A2520918A0330918B034091D8
:1042B0008C0350918D030E9491234B015C018092ED
:1042C0008A0390928B03A0928C03B0928D039091FD
:1042D0009F039A8F91111CC020917003309171033C
:1042E00040917203509173036E897F89888D998DF7
:1042F0000E945A259B01AC01C501B4010E94902384
:1043000060938A0370938B0380938C0390938D0347
:1043100020918A0330918B0340918C0350918D033F
:104320002B8F3C8F4D8F5E8F00919A0330909B03B3
:1043300020909C0310919D03202F332D422D512F4F
:104340006B8D7C8D8D8D9E8D0E94552518160CF0E1
:104350008FC1802F932DA22DB12F80938A0390932C
:104360008B03A0938C03B0938D033A8D332309F410
:104370009AC1209170033091710340917203509162
:104380007303C701B6010E945A256B017C0120917D
:1043900078033091790340917A0350917B036E89C1
:1043A0007F89888D998D0E945A259B01AC0160916F
:1043B0008A0370918B0380918C0390918D030E94EE
:1043C0009023A70196010E9491236B017C019B0120
:1043D000AC01602F732D822D912F0E94FD2387FD4C
:1043E00016C0009196033090970320909803109187
:1043F0009903202F332D422D512FB601C7010E9462
:10440000FD2387FD04C00C2D3D2C2E2C1F2DE0918B
:104410008203F0918303802F932DA22DB12F8083EF
:104420009183A283B38340928E0350928F03609254
:104430009003709291038A899B89AC89BD8980938E
:10444000860390938703A0938803B09389036091B8
:1044500060037091610380916203909163030E94F5
:1044600074246093DF027093E0028093E1029093E2
:10447000E2028BED92E00E944F078BED92E00E94EA
:104480003D0769EB71E08AE392E00E94A801609128
:1044900060037091610380916203909163030E94B5
:1044A000150F80913502909136028097F9F08BEDCF
:1044B00092E00E940F078111FAC06091440470914C
:1044C000450480914604909147040E94A3242091C2
:1044D00060033091610340916203509163030E9435
:1044E000FD2387FFE4C081E00E94B20687E293E0EB
:1044F0000E943D0787E293E00E940F07811104C0EC
:1045000080911B02882319F187E293E00E945C07E7
:1045100010921B0280915B04882309F4CAC08EE6C6
:1045200091E00E94BA0B8091600490916104019621
:1045300071F040914E0450914F046091500470917D
:10454000510480915204909153040E94650380E0CD
:1045500090E0892B11F40C94A2150E943602882356
:1045600011F40C94A2150E9400000C94A21584B5BD
:10457000806284BD84EB88BD8ECC80918000806891
:104580008093800084EB90E0909389008093880072
:1045900082CC8091B00080688093B00084EB8093DF
:1045A000B30079CC8091B00080628093B00084EB3E
:1045B0008093B40070CC23E030E030932E0220933F
:1045C0002D02AECC0097E1F46AEF71E082E994E04D
:1045D0000E94A801809158049091590429E0289FD5
:1045E000F001299FF00D1124E056FC4F40815181CC
:1045F000628173812AE082E994E00E94250B18CD44
:10460000029709F015CD66EF71E082E994E00E940F
:10461000A8010ECD4091100150911101609112013D
:104620007091130122E082E994E00E942F0E1FCDC9
:104630000097B1F466EC71E08AE392E00E94A80171
:104640008091580490915904189FF001199FF00D22
:104650001124E056FC4F6081718182819381B7CD36
:10466000029709F0B6CD82EC91E00E94CD0BB1CD5E
:104670008090960390909703A0909803B090990330
:10468000A50194016B8D7C8D8D8D9E8D0E94FD23E7
:1046900087FF6BCE80928A0390928B03A0928C034B
:1046A000B0928D0362CEC12CD12C760170CE80E009
:1046B0001BCF81E791E00E94BA0B8091600490913A
:1046C0006104019609F443CF40914E0450914F0488
:1046D0006091540470915504809156049091570450
:1046E00034CFFB01DC0102C005900D9241505040D7
:1046F000D8F70895F999FECF92BD81BDF89A992710
:1047000080B50895262FF999FECF1FBA92BD81BDBD
:1047100020BD0FB6F894FA9AF99A0FBE0196089543
:104720005058BB27AA270E94A8230C941B250E943F
:104730000D2538F00E94142520F039F49F3F19F41C
:1047400026F40C940A250EF4E095E7FB0C9404255E
:10475000E92F0E942C2558F3BA17620773078407C4
:10476000950720F079F4A6F50C944E250EF4E0950B
:104770000B2EBA2FA02D0B01B90190010C01CA011B
:10478000A0011124FF27591B99F0593F50F4503EC6
:1047900068F11A16F040A22F232F342F4427585FB8
:1047A000F3CF469537952795A795F0405395C9F7D0
:1047B0007EF41F16BA0B620B730B840BBAF0915088
:1047C000A1F0FF0FBB1F661F771F881FC2F70EC027
:1047D000BA0F621F731F841F48F4879577956795FA
:1047E000B795F7959E3F08F0B0CF9395880F08F0E6
:1047F0009927EE0F9795879508950E94E02408F475
:1048000081E008950E9416240C941B250E94142513
:1048100058F00E940D2540F029F45F3F29F00C94D8
:10482000042551110C944F250C940A250E942C2527
:1048300068F39923B1F3552391F3951B550BBB27CF
:10484000AA2762177307840738F09F5F5F4F220F14
:10485000331F441FAA1FA9F335D00E2E3AF0E0E80B
:1048600032D091505040E695001CCAF72BD0FE2F55
:1048700029D0660F771F881FBB1F261737074807E9
:10488000AB07B0E809F0BB0B802DBF01FF279358A1
:104890005F4F3AF09E3F510578F00C9404250C943C
:1048A0004F255F3FE4F3983ED4F38695779567955F
:1048B000B795F7959F5FC9F7880F911D96958795D6
:1048C00097F90895E1E0660F771F881FBB1F6217F5
:1048D00073078407BA0720F0621B730B840BBA0BB3
:1048E000EE1F88F7E09508950E94342588F09F57C1
:1048F00098F0B92F9927B751B0F0E1F0660F771F04
:10490000881F991F1AF0BA95C9F714C0B13091F0F9
:104910000E944E25B1E008950C944E25672F782F04
:104920008827B85F39F0B93FCCF3869577956795BE
:10493000B395D9F73EF490958095709561957F4F2A
:104940008F4F9F4F0895E89409C097FB3EF49095D0
:104950008095709561957F4F8F4F9F4F9923A9F058
:10496000F92F96E9BB279395F695879577956795E7
:10497000B795F111F8CFFAF4BB0F11F460FF1BC02B
:104980006F5F7F4F8F4F9F4F16C0882311F096E9BE
:1049900011C0772321F09EE8872F762F05C066236C
:1049A00071F096E8862F70E060E02AF09A95660F25
:1049B000771F881FDAF7880F9695879597F90895DE
:1049C000990F0008550FAA0BE0E8FEEF1616170620
:1049D000E807F907C0F012161306E407F50798F088
:1049E000621B730B840B950B39F40A2661F0232BA1
:1049F000242B252B21F408950A2609F4A140A6951D
:104A00008FEF811D811D089597F99F6780E870E001
:104A100060E008959FEF80EC089500240A94161634
:104A2000170618060906089500240A94121613069C
:104A3000140605060895092E0394000C11F488232A
:104A400052F0BB0F40F4BF2B11F460FF04C06F5F46
:104A50007F4F8F4F9F4F089557FD9058440F551F1C
:104A600059F05F3F71F04795880F97FB991F61F0F0
:104A70009F3F79F087950895121613061406551F67
:104A8000F2CF4695F1DF08C0161617061806991FD3
:104A9000F1CF86957105610508940895E894BB27C8
:104AA00066277727CB0197F908950E94E02408F440
:104AB0008FEF08950E946D250C941B250E940D25F3
:104AC00038F00E94142520F0952311F00C94042551
:104AD0000C940A2511240C944F250E942C2570F368
:104AE000959FC1F3950F50E0551F629FF001729F93
:104AF000BB27F00DB11D639FAA27F00DB11DAA1FA2
:104B0000649F6627B00DA11D661F829F2227B00DEE
:104B1000A11D621F739FB00DA11D621F839FA00D79
:104B2000611D221F749F3327A00D611D231F849FC9
:104B3000600D211D822F762F6A2F11249F57504020
:104B40009AF0F1F088234AF0EE0FFF1FBB1F661F9B
:104B5000771F881F91505040A9F79E3F510580F064
:104B60000C9404250C944F255F3FE4F3983ED4F356
:104B7000869577956795B795F795E7959F5FC1F708
:104B8000FE2B880F911D9695879597F908950E94A1
:104B9000E024880B990B0895AA1BBB1B51E107C0A9
:104BA000AA1FBB1FA617B70710F0A61BB70B881FBD
:104BB000991F5A95A9F780959095BC01CD0108954C
:104BC00097FB072E16F4009407D077FD09D00E94BA
:104BD000CC2507FC05D03EF4909581959F4F089514
:104BE000709561957F4F0895A1E21A2EAA1BBB1BF9
:104BF000FD010DC0AA1FBB1FEE1FFF1FA217B307A9
:104C0000E407F50720F0A21BB30BE40BF50B661FBE
:104C1000771F881F991F1A9469F760957095809582
:104C200090959B01AC01BD01CF010895EE0FFF1FD0
:104C30000590F491E02D09940E942726A59F900DE0
:104C4000B49F900DA49F800D911D11240895A29FE3
:104C5000B001B39FC001A39F700D811D1124911D50
:104C6000B29F700D811D1124911D0895AEE0B0E03A
:104C7000ECE3F6E20C94E5280D891E8986E08C832E
:104C80001A8309838FEF9FE79E838D83AE01475E72
:104C90005F4F6F89788DCE0101960E9459262F8132
:104CA0003885020F131FF80110822E96E4E00C9451
:104CB0000129ABE0B0E0EFE5F6E20C94D7287C01E7
:104CC0003B018A01FC0117821682838181FFC8C1E2
:104CD000CE0101965C01F7019381F30193FD85916B
:104CE00093FF81913F01882309F453C1853239F440
:104CF00093FD859193FF81913F01853229F4B7019E
:104D000090E00E944928E7CF912C212C312CFFE123
:104D1000F31538F08B3211F190F4803209F18332BF
:104D200029F137FC3CC020ED280F2A3050F536FE23
:104D300020C08AE0989E200D1124922E06C08D324C
:104D400091F0803371F7689430F8F30193FD859109
:104D500093FF81913F018111DACF21C0689431F82E
:104D6000689432F8F2CF689433F8EFCF689434F84F
:104D7000ECCFEAE02E9E200D1124222E689435F807
:104D8000E4CF8E3229F436FC04C1689436F8DDCFC6
:104D90008C3619F4689437F8D8CF8836B1F2982F4A
:104DA0009F7D95549330E0F08336A1F18337C1F1B4
:104DB000833509F063C02801F2E04F0E511CF80161
:104DC000C080D180692D70E036FC02C06FEF7FEFAC
:104DD000C6010E9433284C01689437F882010AC04A
:104DE0000C5F1F4FFFE3F98388248394912C6501A6
:104DF000E89437F833FE2DC0522C8114910471F5DC
:104E0000552009F468CFB70180E290E00E9449285C
:104E10005A94F6CFF801808189830E5F1F4FE4CF4B
:104E20002801F2E04F0E511CF801C080D180692D9D
:104E300070E036FC02C06FEF7FEFC6010E943E2893
:104E40004C018201D5CFB70180E290E00E94492851
:104E50002A942814190409F0B0F7CECFF60137FCD4
:104E6000859137FE81916F01B70190E00E9449283A
:104E700051105A94F1E08F1A9108BFCF843619F07F
:104E8000893609F077C0F80137FE6BC06081718107
:104E9000828193810C5F1F4FF32DFF763F2E97FF8A
:104EA00009C090958095709561957F4F8F4F9F4F6A
:104EB000689437F82AE030E0A5010E947928C82ECE
:104EC000CA188C2C432C36FE0CC0E89440F8C91448
:104ED00040F434FE05C032FC03C0F32DFE7E4F2E9D
:104EE000892C44FE95C0FE01EC0DF11D80818033BC
:104EF00009F087C0242D297E422E842D8870582EDB
:104F000043FC95C040FE8FC09C2C821418F42C0CDE
:104F1000922C981844FE91C0B70180E390E00E9463
:104F2000492842FE09C088E790E041FE02C088E5BA
:104F300090E0B7010E944928C91408F48AC0CA94B5
:104F4000D12C9FEFC91AD90ACA0CDB1CF601829139
:104F50006F01B70190E00E944928AC14BD04B1F77D
:104F60004FCF60817181072E000C880B990B0E5F6B
:104F70001F4F92CFD32CE894D4F82AE030E0853745
:104F800039F1232D297FD22E8F3601F148F488354F
:104F9000A9F0F701868197812B96E2E10C94F32822
:104FA000803749F08837A9F7D4FE02C06894D2F858
:104FB00020E130E00DC06894D4F8F6CF34FE03C091
:104FC000822F8660D82E20E132E002C028E030E057
:104FD000F801D7FE0FC060817181828193810C5FDF
:104FE0001F4FA5010E947928C82ECA183D2CE894AD
:104FF00037F867CF6081718190E080E00E5F1F4FCE
:10500000F0CF42FC02C0839478CF8394839475CF11
:10501000842D867809F471CFF6CFB70180E290E055
:105020000E94492883948214C0F3512C73CF522CD0
:105030005818821408F46ECFF8CF842D867809F4BE
:105040007BCF8BE241FE80E247FC8DE2B70190E02E
:1050500071CFB70180E390E00E9449289A946CCF09
:105060008FEF9FEF99CFFC010590615070400110C8
:10507000D8F7809590958E0F9F1F0895FC01615081
:10508000704001900110D8F7809590958E0F9F1F6A
:1050900008950F931F93CF93DF93182F092FEB01E0
:1050A0008B8181FD09C01FEF0FEF812F902FDF91C2
:1050B000CF911F910F91089582FF14C02E813F81DF
:1050C0008C819D81281739073CF4E881F981CF0153
:1050D00001969983888310838E819F8101969F8397
:1050E0008E83E3CFE885F985812F0995892BA1F37C
:1050F000DACFFA01AA27283051F1203181F1E89462
:105100006F936E7F6E5F7F4F8F4F9F4FAF4FB1E0BA
:105110003ED0B4E03CD0670F781F891F9A1FA11DB5
:10512000680F791F8A1F911DA11D6A0F711D811DB6
:10513000911DA11D20D009F468943F912AE0269F7B
:1051400011243019305D3193DEF6CF010895462FDA
:105150004770405D4193B3E00FD0C9F7F6CF462FBB
:105160004F70405D4A3318F0495D31FD4052419324
:1051700002D0A9F7EACFB4E0A695979587957795E1
:105180006795BA95C9F700976105710508959B0168
:10519000AC010A2E06945795479537952795BA95F1
:1051A000C9F7620F731F841F951FA01D08952F92CA
:1051B0003F924F925F926F927F928F929F92AF92A7
:1051C000BF92CF92DF92EF92FF920F931F93CF93F4
:1051D000DF93CDB7DEB7CA1BDB0B0FB6F894DEBF8B
:1051E0000FBECDBF09942A88398848885F846E84B1
:1051F0007D848C849B84AA84B984C884DF80EE80FB
:10520000FD800C811B81AA81B981CE0FD11D0FB603
:10521000F894DEBF0FBECDBFED010895F894FFCF27
:1052200018010000C841A001A0013C000000C841D5
:105230000000C84100000000550F2A0F5E00BC00AE
:105240007701000000006C02CC01F901B9022A02CA
:1052500008021C0200000000E60ACC01AC04AB040A
:105260000D0A006E616E00696E66006F7666004C16
:105270006F616456616C7565730062004449534305
:105280004F4E4E45435445440025303375004F6E14
:06529000004F66660000FD
:00000001FF
