:100000000C9470010C943C100C9415100C949801F5
:100010000C9498010C9498010C9498010C949801FC
:100020000C9498010C9498010C9498010C949801EC
:100030000C9498010C9498010C9498010C949801DC
:100040000C94CB0F0C9498010C94990F0C94730F93
:100050000C9498010C9498010C9498010C949801BC
:100060000C9498010C949801504944726573004FA8
:10007000004400550059004E00005EBCE2613FDDC7
:1000800083C29C7E20A3FD1F41009D23BE46DB65ED
:10009000F88C11AF32CA57E9740000000024002721
:1000A000002A0000000000250028002B0042726199
:1000B0007576657265696E2E6F726700202020204C
:1000C00020202020202000526173744E72004F6661
:1000D000004F6E00416C61726D202020004F660061
:1000E0004F6E005761697420202020004F66004F3A
:1000F0006E0041637469766520200054696D655B0C
:100100004D696E5D0054656D705B435D200052610A
:1001100073744E72004D656E7500526173740052B7
:100120006173744D656E75005341564556414C00E0
:1001300053774F66660053774F6E0053774269746A
:1001400073005377527074005377504C00537750BC
:10015000726F74005069644D696E576E6400506927
:100160006457537A005069644F57496E7400506960
:10017000644B44005069644B49005069644B500023
:1001800053657420004F5652200052617374004230
:10019000726577004D656E75000000000800020171
:1001A0000000030407000000000000000050494464
:1001B000636F6D703A0020573A0020543A00205285
:1001C0003A002054733A002054693A00300031005C
:1001D00020483A0020533A00423A00413A00205465
:1001E000733A002D2D0054693A0020573A002054EC
:1001F0003A0020523A003000310020483A00533A89
:100200000054696D655265616368656400546D7082
:1002100052656163686564006E787453743A0020B7
:1002200054693A00300031004F565220483A002DB0
:100230002D002054693A003000310020483A005E19
:1002400001011F01030301008A02010A01020201E8
:100250000064001E47040B0906007C01010601032F
:10026000030100F401060E0102020100C2011701A0
:1002700001020201019600023E0106060100C800CB
:1002800003820710031000C8008207100710030143
:100290006D01120103010103010E0124010102029B
:1002A00001014001240101020201010000000023BC
:1002B00000260029000404040404040404020202C9
:1002C0000202020303030303030102040810204097
:1002D00080010204081020010204081020006310AD
:1002E00011241FBECFEFD8E0DEBFCDBF11E0A0E0EC
:1002F000B1E0E0EFF1E502C005900D92A637B1073D
:10030000D9F724E0A6E7B1E001C01D92A93AB207EF
:10031000E1F711E0C0E7D1E004C02197FE010E949F
:10032000FE25CF36D107C9F70E947A120C94F62821
:100330000C9400000895DC01ED91FC910190F08196
:10034000E02D0994EF92FF920F931F93CF93DF93C9
:100350008C017B01D0E0C0E0F701EC0FFD1F649140
:10036000662361F0D801ED91FC910190F081E02DC0
:10037000C8010995892B11F02196EECFCE01DF91AE
:10038000CF911F910F91FF90EF900895AF92BF9280
:10039000CF92DF92EF92FF920F931F93CF93DF9351
:1003A0006C017B018B01040F151FEB015E01AE1880
:1003B000BF08C017D10759F06991D601ED91FC91A2
:1003C0000190F081E02DC6010995892B79F7C501CF
:1003D000DF91CF911F910F91FF90EF90DF90CF9021
:1003E000BF90AF900895FC01538D448D252F30E0D0
:1003F000842F90E0821B930B541710F0CF96089532
:1004000001970895FC01918D828D981761F0A28D5E
:10041000AE0FBF2FB11D5D968C91928D9F5F9F7324
:10042000928F90E008958FEF9FEF0895FC01918DDA
:10043000828D981731F0828DE80FF11D858D90E047
:1004400008958FEF9FEF0895FC01918D228D892FE4
:1004500090E0805C9F4F821B91098F7399270895CC
:1004600089E392E00E94240221E0892B09F420E034
:10047000822F089580E090E0892B29F00E943002BD
:1004800081110C9400000895FC01A48DA80FB92FD0
:10049000B11DA35ABF4F2C91848D90E001968F73AC
:1004A0009927848FA689B7892C93A089B1898C91CB
:1004B000837080648C93938D848D981306C002881A
:1004C000F389E02D80818F7D80830895EF92FF92E4
:1004D0000F931F93CF93DF93EC0181E0888F9B8D67
:1004E0008C8D98131AC0E889F989808185FF15C021
:1004F0009FB7F894EE89FF896083E889F989808144
:100500008370806480839FBF81E090E0DF91CF9112
:100510001F910F91FF90EF900895F62E0B8D10E034
:100520000F5F1F4F0F731127E02E8C8D8E110CC0A3
:100530000FB607FCFACFE889F989808185FFF5CFEE
:10054000CE010E944402F1CFEB8DEC0FFD2FF11D87
:10055000E35AFF4FF0829FB7F8940B8FEA89FB892B
:1005600080818062CFCFCF93DF93EC01888D882389
:10057000B9F0AA89BB89E889F9898C9185FD03C006
:10058000808186FD0DC00FB607FCF7CF8C9185FFEB
:10059000F2CF808185FFEDCFCE010E944402E9CFEA
:1005A000DF91CF91089590E0FC01E756FE4F249132
:1005B000FC01E753FD4F3491FC01EB54FD4FE491F6
:1005C000EE23C9F0222339F0233001F1A8F42130C1
:1005D00019F1223029F1F0E0EE0FFF1FED55FF4F2A
:1005E000A591B4918FB7F894EC91611126C0309524
:1005F0003E233C938FBF08952730A9F02830C9F0DF
:10060000243049F7809180008F7D03C08091800065
:100610008F7780938000DFCF84B58F7784BDDBCF69
:1006200084B58F7DFBCF8091B0008F778093B00031
:10063000D2CF8091B0008F7DF9CF3E2BDACF1F93C0
:10064000CF93DF93182FD92F80916B0460E0C1E026
:10065000811102C061E0C0E080915F040E94D3027A
:100660002091630430916404129FC001139F900D88
:1006700011248230910538F0880F991F880F991F37
:1006800005970197F1F76C2F80915F040E94D302C8
:100690002091630430916404D29FC001D39F900DD8
:1006A00011248230910538F0880F991F880F991F07
:1006B00005970197F1F7DF91CF911F9108954F9220
:1006C0005F926F927F928F929F92AF92BF92CF92E2
:1006D000DF92EF92FF920F931F93CF93DF932B0143
:1006E0003C016A01C0915D04D0915E04CF3FDC07FC
:1006F000A9F0C23068F4FE01FF27C130D1F1E898BB
:10070000EE0FFF1FEA5FFE4F8AE991E0918380833D
:100710008FEF9FEF90935E0480935D04F12CE12CAA
:10072000812C912C540183948091610490916204F6
:10073000E816F9067CF586010150110917FD20C065
:10074000D501C401002E04C0880F991FAA1FBB1F2A
:100750000A94D2F784219521A621B721892B8A2BCF
:100760008B2B49F08091690490916A040E941F03C9
:10077000E3CFE998C5CF8091670490916804F6CFE4
:1007800080916504909166040E941F038FEFE81A20
:10079000F80ACACF60E080915F040E94D302CF3F85
:1007A000DC0729F1D0935E04C0935D041092D60259
:1007B0001092D7021092D8021092D90210923802E9
:1007C000109237028C2FC23090F4DD27CC0FDD1F42
:1007D000CA5FDE4F20E637E0398328838130C1F0DD
:1007E000809169008C7F816080936900E89ADF9135
:1007F000CF911F910F91FF90EF90DF90CF90BF901E
:10080000AF909F908F907F906F905F904F900895E2
:1008100080916900837F846080936900E99AE7CFC3
:10082000CF93DF9390E0FC01E753FD4F24918B546D
:100830009D4FFC0184918823D1F090E0880F991F8F
:10084000FC01E756FF4FA591B491FC01ED55FF4F18
:10085000C591D49161110EC09FB7F8948C91E22F8D
:10086000E0958E238C932881E223E8839FBFDF915C
:10087000CF9108958FB7F894EC91E22BEC938FBF52
:10088000F6CF3FB7F89480910D0290910E02A0919F
:100890000F02B091100226B5A89B05C02F3F19F09A
:1008A0000196A11DB11D3FBFBA2FA92F982F8827F0
:1008B000BC01CD01620F711D811D911D42E0660FCB
:1008C000771F881F991F4A95D1F708958F929F929D
:1008D000AF92BF92CF92DF92EF92FF926B017C01B9
:1008E0000E9441044B015C01C114D104E104F104F4
:1008F000B9F00E944104681979098A099B09683E88
:1009000073408105910580F321E0C21AD108E10806
:10091000F10888EE880E83E0981EA11CB11CE4CF7C
:10092000FF90EF90DF90CF90BF90AF909F908F900F
:1009300008952FB7F8946091090270910A0280918E
:100940000B0290910C022FBF0895089590E080E073
:100950000895DC0180E0615090F09D919827E92F87
:10096000EF70F0E0E758FF4F2491E92FE295EF7028
:10097000F0E0E757FF4FE491822F8E27ECCF0895E8
:10098000DC012C911196ED91FC91F8948181822BE0
:1009900081839281322F30959323928387E090E078
:1009A0000197F1F781818323818383E290E00197AE
:1009B000F1F790817894EFECF0E03197F1F7922322
:1009C00081E009F480E00895FC0190810180F281CA
:1009D000E02D292F209560FF14C0F8948281822396
:1009E00082838181892B8183A3E2B0E01197F1F7A3
:1009F0008281982B9283789487ED90E00197F1F7AC
:100A00000895F8948281822382838181892B818356
:100A1000AFEFB0E01197F1F78281982B9283789431
:100A20008FE090E0EBCFDF92EF92FF920F931F9356
:100A3000CF93DF93EC01D62EE42E08E010E0FF24E4
:100A4000F39461E08D2D8F2109F460E0CE010E94C6
:100A5000E404FF0C01501109A1F7E11010C0F89453
:100A6000E981FA8191818881809589238183E98157
:100A7000FA81928188818095892382837894DF919D
:100A8000CF911F910F91FF90EF90DF900895EF921B
:100A9000FF920F931F93CF93DF938C017B0140E074
:100AA00065E50E941305E70188E0E80EF11C6991F5
:100AB00040E0C8010E941305CE15DF05C1F7DF91A4
:100AC000CF911F910F91FF90EF900895FC019081BD
:100AD0000180F281E02DF8948181292F20958223D5
:100AE000818378943DE743E050E0315029F1DA0109
:100AF0001197F1F780818923C1F3F89482818223D1
:100B000082838181892B81837894ABE7B7E0119749
:100B1000F1F7F894818182238183A3E1B1E01197F9
:100B2000F1F78081982381E009F080E07894E3E692
:100B3000F6E03197F1F7089580E00895CF92DF92C3
:100B4000EF92FF9280917504909176040E94660561
:100B500040E06CEC80917504909176040E9413053E
:100B600040916C0464E480917504909176040E9435
:100B7000130580917004882309F1E0916F0480913E
:100B80007104882301F180916C0481111CC00E94C2
:100B900099046B017C0180917504909176040E9408
:100BA000C004813059F00E9499046C197D098E09A6
:100BB0009F096E3E72408105910568F3FF90EF90AA
:100BC000DF90CF900895E9508EEE92E0E33038F454
:100BD000F0E0EE0FFF1FE45EFE4F808191816C011B
:100BE000990FEE08FF0880916D04882329F060E0DA
:100BF00080916E040E94D302C701B6010E94660470
:100C000080916D048823D1F261E080916E04FF90A1
:100C1000EF90DF90CF900C94D3026F927F928F92DF
:100C20009F92AF92BF92CF92DF92EF92FF920F937B
:100C30001F93CF93DF938C01EB018091750490910A
:100C400076040E946605882309F43FC0B8018091AC
:100C50007504909176040E94470540E06EEB809108
:100C60007504909176040E9413057E016E0189E05F
:100C7000C80ED11C8E01A0907504B090760488E057
:100C8000882E912C712C66246394C5010E94C004A7
:100C900081117628660CE1E08E1A9108B1F7F8010F
:100CA00071928F01CE16DF0631F780917504909115
:100CB00076040E946605813041F4F70181917F013D
:100CC000811105C0E017F107C1F790E008C068E0A6
:100CD000CE010E94A90491E028852813F6CF892F20
:100CE000DF91CF911F910F91FF90EF90DF90CF9008
:100CF000BF90AF909F908F907F906F900895CF930B
:100D0000DF93CDB7DEB729970FB6F894DEBF0FBEDD
:100D1000CDBFBE016F5F7F4F0E940D06882331F06B
:100D20008D818F33A9F020F48F31A1F080E007C0CE
:100D30008F3521F08F37D1F78CE001C08BE02996F9
:100D40000FB6F894DEBF0FBECDBFDF91CF910895EF
:100D50008AE0F5CF89E0F3CF90915A04981719F003
:100D600091E090931B0280935A0408950F931F9370
:100D7000CF938C01C091310210923102CC23E9F063
:100D800063E770E089E392E00E94A201809119027A
:100D900090911A0201968017910751F090931A02D0
:100DA00080931902C0E08C2FCF911F910F9108956D
:100DB00010921A0210921902F5CF8091320210920D
:100DC00032028823C9F061E770E089E392E00E9473
:100DD000A2018091190290911A02009739F40150F2
:100DE000110910931A0200931902DDCF0197909315
:100DF0001A0280931902D7CFC091330210923302A6
:100E0000CC2381F26FE670E089E392E00E94A201B8
:100E1000CACF0F931F93CF93DF93FC012289222324
:100E200031F080E0DF91CF911F910F910895EC0197
:100E30000E949904088119812A813B81DC01CB0140
:100E4000801B910BA20BB30B88879987AA87BB875E
:100E50000C811D812E813F8180179107A207B30766
:100E600000F3088719872A873B8781E0DBCFCF9380
:100E7000DF93FC012089211109C0EC010E94990433
:100E8000688379838A839B8381E0888BDF91CF910C
:100E90000895FC0110821182128213821486158635
:100EA00016861786108A118A128A0895CF93DF93C7
:100EB000EC010E944907CE01DF91CF910C943707D6
:100EC0002F923F924F925F926F927F928F929F925A
:100ED000AF92BF92CF92DF92EF92FF920F931F9348
:100EE000CF93DF93CDB7DEB765970FB6F894DEBF2B
:100EF0000FBECDBF0E9441046B017C0180910402B2
:100F0000909105022601481A590A4DEC441640E119
:100F1000540608F4E0C08091020290910302009709
:100F200089F020917C0130917D011201221A330A4F
:100F3000910137FE03C0319521953109283C3105D7
:100F40000CF0C5C0019690930302809302020297B1
:100F500009F0BDC09FE3692E92E0792E01E010E018
:100F600020907A0130907B013B862A8649E050E050
:100F7000B301CE0101960E9459238B816C816817C1
:100F800008F4682F70E080917C0190917D010E94AF
:100F9000B4259B0140910A0150910B01649FC0014F
:100FA000659F900D749F900D112464E670E00E947F
:100FB000B4258985A1E0B0E0882311F0A2E0B0E07B
:100FC0008D81829FA001839F500D11245D874C87E6
:100FD0008E81829F1001839F300C11243F862E86C4
:100FE0008F81829FA001839F500D1124598B488BC4
:100FF0008885829F1001839F300C11243B8A2A8AA6
:10100000FD01EE0FFF1FE458FE4F812C912C54017F
:101010004A855B85415051095D8B4C8B8C899D893C
:10102000A817B90708F040C0880C991CAA1CBB1C63
:1010300080819181AC012C843D844219530957FF72
:1010400003C05195419551094617570770F44281E5
:1010500053812E843F844219530957FF03C0519591
:101060004195510946175707E0F048895989841B73
:10107000950B97FF03C09195819591098617970766
:10108000C8F4828193812A883B888219930997FF4B
:1010900003C09195819591098617970758F4689434
:1010A00080F812963496BACF4A855B854830510550
:1010B00008F053C00F5F1F4F59E0650E711C0D30D3
:1010C000110509F04DCF1092030210920202109206
:1010D0007B0110927A0180917A0190917B01833497
:1010E000910540F010927B0110927A011092030258
:1010F0001092020280917A0190917B019C012F5FF6
:101100003F4F30937B0120937A01880F991FFC0198
:10111000E458FE4F51824082C0920402D0920502F0
:10112000E0920602F092070265960FB6F894DEBFD1
:101130000FBECDBFDF91CF911F910F91FF90EF9028
:10114000DF90CF90BF90AF909F908F907F906F90E7
:101150005F904F903F902F9008958092D60290928A
:10116000D702A092D802B092D9022C883D8836943A
:1011700027943092380220923702309379012093DD
:10118000780110937701009376019DCFBF92CF92A3
:10119000DF92EF92FF920F931F93CF93DF93EC01B7
:1011A000B62EC72E8D85811105C0CE010E94660521
:1011B00081110EC01B861D861C8680E0DF91CF91B9
:1011C0001F910F91FF90EF90DF90CF90BF90089507
:1011D00040E060EFCE010E94130501E0E12CD12C2C
:1011E00011E0CE010E94C004F82ECE010E94C0047E
:1011F00091E0F91218C0813099F51134D8F2DB86EC
:10120000D11002C081E08D878B81882399F22396CB
:10121000EB2DFC2DCF01089629912193E817F907B2
:10122000D9F781E0CBCFEE2DF0E0F8120FC08B851F
:101230001817A0F4DE01AE0FBF1F13968C91802308
:1012400079F4F12C193008F41C87D12EEC0FFD1F16
:101250008381902F9095892383830AC08113F1CFD6
:10126000FE01EE0DF11D8381802B8383FF24F39417
:101270006F2DCE010E94E4041F5F000F11F4E39470
:1012800001E087E08E1508F0ACCFB7CFFF920F9347
:101290001F93CF93DF938C01F62EE0917504F091AC
:1012A0007604138615861486128611861086178298
:1012B0001682158214821382C0E0B80180917504F1
:1012C000909176040E94C608D82F882329F0FC1636
:1012D00029F0CF5FFC1688F7D0E008C067E0C801AE
:1012E0000E94A904F80197818913F3CF8D2FDF9114
:1012F000CF911F910F91FF900895CF93DF93EC0151
:1013000060E08E810E94D30261E08E810E94D30250
:1013100060E08E810E94D3028BE891E00197F1F7A3
:10132000DF91CF910895CF92DF92EF92FF920F93CA
:101330001F93CF93DF936C017C0187E0E80EF11CD3
:10134000D0E0C0E0062F10E0B8010C2E02C0759569
:1013500067950A94E2F76170F70181917F010E941D
:10136000D3022196C430D10579F7C601DF91CF9120
:101370001F910F91FF90EF90DF90CF900C947D091B
:10138000CF92DF92EF92FF920F931F93CF93DF9351
:10139000EC01F62E642F8C810E94D3028D818F3F49
:1013A00019F060E00E94D3020F2D10E08F8584FFBA
:1013B00025C06E0187E0C80ED11CF12CE12CB801CC
:1013C0000E2C02C0759567950A94E2F76170F601DC
:1013D00081916F010E94D302FFEFEF1AFF0A88E0AC
:1013E000E816F10461F7CE01DF91CF911F910F91C3
:1013F000FF90EF90DF90CF900C947D09B80184E0CE
:10140000759567958A95E1F7CE010E9493096F2D36
:10141000CE01DF91CF911F910F91FF90EF90DF9060
:10142000CF900C94930940E0682F81E994E00C94EC
:10143000C00981E00E94130A8BE39FE10197F1F755
:101440000895CF93DF93823029F49091A00498609F
:101450009093A0048093A4041092A50480E4809348
:10146000A60480E18093A70480E58093A80461E04E
:10147000809195040E941004809196048F3F19F08A
:1014800061E00E94100461E0809197040E941004C2
:10149000C1E9D4E09E01215934408091A00484FD2B
:1014A0000BC084E090E021962817390744F461E0EE
:1014B0008E810E941004EECF88E090E0F4CF8BE3A1
:1014C0009DE00197F1F760E0809195040E94D302BE
:1014D00060E0809197040E94D302809196048F3F30
:1014E00019F060E00E94D3028091A00484FD34C012
:1014F00063E081E994E00E949309CBE4D6E4CE0155
:101500000197F1F763E081E994E00E949309219744
:10151000F1F763E081E994E00E94930983E592E0AA
:101520000197F1F762E081E994E00E9493098091CC
:10153000A00480620E94130A84E08093A1048CE0DE
:101540000E94130A0E94190A82E08093A20486E096
:10155000DF91CF910C94130A80620E94130A8BE4EE
:1015600096E40197F1F78091A00480620E94130A2B
:1015700083E592E00197F1F78091A00480620E94D8
:10158000130AD5CF9091A404891710F08FEF890F1B
:10159000E82FF0E0EF56FB4F848980680C94130A23
:1015A000CF93C82F81E00E94C20A65E770E0C111A5
:1015B00002C067E770E081E994E0CF910C94A2014A
:1015C00041E00E94C00981E090E00895CF93DF934D
:1015D000EC010E94190A80E00E94C20AD0933602F0
:1015E000C093350210921A021092190210925904F7
:1015F00010925A0410922C0261E08CE00E941004B8
:1016000060E08CE00E94D30283E090E090932E0291
:1016100080932D0283E193E0DF91CF910C944907F1
:10162000FB0101900020E9F73197AF01461B570BF2
:10163000DC01ED91FC910280F381E02D09948F9201
:101640009F92AF92BF92EF92FF920F931F93CF930F
:10165000DF93CDB7DEB7A1970FB6F894DEBF0FBE0C
:10166000CDBF7C01FA01CB0119A2223008F42AE097
:101670008E010F5D1F4F822E912CB12CA12CBF012A
:10168000A50194010E94DC25F901CA016A300CF51C
:10169000605DD8016E938D01232B242B252B79F7C8
:1016A00090E080E0109721F0BD01C7010E94100B6F
:1016B000A1960FB6F894DEBF0FBECDBFDF91CF91DC
:1016C0001F910F91FF90EF90BF90AF909F908F90E0
:1016D0000895695CDECFCF92DF92EF92FF920F9375
:1016E0001F93CF93DF936B01770FEE08FF08F7FE90
:1016F0001BC0EC016DE20E949B018C014427552721
:10170000BA014C195D096E097F092AE0CE010E94D9
:101710001F0B800F911FDF91CF911F910F91FF90B1
:10172000EF90DF90CF9008952AE0B701A601DF91F6
:10173000CF911F910F91FF90EF90DF90CF900C947D
:101740001F0BCF93DF93BC0189E392E00E946B0BE8
:10175000EC0160E471E089E392E00E94100B8C0FD1
:101760009D1FDF91CF910895CF93DF93BC0189E353
:1017700092E00E94100BEC0160E471E089E392E0DA
:101780000E94100B8C0F9D1FDF91CF910895CF9376
:10179000DF93BC0189E392E00E94A201EC0160E4C6
:1017A00071E089E392E00E94100B8C0F9D1FDF9186
:1017B000CF9108958F929F92AF92BF92CF92DF9276
:1017C000EF92FF9210929D0310925F0310926003BC
:1017D0001092610310926203E0918103F091820301
:1017E000C080D180E280F380C0928903D0928A03C6
:1017F000E0928B03F0928C03E0917F03F0918003E1
:1018000080819181A281B38180938D0390938E0317
:10181000A0938F03B09390038090990390909A03C4
:10182000A0909B03B0909C03A5019401C701B60151
:101830000E943D2518164CF48092890390928A03E9
:10184000A0928B03B0928C0310C08090950390906F
:101850009603A0909703B0909803A5019401C70147
:10186000B6010E94E52387FDE7CF81E080939D03C9
:1018700088E690E0FF90EF90DF90CF90BF90AF9020
:101880009F908F900C94C70B4F925F926F927F92B4
:101890008F929F92AF92BF92CF92DF92EF92FF9280
:1018A000CF93DF9300D000D0CDB7DEB760913F0477
:1018B0007091400480914104909142040E948B24D5
:1018C0004B015C0160914304709144048091450494
:1018D000909146040E948B246B017C01AC019B011A
:1018E000C501B4010E94E52318160CF06EC0C09229
:1018F0009503D0929603E0929703F092980380921A
:10190000990390929A03A0929B03B0929C038091BA
:101910009D03882309F459C080918103909182032B
:101920009A838983FC014080518062807380A30187
:101930009201C501B4010E94E52387FF27C0E98118
:10194000FA8180829182A282B382809089039090F2
:101950008A03A0908B03B0908C03C0909903D09021
:101960009A03E0909B03F0909C03A7019601C501A8
:10197000B4010E943D251816C4F4C0928903D09288
:101980008A03E0928B03F0928C031FC0A3019201A3
:10199000C701B6010E943D251816BCF6E981FA81FF
:1019A000C082D182E282F382D0CFC0909503D090E2
:1019B0009603E0909703F0909803A7019601C50164
:1019C000B4010E94E52387FDD8CF40902F045090AA
:1019D0003004609031047090320420E030E0A901BE
:1019E000C301B2010E94E52387FDB6C08090330495
:1019F00090903404A0903504B090360420E030E09C
:101A0000A901C501B4010E94E52387FDA5C0C090CE
:101A10003704D0903804E0903904F0903A0420E084
:101A200030E0A901C701B6010E94E52387FD94C0FB
:101A300081E020917D0330917E032130310509F052
:101A400080E080939E03409263035092640360920F
:101A50006503709266038092670390926803A09278
:101A60006903B0926A03C0926B03D0926C03E09258
:101A70006D03F0926E0360919103709192038091D7
:101A80009303909194030E948B2420E030E04AE776
:101A900054E40E94EA2369837A838B839C83409277
:101AA0006F035092700360927103709272039B01F6
:101AB000AC01C501B4010E9442254B015C0180923A
:101AC000730390927403A0927503B09276032981F8
:101AD0003A814B815C81C701B6010E94EA236B0108
:101AE0007C01C0927703D0927803E0927903F09260
:101AF0007A0380917B0390917C03019769F5A301A0
:101B0000920160E070E0CB010E94782360936F0344
:101B1000709370038093710390937203A5019401F5
:101B200060E070E0CB010E947823609373037093B0
:101B300074038093750390937603A701960160E088
:101B400070E0CB010E947823609377037093780351
:101B50008093790390937A03C0903B04D0903C0427
:101B60001C141D040CF04CC00D2C000CEE08FF08DA
:101B7000C701B6010E948D244B015C016091910365
:101B80007091920380919303909194030E948B240F
:101B90009B01AC01C501B4010E94EA234B015C0129
:101BA000AC019B0160917303709174038091750384
:101BB000909176030E94422560937303709374039F
:101BC0008093750390937603A50194016091770348
:101BD000709178038091790390917A030E94EA23AF
:101BE00060937703709378038093790390937A03DB
:101BF000C0929103D0929203E0929303F0929403E7
:101C00000F900F900F900F90DF91CF91FF90EF907A
:101C1000DF90CF90BF90AF909F908F907F906F900C
:101C20005F904F900C94DA0BCF93DF93AB01BC0124
:101C30002AE089E392E00E941F0BEC0160E471E06E
:101C400089E392E00E94100B8C0F9D1FDF91CF91D2
:101C500008952F923F924F925F926F927F928F9250
:101C60009F92AF92BF92CF92DF92EF92FF921F931B
:101C7000CF93DF93EC016A017B01722EAB019601D9
:101C8000CB01B6010E94AF2563E471E0811126C04B
:101C900046015701E894B7F82FEF3FEF4FE75FE7B2
:101CA000C501B4010E94AF2581110CC02FEF3FEF99
:101CB0004FE75FE7C501B4010E94E52367E471E0E7
:101CC000181664F02FEF3FEF4FE75FE4C701B6014E
:101CD0000E943D251816B4F46BE471E0CE01DF914B
:101CE000CF911F91FF90EF90DF90CF90BF90AF907A
:101CF0009F908F907F906F905F904F903F902F902C
:101D00000C94100B2FEF3FEF4FE75FECC701B601CC
:101D10000E94E52387FDE0CF20E030E0A901C70164
:101D2000B6010E94E523312C212C87FF09C06DE20A
:101D3000CE010E949B011C01F7FAF094F7F8F09491
:101D400010E060E070E080E09FE3711641F020E079
:101D500030E040E251E40E94EA231F5FF6CFA70182
:101D600096010E9479232B013C010E945C244B01C7
:101D70005C012AE0BC01A401CE010E941F0B7C0182
:101D8000E20CF31C1123C1F1C501B4010E948B24A4
:101D90009B01AC01C301B2010E9478234B015C019D
:101DA0006EE2CE010E949B01E80EF91E115020F157
:101DB00020E030E040E251E4C501B4010E94422538
:101DC0002B013C010E945C244B01B12CA12C2AE088
:101DD000B501A401CE010E941F0BE80EF91EC5013A
:101DE000B4010E948B249B01AC01C301B2010E948B
:101DF00078234B015C01DACFC701DF91CF911F91AE
:101E0000FF90EF90DF90CF90BF90AF909F908F901A
:101E10007F906F905F904F903F902F900895CF9359
:101E2000DF93AB01BC0122E089E392E00E94290E1E
:101E3000EC0160E471E089E392E00E94100B8C0FEA
:101E40009D1FDF91CF910895DF92EF92FF920F9344
:101E50001F93CF93DF93EB0189017A01E20EF31E0A
:101E60000E151F05A1F0C11584E0D80780F4F9997B
:101E7000FECFF801D1908F01CE010E946223D816C7
:101E800021F06D2DCE010E946A232196E9CFDF91CA
:101E9000CF911F910F91FF90EF90DF900895EF92F7
:101EA000FF920F931F93CF93DF938A01020F131FAB
:101EB000E9017B01E21AF30AC017D10769F0C701F3
:101EC0008C0F9D1F811524E0920730F4F999FECF05
:101ED0000E9462238993F0CFDF91CF911F910F91E0
:101EE000FF90EF9008951F920F920FB60F9211245A
:101EF0002F933F934F935F936F937F938F939F9312
:101F0000AF93BF93EF93FF9389E392E00E94440263
:101F1000FF91EF91BF91AF919F918F917F916F91C1
:101F20005F914F913F912F910F900FBE0F901F9097
:101F300018951F920F920FB60F9211242F938F9323
:101F40009F93EF93FF93E0914902F0914A028081C1
:101F5000E0914F02F091500282FD1BC09081809170
:101F600052028F5F8F7320915302821741F0E091EC
:101F70005202F0E0E75CFD4F958F80935202FF9193
:101F8000EF919F918F912F910F900FBE0F901F9007
:101F900018958081F4CF1F920F920FB60F921124E3
:101FA0002F933F938F939F93AF93BF938091090299
:101FB00090910A02A0910B02B0910C02309108029C
:101FC00023E0230F2D3758F50196A11DB11D209355
:101FD00008028093090290930A02A0930B02B09327
:101FE0000C0280910D0290910E02A0910F02B0910F
:101FF00010020196A11DB11D80930D0290930E0257
:10200000A0930F02B0931002BF91AF919F918F9157
:102010003F912F910F900FBE0F901F90189526E8BB
:10202000230F0296A11DB11DD2CF1F920F920FB6A2
:102030000F9211242F933F934F935F936F937F934E
:102040008F939F93AF93BF93EF93FF93E09108011A
:10205000F09109010995FF91EF91BF91AF919F9187
:102060008F917F916F915F914F913F912F910F9041
:102070000FBE0F901F9018951F920F920FB60F92E0
:1020800011242F933F934F935F936F937F938F937D
:102090009F93AF93BF93EF93FF93E0910601F0916D
:1020A00007010995FF91EF91BF91AF919F918F919A
:1020B0007F916F915F914F913F912F910F900FBE44
:1020C0000F901F9018954F925F926F927F928F9210
:1020D0009F92AF92BF92CF92DF92EF92FF920F93B7
:1020E0001F93CF9310923C0210923B0288EE93E034
:1020F000A0E0B0E080933D0290933E02A0933F02A7
:10210000B093400286E291E090933A0280933902C4
:1021100085EC90E0909346028093450284EC90E039
:10212000909348028093470280EC90E090934A029B
:102130008093490281EC90E090934C0280934B0293
:1021400082EC90E090934E0280934D0286EC90E0FA
:102150009093500280934F021092520210925302B9
:10216000109254021092550210929404109293040B
:1021700088E391E0909392048093910488E08093A7
:1021800095048FEF80939604C9E0C093970484E090
:102190008093980485E08093990486E080939A0464
:1021A00087E080939B0410929C0410929D041092EF
:1021B0009E0410929F041092A00481E00E94210AC4
:1021C00060E08DE00E941004E6EDF2E0E491E0931F
:1021D0008304E2ECF2E0E491F0E0EE0FFF1FE5553E
:1021E000FD4F85919491909385048093840410927F
:1021F0008E041092900410928F0410928D0410920D
:102200008C0410928B0410928A041092890410920C
:10221000880410928704109286041092820410920F
:10222000810410926D0483E894E090937604809387
:102230007504109273041092740410926C04C0938D
:102240006F04C1E0C0937004C0937104C093720422
:102250000FEF1FEF1093600400935F048AE090E09B
:10226000909362048093610449E050E06FE372E070
:1022700083E694E00E94592310935E0400935D046A
:102280008CE390E090930B0180930A011092D602A8
:102290001092D7021092D8021092D902C09037043F
:1022A000D0903804E0903904F0903A0480903304E0
:1022B00090903404A0903504B090360440902F04E0
:1022C0005090300460903104709032048FE593E0B8
:1022D000909382038093810380E191E09093800347
:1022E00080937F038CE091E0909384038093830339
:1022F00010929D03109295031092960310929703EB
:102300001092980380E090E0AFE7B3E480939903E4
:1023100090939A03A0939B03B0939C0384E690E070
:10232000A0E0B0E08093910390939203A093930375
:10233000B093940310927C0310927B0320E030E072
:10234000A901C301B2010E94E52387FD5AC020E024
:1023500030E0A901C501B4010E94E52387FD51C009
:1023600020E030E0A901C701B6010E94E52387FD06
:1023700048C081E090E090937E0380937D03C093FA
:102380009E034092630350926403609265037092CF
:1023900066038092670390926803A0926903B092EB
:1023A0006A03C0926B03D0926C03E0926D03F092CB
:1023B0006E0340926F0350927003609271037092AB
:1023C00072032DEC3CEC4CEC5DE3C501B4010E94C2
:1023D0004225609373037093740380937503909305
:1023E00076032DEC3CEC4CEC5DE3C701B6010E949A
:1023F000EA23609377037093780380937903909333
:102400007A030E9499040091910310919203209104
:10241000930330919403601B710B820B930B6093B9
:1024200085037093860380938703909388031092AB
:1024300050031092510310925203109253038CE4F4
:1024400093E00E94490710923D0310923E031092C0
:102450003F031092400389E393E00E9449071092E2
:102460002A0310922B0310922C0310922D0386E264
:1024700093E00E94490710921703109218031092DC
:10248000190310921A0383E193E00E944907109206
:10249000040310920503109206031092070380E0D4
:1024A00093E00E9449071092F1021092F2021092FA
:1024B000F3021092F4028DEE92E00E94490710920E
:1024C000DE021092DF021092E0021092E1028AED29
:1024D00092E0CF911F910F91FF90EF90DF90CF90FE
:1024E000BF90AF909F908F907F906F905F904F9034
:1024F0000C944907CF93DF93CDB7DEB76E970FB635
:10250000F894DEBF0FBECDBF789484B5826084BDE1
:1025100084B5816084BD85B5826085BD85B58160E7
:1025200085BD80916E00816080936E001092810065
:102530008091810082608093810080918100816020
:1025400080938100809180008160809380008091E1
:10255000B10084608093B1008091B000816080936D
:10256000B00080917A00846080937A0080917A0034
:10257000826080937A0080917A00816080937A00F3
:1025800080917A00806880937A001092C100E09177
:102590004902F0914A0282E08083E0914502F09185
:1025A00046021082E0914702F091480280E1808368
:1025B00010925102E0914D02F0914E0286E080832C
:1025C000E0914B02F0914C02808180618083E09128
:1025D0004B02F0914C02808188608083E0914B0235
:1025E000F0914C02808180688083E0914B02F091F1
:1025F0004C0280818F7D808382E00E94210A8FE4DB
:1026000091E00E94B40B10925C042FE933E04EEB92
:1026100050E070E060E080E091E00E944F0F809118
:102620005C04811191C0EFE9F3E08EEBDF011D92B4
:102630008A95E9F780E090E4ACE9B5E480932F0453
:1026400090933004A0933104B093320480E090E082
:10265000AAE7B4E48093330490933404A093350440
:10266000B093360488EE93E0A0E0B0E080933B04A2
:1026700090933C04A0933D04B0933E0480E797E11F
:10268000A0E0B0E080933F0490934004A093410405
:10269000B093420486E990E0A0E0B0E08093430468
:1026A00090934404A0934504B09346048FE694EEBF
:1026B000A8E1B0E080934F0490935004A09351049C
:1026C000B09352048EE694EEA8E1B0E080935304F8
:1026D00090935404A0935504B093560481E090E085
:1026E00090934804809347048BE391E090934A04CD
:1026F0008093490488E190E090934E0480934D04C8
:102700008FE090E090934C0480934B0481E08093A1
:102710005C0424E130E082E090E0A0E0B0E03583AA
:10272000248380839183A283B383399644E0EF327C
:10273000F407A9F72FE933E04EEB50E070E060E0DA
:1027400080E091E00E94240F60E08DE00E94100480
:1027500061E08CE00E94100461E08AE00E941004B5
:1027600061E08CE00E94100460E08CE00E94D302E3
:1027700061E08AE00E94D302E0917504F091760452
:102780001386158614861286118610861782168285
:10279000158214821382109273041092740411E053
:1027A000BE016F5F7F4F80917504909176040E9407
:1027B000C608882309F45FC067E0CE0101960E9435
:1027C000A90498858913ECCF809173048F5F80935F
:1027D00073048981883231F008F044C0803111F0EF
:1027E0008232F1F6809174048F5F8093740480913B
:1027F0006C04811128C080917504909176040E9428
:102800006605BE016F5F7F4F8091750490917604DD
:102810000E94470540E064EB809175049091760436
:102820000E94130580917504909176040E94C00463
:10283000082F80917504909176040E94660501111D
:1028400002C010936C048981803199F0CE01019609
:102850000E947F0690916F04981708F0A1CF809393
:102860006F049ECF8B3309F4BDCF823409F098CF2B
:10287000B9CF8CE0EFCF60E081E192E00E944609A1
:1028800080911102803109F46FC0BE016F5F7F4FEC
:1028900081E192E00E940D06882309F465C08D81D4
:1028A0008F3709F461C08FE78D8380917504909113
:1028B00076040E94660561E172E080917504909152
:1028C00076040E94470540E06EE480917504909183
:1028D00076040E94130540E06B818091750490910D
:1028E00076040E94130540E06C81809175049091FC
:1028F00076040E94130580911102803141F040E07E
:102900006D8180917504909176040E9413058091E9
:1029100075049091760420917204222319F10E948B
:102920006605882309F161E172E080917504909158
:1029300076040E94470540916C0468E48091750418
:10294000909176040E94130580916C04811130C02F
:1029500064E170E080E090E00E946604809175047C
:10296000909176040E9466058CE080936F048091BC
:1029700073048230C0F110E080917304181798F549
:1029800080916F048C3079F1612FCE0101960E9405
:1029900046098981803129F1CE0101960E947F0686
:1029A00090916F04981710F480936F041F5FE4CF29
:1029B00080916D04882329F060E080916E040E946C
:1029C000D30264E170E080E090E00E9466048091B0
:1029D0006D04882319F261E080916E040E94D30295
:1029E000BDCF8CE0DDCF109270040E949E058BE07D
:1029F00090E09093600480935F0461E00E94100473
:102A000080914704909148049C01215031092C3059
:102A1000310510F081E090E0019729E0289FB00196
:102A2000299F700D1124615C7D4F49E050E083E6E1
:102A300094E00E9459238091490490914A04909314
:102A400064048093630480914B0490914C049093B0
:102A500062048093610480913B0490913C04A091B6
:102A60003D04B0913E048093500390935103A09392
:102A70005203B09353038CE493E00E944907809182
:102A80003F0490914004A0914104B091420480938E
:102A90003D0390933E03A0933F03B093400389E32B
:102AA00093E00E94490780913F0490914004A091D7
:102AB0004104B091420480932A0390932B03A09386
:102AC0002C03B0932D0386E293E00E9449078AEF1E
:102AD00090E0A0E0B0E08093040390930503A093FE
:102AE0000603B093070380E093E00E94490788EE55
:102AF00093E0A0E0B0E08093F1029093F202A09303
:102B0000F302B093F4028DEE92E00E9449070E9416
:102B1000440C0E94190A80E00E94C20A6DEA70E02B
:102B200081E994E00E94A20160ED77E080E090E00E
:102B30000E9466040E94190AF12CE12CB0E4DB2EFD
:102B4000D0927C0080917A00806480937A0080919A
:102B50007A0086FDFCCF809178009091790001E0A9
:102B600010E08C339105C4F002E010E0883C910540
:102B70009CF003E010E0803951E095076CF004E030
:102B800010E08835A2E09A073CF005E010E08032C2
:102B9000934014F010E000E06AE070E080E090E024
:102BA0000E946604E016F10609F04EC0E114F1043B
:102BB000B9F0F701E15DFD4F808181110BC081E02B
:102BC00080836AE571E089E392E00E94100BC701FF
:102BD0000E94A10B68EC70E080E090E00E94660427
:102BE00080E00E94C20AE0905704F0905804E091FF
:102BF0003502F0913602E132F10508F03BC0ED5F9D
:102C0000F94E0C94FE252616D4178E183218EA18A1
:102C100042199819EE192D1A6A1AA71AE41A3A1BC2
:102C20003A16901BCD1B891C391CE61C291D6C1DF6
:102C30003A163A163A163A163A163A163A163A1614
:102C40003A16AD1D4B1E4B1E78017ACF84E090E002
:102C50000E94B606882309F47EC1809119029091E2
:102C60001A028130910509F458C50CF063C1892B13
:102C700009F469C18CE493E00E9437078CE493E087
:102C80000E940907882359F18CE493E00E945607BB
:102C900060E0CE010A960E94460981110C94541EF0
:102CA000C12CD12CFEEFEF2EF2ECFF2EC0920201D0
:102CB000D0920301E0920401F09205010E949E056A
:102CC00020E030E04EEF52ECC701B6010E94E52350
:102CD00081110C94A21E8CE591E00E94B40B8091AE
:102CE000350290913602809709F07EC080913102C2
:102CF00010923102882311F40C94AC1E81E00E94E2
:102D0000AC0680E093E00E94370780E093E00E94E9
:102D100009078823B1F180E093E00E94560780E024
:102D20000E94C20A6BE372E081E994E00E94A20172
:102D300080915A0469E372E0811102C067E372E096
:102D400081E994E00E94A20162E372E081E994E0EB
:102D50000E94A20120E030E04EEF52EC60910201AF
:102D60007091030180910401909105010E94E52377
:102D700081110C94B71E6FE272E081E994E00E9429
:102D8000A2018DEE92E00E9437078DEE92E00E9444
:102D90000907882349F18DEE92E00E94560768E208
:102DA00072E089E392E00E94A20180915A0466E2F7
:102DB00072E0811102C064E272E089E392E00E9455
:102DC000A2016FE172E089E392E00E94A2014091CA
:102DD000100150911101609112017091130122E0D4
:102DE00089E392E00E94290E80915904882311F40E
:102DF0000C94392280912D0290912E020397B1F507
:102E0000809157049091580429E0289FF001299F50
:102E1000F00D1124E156FC4F382F292F80319105F8
:102E20000CF0B4C74681019639964423A9F3309338
:102E300057042093580468E172E089E392E00E940D
:102E4000A20180915704909158040E94A10B809197
:102E5000570490915804409709F09DC71092580468
:102E60001092570490E080E00E94E60A80912D02C3
:102E700090912E02892B09F09EC700915704109162
:102E8000580489E0809FF001819FF00D1124E156E4
:102E9000FC4F64817581072E000C880B990B0E94F2
:102EA0008D24209110013091110140911201509117
:102EB00013010E9478236B017C0120E030E0A9011E
:102EC0000E943D2518160CF06BC72AE939E949E93B
:102ED0005EE3C701B6010E94E52387FF6CC781E06E
:102EE00090E090932E0280932D0289E0809FF00164
:102EF000819FF00D1124E156FC4F208131814281E8
:102F00005381A0E6BAEE0E940426609317037093E3
:102F100018038093190390931A0383E193E00E94AE
:102F2000490783E193E00E9437078DE092E00E9419
:102F3000C70B41C78230910559F0039709F09ACE2B
:102F400081E090E002C08EE190E00E94E60A92CE1D
:102F500080E290E0FACF64E971E081E994E00E94B8
:102F6000A20181E00E94C20A8091190290911A0286
:102F70008130910599F054F46FE871E0892B09F0E4
:102F800079CE81E994E00E94A20174CE823091054D
:102F900041F060E871E00397A1F36CCE6AE871E05C
:102FA000F0CF65E871E0EDCF6AE771E081E994E088
:102FB0000E94A20181E00E94C20A40912F04509118
:102FC0003004609131047091320422E081E994E090
:102FD0000E94290E80913102109231028823B9F0AB
:102FE00020E030E048EC52E460912F04709130040E
:102FF00080913104909132040E94792360932F04D0
:1030000070933004809331049093320433CE8091D6
:10301000320210923202882379F020E030E048EC4E
:1030200052E460912F0470913004809131049091AA
:1030300032040E947823E2CF80913302109233024F
:10304000882309F417CE83E090E00E94E60A60919D
:103050002F047091300480913104909132040E94C9
:103060000F0F08CE64E771E081E994E00E94A201AD
:1030700081E00E94C20A409133045091340460916F
:1030800035047091360422E081E994E00E94290E13
:1030900080913102109231028823B9F020E030E0B3
:1030A00048EC52E46091330470913404809135040B
:1030B000909136040E947923609333047093340412
:1030C0008093350490933604D5CD809132021092CE
:1030D0003202882379F020E030E048EC52E460913D
:1030E00033047091340480913504909136040E9429
:1030F0007823E2CF8091330210923302882309F4BF
:10310000B9CD82E090E00E94E60A609133047091AC
:1031100034048091350490913604A1CF6EE671E0BD
:1031200081E994E00E94A20181E00E94C20A4091DC
:103130003704509138046091390470913A0422E0C8
:1031400081E994E00E94290E8091310210923102AF
:103150008823B9F020E030E048EC52E46091370475
:10316000709138048091390490913A040E94792337
:1031700060933704709338048093390490933A0431
:1031800079CD8091320210923202882379F020E0CA
:1031900030E048EC52E4609137047091380480913B
:1031A000390490913A040E947823E2CF809133024F
:1031B00010923302882309F45DCD84E090E00E94F0
:1031C000E60A609137047091380480913904909137
:1031D0003A0445CF65E671E081E994E00E94A201DE
:1031E00081E00E94C20A40913B0450913C046091EE
:1031F0003D0470913E042AE081E994E00E941F0B97
:1032000080913102109231028823A1F080913B0419
:1032100090913C04A0913D04B0913E040196A11D03
:10322000B11D80933B0490933C04A0933D04B09364
:103230003E0420CD8091320210923202882361F048
:1032400080913B0490913C04A0913D04B0913E04D8
:103250000197A109B109E5CF8091330210923302A1
:10326000882309F407CD85E090E00E94E60A60918A
:103270003B0470913C0480913D0490913E040E9477
:10328000140EF8CC6EE571E081E994E00E94A20191
:1032900081E00E94C20A40913F0450914004609135
:1032A0004104709142042AE081E994E00E941F0BDE
:1032B00080913102109231028823A1F080913F0465
:1032C00090914004A0914104B09142040196A11D47
:1032D000B11D80933F0490934004A0934104B093A8
:1032E0004204C8CC8091320210923202882361F0ED
:1032F00080913F0490914004A0914104B091420418
:103300000197A109B109E5CF8091330210923302F0
:10331000882309F4AFCC86E090E00E94E60A609131
:103320003F04709140048091410490914204A7CFE2
:1033300064E571E081E994E00E94A20181E00E94CD
:10334000C20A409143045091440460914504709135
:1033500046042AE081E994E00E941F0B809131022B
:10336000109231028823A1F080914304909144048B
:10337000A0914504B09146040196A11DB11D809312
:10338000430490934404A0934504B093460472CC44
:103390008091320210923202882361F080914304BE
:1033A00090914404A0914504B09146040197A1096D
:1033B000B109E5CF8091330210923302882309F4DA
:1033C00059CC87E090E00E94E60A60914304709136
:1033D0004404809145049091460451CF6DE471E01E
:1033E00081E994E00E94A20181E00E94C20A6091FA
:1033F00047047091480481E994E00E946B0B80912E
:10340000310210923102882351F08091470490914B
:103410004804019690934804809347042BCC8091F4
:10342000320210923202882331F080914704909149
:1034300048040197EFCF8091330210923302882322
:1034400009F418CC88E090E00E94E60A80914704D5
:10345000909148040E94A10B0DCC68E471E081E9D1
:1034600094E00E94A20181E00E94C20A6091490496
:1034700070914A0481E994E00E946B0B80913102C3
:1034800010923102882351F08091490490914A04AE
:10349000019690934A0480934904ECCB80913202C8
:1034A00010923202882331F08091490490914A04AD
:1034B0000197EFCF8091330210923302882309F4F1
:1034C000D9CB89E090E00E94E60A8091490490916E
:1034D0004A04C0CF62E471E081E994E00E94A20155
:1034E00081E00E94C20A60914B0470914C0481E912
:1034F00094E00E946B0B809131021092310288237C
:1035000051F080914B0490914C04019690934C049F
:1035100080934B04AFCB8091320210923202882309
:1035200031F080914B0490914C040197EFCF809142
:10353000330210923302882309F49CCB8AE090E096
:103540000E94E60A80914B0490914C0483CF6BE378
:1035500071E081E994E00E94A20181E00E94C20A28
:1035600060914D0470914E0481E994E00E946B0BD0
:103570008091310210923102882351F080914D04E4
:1035800090914E04019690934E0480934D0472CB1B
:103590008091320210923202882331F080914D04E2
:1035A00090914E040197EFCF809133021092330235
:1035B000882309F45FCB80914D0490914E040E94C2
:1035C000A10B8BE090E0C1CC66E371E081E994E06F
:1035D0000E94A20181E00E94C20A40914F045091D2
:1035E000500460915104709152042AE081E994E002
:1035F0000E941F0B80913102109231028823A1F0AA
:1036000080914F0490915004A0915104B0915204C4
:103610000196A11DB11D80934F0490935004A09377
:103620005104B093520426CB8091320210923202A0
:10363000882361F080914F0490915004A09151042F
:10364000B09152040197A109B109E5CF80913302ED
:1036500010923302882309F40DCB60914F047091CE
:10366000500480915104909152040E94140E8CE0F9
:1036700090E06BCC60E371E081E994E00E94A201EC
:1036800081E00E94C20A4091530450915404609119
:103690005504709156042AE081E994E00E941F0BC2
:1036A00080913102109231028823A1F0809153045D
:1036B00090915404A0915504B09156040196A11D17
:1036C000B11D8093530490935404A0935504B09378
:1036D0005604D0CA8091320210923202882361F0DF
:1036E0008091530490915404A0915504B0915604D4
:1036F0000197A109B109E5CF8091330210923302FD
:10370000882309F4B7CA60915304709154048091DE
:103710005504909156040E94140E8EE090E015CC52
:1037200082E090E00E94B6068823F9F080911902A9
:1037300090911A020097B1F0019709F09BCA2FE906
:1037400033E04EEB50E070E060E080E091E00E94FA
:10375000240F0E94440C88E291E00E94C70B90E085
:1037600080E0F3CB8FE090E0F0CB6FE171E081E996
:1037700094E00E94A20181E00E94C20A8091190295
:1037800090911A02009731F0019709F073CA65E130
:1037900071E0F7CB6AE171E0F4CB6EE071E081E9B2
:1037A00094E00E94A20181E00E94C20A6091570445
:1037B0007091580481E994E00E946B0B8091310272
:1037C00010923102882309F1C0905704D090580418
:1037D000EFEFCE1ADE0A0D2C000CEE08FF0881E098
:1037E0000E94C20A6CEB70E081E994E00E94A201A1
:1037F000F0E1CF16D104E104F1043CF5F7FC02C27C
:10380000D0925804C092570435CA80913202109267
:1038100032028823F1F0C0905704D090580421E080
:10382000C21AD1080D2C000CEE08FF0881E00E949E
:10383000C20A6CEB70E081E994E00E94A20130E1E1
:10384000C316D104E104F104CCF2C12CD12C7601D1
:10385000D7CF8091330210923302882309F40ACA29
:1038600080915704909158040E94A10B81E190E04F
:103870006CCB65E071E081E994E00E94A20181E0F7
:103880000E94C20A89E08E9D80018F9D100D112437
:1038900001561C4FD80114966D917C9181E994E0FA
:1038A0000E946B0B80913102109231028823A9F0A3
:1038B000F801E480F580FFEFEF1AFF0A81E00E9433
:1038C000C20A6CEB70E081E994E00E94A201D80189
:1038D0001596FC92EE921497CDC980913202109207
:1038E0003202882339F0F801E480F580F1E0EF1A24
:1038F000F108E4CF8091330210923302882309F457
:10390000B9C9F801848195810E94A10B80E190E002
:103910001CCB6BEF70E081E994E00E94A20181E092
:103920000E94C20A89E08E9D80018F9D100D112496
:1039300001561C4FD8014D915D916D917C912AE00B
:1039400081E994E00E941F0B8091310210923102B4
:103950008823D1F0F801C080D180E280F380FFEFAE
:10396000CF1ADF0AEF0AFF0A81E00E94C20A6CEB5D
:1039700070E081E994E00E94A201D801CD92DD922D
:10398000ED92FC92139776C9809132021092320226
:10399000882359F0F801C080D180E280F380F1E003
:1039A000CF1AD108E108F108DFCF809133021092DD
:1039B0003302882309F45EC9F80160817181828134
:1039C00093810E94140E82E190E0BFCA62EF70E022
:1039D00081E994E00E94A20189E08E9D80018F9D83
:1039E000100D112401561C4FD80116968C910E947F
:1039F000D00A8091310210923102882331F0F8010F
:103A0000868191E08927868335C9809132021092A0
:103A10003202882349F0D80116968C91169791E0CE
:103A2000892716968C9326C980913302109233020F
:103A3000882309F41FC9F8018681882339F08FEEA5
:103A400090E00E94C70B83E190E07FCA8CEE90E08B
:103A5000F8CF63EE70E081E994E00E94A20189E072
:103A60008E9D80018F9D100D112401561C4FD80191
:103A700017968C910E94D00A8091310210923102E7
:103A8000882331F0F801878191E089278783F2C884
:103A90008091320210923202882349F0D8011796A1
:103AA0008C91179791E0892717968C93E3C88091A2
:103AB000330210923302882309F4DCC8F8018781AD
:103AC000882339F080EE90E00E94C70B84E190E0FB
:103AD0003CCA8DED90E0F8CF64ED70E081E994E0B0
:103AE0000E94A20189E08E9D80018F9D100D1124FE
:103AF00001561C4FD80118968C910E94D00A8091D3
:103B0000310210923102882331F0F801808591E072
:103B100089278087AFC880913202109232028823B1
:103B200049F0D80118968C91189791E0892718963A
:103B30008C93A0C88091330210923302882309F439
:103B400099C8F8018085882329F081ED90E00E94D2
:103B5000C70BE3CD8EEC90E0FACF67EC70E081E923
:103B600094E00E94A20181E00E94C20A6091570481
:103B70007091580481E994E00E946B0B80913102AE
:103B8000109231028823E1F0C0905704D09058047D
:103B9000FFEFCF1ADF0A0D2C000CEE08FF0881E0C2
:103BA0000E94C20A6CEB70E081E994E00E94A201DD
:103BB00020E1C216D104E104F1040CF41FCE45CE7D
:103BC0008091320210923202882311F1C090570482
:103BD000D090580431E0C31AD1080D2C000CEE0827
:103BE000FF0881E00E94C20A6CEB70E081E994E07A
:103BF0000E94A20140E1C416D104E104F1040CF4D6
:103C0000FDCD23CEAFE0CA2ED12CE12CF12CF8CD86
:103C10008091330210923302882309F42BC88FE17C
:103C200090E00E94E60A89E08E9D80018F9D100D34
:103C3000112401561C4FF80180819181A281B3812A
:103C40008093170390931803A0931903B0931A035A
:103C500083E193E00E944907D80114966D917C910D
:103C6000072E000C880B990B0E948D2460930C0189
:103C700070930D0180930E0190930F0181E080936A
:103C80005904E3E0F0E0F0932E02E0932D020E944D
:103C9000DA0B0C943A168091330210923302882387
:103CA00011F40C943A165BCDBE016F5F7F4FCE01CD
:103CB0000A960E940D06882311F40C9450166A810E
:103CC00070E0762F6627770F770F770F2981F8E05E
:103CD0002F9F90011124262B372B8A858031E1F408
:103CE00068856623C9F070E08F81AB01481B5109DC
:103CF000CA019695982F8827979587950E94C82581
:103D0000CB018097B90153E0660F771F5A95E1F711
:103D100060789C01260F371F213854EE350714F4C4
:103D20000C945016B901330F880B990B0E948D2407
:103D300020E030E040E05CE30E9442256B017C0122
:103D40000C945616C0921001D0921101E09212010B
:103D5000F09213010C946F1680913202109232028D
:103D6000882311F40C94811680E00C947F16409106
:103D7000100150911101609112017091130122E024
:103D800081E994E00E94290E0C94C1169093580486
:103D90008093570450C810922E0210922D0266C8CC
:103DA0002AE939E949E95EEBC701B6010E943D25E0
:103DB00018160CF494C880912D0290912E02019750
:103DC00009F051C083E193E00E940907882309F4B8
:103DD00094C081E092E00E94C70BA2E0B0E0B093F3
:103DE0002E02A0932D02809157049091580429E04F
:103DF000289FF001299FF00D1124E156FC4F80858A
:103E00008823C1F181E080932C0261E08CE00E9464
:103E10001004E5EAF1E0E491E33009F496C350F4CC
:103E2000E130E1F0E23009F48AC361E08CE00E9405
:103E3000D30219C0E73009F494C3E83009F49AC3F7
:103E4000E43099F78091800080628093800084EB59
:103E500090E090938B0080938A0005C084B58068C1
:103E600084BD84EB87BD80912D0290912E02029734
:103E700009F043C080912C02882381F080913202A6
:103E800010923202882351F010922C0261E08CE0F3
:103E90000E94100460E08CE00E94D30280915704DD
:103EA0009091580429E0289FF001299FF00D1124DA
:103EB000E156FC4F2781222309F465C3809131022A
:103EC000109231028823C9F0E3E0F0E0F0932E0273
:103ED000E0932D0210922C0261E08CE00E9410040D
:103EE00060E08CE00E94D3028091570490915804C6
:103EF0000196909358048093570480915904882325
:103F000009F4B5C080E093E00E94370780E093E0B9
:103F10000E940907882309F4AAC080E093E00E9468
:103F200056076EEF71E081E994E00E94A201609172
:103F300057047091580481E994E00E946B0B6AEF7A
:103F400071E081E994E00E94A20180915A0468EF37
:103F500071E0811102C066EF71E081E994E00E9496
:103F6000A20180912D0290912E028130910509F0DD
:103F700011C362EF71E081E994E00E94A201C09058
:103F80001703D0901803E0901903F0901A03809162
:103F90001B0390911C03A0911D03B0911E03C81A2E
:103FA000D90AEA0AFB0AC701B60128EE33E040E06D
:103FB00050E00E94DC25283731054105510540F0CD
:103FC000C701B60120E63AEE40E050E00E94DC2551
:103FD0003F932F9349E651E05F934F938CE192E03A
:103FE0009F938F930E941E266CE172E081E994E01A
:103FF0000E94100B0F900F900F900F900F900F904A
:1040000081E00E94C20A66EE71E081E994E00E94BC
:10401000A20120E030E04EEF52EC6091020170917D
:10402000030180910401909105010E94E523811113
:10403000D9C263EE71E081E994E00E94A2016EEDC5
:1040400071E081E994E00E94A2018091570490916F
:10405000580429E0289FF001299FF00D1124E15612
:10406000FC4F6481758181E994E00E946B0B8DEEB9
:1040700092E00E9437078DEE92E00E9409078823A4
:1040800009F48FC08DEE92E00E94560780912C02B9
:104090006BED71E0811102C068ED71E089E392E09F
:1040A0000E94A20160912D0270912E0289E392E09C
:1040B0000E946B0B64ED71E089E392E00E94A20123
:1040C000609157047091580489E392E00E946B0B51
:1040D00060ED71E089E392E00E94A20180915A04B0
:1040E0006EEC71E0811102C06CEC71E089E392E04A
:1040F0000E94A20167EC71E089E392E00E94A201B4
:1041000040911001509111016091120170911301C1
:1041100022E089E392E00E94290E62EC71E089E3DB
:1041200092E00E94A201809157049091580419E0F6
:10413000189FF001199FF00D1124E156FC4F648186
:10414000758189E392E00E946B0B80912D02909122
:104150002E028130910509F053C26EEB71E089E3C4
:1041600092E00E94A2016091170370911803809160
:10417000190390911A0300911B0310911C032091C5
:104180001D0330911E03601B710B820B930B28EEF5
:1041900033E040E050E00E94DC25CA01B9010E94F2
:1041A000140E89E393E00E94370789E393E00E94AD
:1041B0000907882309F45DC189E393E00E9456074B
:1041C00080919D03882309F42AC10E9499046A8B77
:1041D0007B8B8C8B9D8B8091850390918603A09126
:1041E0008703B09188034A895B896C897D89481B64
:1041F000590B6A0B7B0B8091910390919203A091D4
:104200009303B0919403481759076A077B0708F492
:1042100006C1E0917F03F09180034080518062806D
:104220007380E0918303F0918403A3019201608184
:104230007181828193810E9478236B017C0120919E
:104240008D0330918E0340918F0350919003C301F1
:10425000B2010E9478236E8B7F8B888F998F20917B
:104260007303309174034091750350917603C70135
:10427000B6010E9442252091890330918A03409122
:104280008B0350918C030E9479234B015C01809237
:10429000890390928A03A0928B03B0928C03909131
:1042A0009E039A8F91111CC020916F03309170036F
:1042B00040917103509172036E897F89888D998D29
:1042C0000E9442259B01AC01C501B4010E947823E4
:1042D0006093890370938A0380938B0390938C037C
:1042E0002091890330918A0340918B0350918C0374
:1042F0002B8F3C8F4D8F5E8F0091990330909A03E6
:1043000020909B0310919C03202F332D422D512F81
:104310006B8D7C8D8D8D9E8D0E943D2518160CF029
:104320008FC1802F932DA22DB12F8093890390935D
:104330008A03A0938B03B0938C033A8D332309F443
:104340009AC120916F033091700340917103509195
:104350007203C701B6010E9442256B017C012091C6
:104360007703309178034091790350917A036E89F5
:104370007F89888D998D0E9442259B01AC016091B7
:10438000890370918A0380918B0390918C030E9422
:104390007823A70196010E9479236B017C019B0180
:1043A000AC01602F732D822D912F0E94E52387FD94
:1043B00016C00091950330909603209097031091BA
:1043C0009803202F332D422D512FB601C7010E9493
:1043D000E52387FD04C00C2D3D2C2E2C1F2DE091D4
:1043E0008103F0918203802F932DA22DB12F808322
:1043F0009183A283B38340928D0350928E03609287
:104400008F03709290038A899B89AC89BD898093C0
:10441000850390938603A0938703B09388036091EC
:104420005F037091600380916103909162030E9429
:104430005C246093DE027093DF028093E00290932D
:10444000E1028AED92E00E9449078AED92E00E9423
:1044500037076DEA71E089E392E00E94A201609162
:104460005F037091600380916103909162030E94E9
:104470000F0F80913502909136028097F9F08AED06
:1044800092E00E9409078111FAC060914304709183
:10449000440480914504909146040E948B2420910D
:1044A0005F033091600340916103509162030E9469
:1044B000E52387FFE4C081E00E94AC0686E293E03A
:1044C0000E94370786E293E00E940907811104C029
:1044D00080911B02882319F186E293E00E9456071F
:1044E00010921B0280915A04882309F4CAC08EE6F8
:1044F00091E00E94B40B80915F049091600401965A
:1045000071F040914D0450914E0460914F047091B0
:10451000500480915104909152040E945F0380E006
:1045200090E0892B11F40C949C150E943002882392
:1045300011F40C949C150E9400000C949C1584B5F9
:10454000806284BD84EB88BD8ECC809180008068C1
:104550008093800084EB90E09093890080938800A2
:1045600082CC8091B00080688093B00084EB80930F
:10457000B30079CC8091B00080628093B00084EB6E
:104580008093B40070CC23E030E030932E0220936F
:104590002D02AECC0097E1F46EEE71E081E994E07B
:1045A0000E94A201809157049091580429E0289F0D
:1045B000F001299FF00D1124E156FC4F40815181FB
:1045C000628173812AE081E994E00E941F0B18CD7B
:1045D000029709F015CD6AEE71E081E994E00E943E
:1045E000A2010ECD40911001509111016091120174
:1045F0007091130122E081E994E00E94290E1FCD01
:104600000097B1F46AEB71E089E392E00E94A201A5
:104610008091570490915804189FF001199FF00D54
:104620001124E156FC4F6081718182819381B7CD65
:10463000029709F0B6CD86EB91E00E94C70BB1CD91
:104640008090950390909603A0909703B090980364
:10465000A50194016B8D7C8D8D8D9E8D0E94E5232F
:1046600087FF6BCE8092890390928A03A0928B037E
:10467000B0928C0362CEC12CD12C760170CE80E03A
:104680001BCF81E791E00E94B40B80915F04909171
:104690006004019609F443CF40914D0450914E04BB
:1046A0006091530470915404809155049091560484
:1046B00034CFFB01DC0102C005900D924150504007
:1046C000D8F70895F999FECF92BD81BDF89A992740
:1046D00080B50895262FF999FECF1FBA92BD81BDEE
:1046E00020BD0FB6F894FA9AF99A0FBE0196089574
:1046F0005058BB27AA270E9490230C9403250E94A0
:10470000F52438F00E94FC2420F039F49F3F19F47E
:1047100026F40C94F2240EF4E095E7FB0C94EC24C0
:10472000E92F0E94142558F3BA176207730784070C
:10473000950720F079F4A6F50C9436250EF4E09553
:104740000B2EBA2FA02D0B01B90190010C01CA014B
:10475000A0011124FF27591B99F0593F50F4503EF6
:1047600068F11A16F040A22F232F342F4427585FE8
:10477000F3CF469537952795A795F0405395C9F700
:104780007EF41F16BA0B620B730B840BBAF09150B8
:10479000A1F0FF0FBB1F661F771F881FC2F70EC057
:1047A000BA0F621F731F841F48F48795779567952A
:1047B000B795F7959E3F08F0B0CF9395880F08F016
:1047C0009927EE0F9795879508950E94C82408F4BD
:1047D00081E008950E94FE230C9403250E94FC248E
:1047E00058F00E94F52440F029F45F3F29F00C9422
:1047F000EC2451110C9437250C94F2240E941425BA
:1048000068F39923B1F3552391F3951B550BBB27FF
:10481000AA2762177307840738F09F5F5F4F220F44
:10482000331F441FAA1FA9F335D00E2E3AF0E0E83B
:1048300032D091505040E695001CCAF72BD0FE2F85
:1048400029D0660F771F881FBB1F26173707480719
:10485000AB07B0E809F0BB0B802DBF01FF279358D1
:104860005F4F3AF09E3F510578F00C94EC240C9485
:1048700037255F3FE4F3983ED4F3869577956795A7
:10488000B795F7959F5FC9F7880F911D9695879506
:1048900097F90895E1E0660F771F881FBB1F621725
:1048A00073078407BA0720F0621B730B840BBA0BE3
:1048B000EE1F88F7E09508950E941C2588F09F5709
:1048C00098F0B92F9927B751B0F0E1F0660F771F34
:1048D000881F991F1AF0BA95C9F714C0B13091F02A
:1048E0000E943625B1E008950C943625672F782F65
:1048F0008827B85F39F0B93FCCF3869577956795EF
:10490000B395D9F73EF490958095709561957F4F5A
:104910008F4F9F4F0895E89409C097FB3EF4909500
:104920008095709561957F4F8F4F9F4F9923A9F088
:10493000F92F96E9BB279395F69587957795679517
:10494000B795F111F8CFFAF4BB0F11F460FF1BC05B
:104950006F5F7F4F8F4F9F4F16C0882311F096E9EE
:1049600011C0772321F09EE8872F762F05C066239C
:1049700071F096E8862F70E060E02AF09A95660F55
:10498000771F881FDAF7880F9695879597F908950E
:10499000990F0008550FAA0BE0E8FEEF1616170650
:1049A000E807F907C0F012161306E407F50798F0B8
:1049B000621B730B840B950B39F40A2661F0232BD1
:1049C000242B252B21F408950A2609F4A140A6954D
:1049D0008FEF811D811D089597F99F6780E870E032
:1049E00060E008959FEF80EC089500240A94161665
:1049F000170618060906089500240A9412161306CD
:104A0000140605060895092E0394000C11F488235A
:104A100052F0BB0F40F4BF2B11F460FF04C06F5F76
:104A20007F4F8F4F9F4F089557FD9058440F551F4C
:104A300059F05F3F71F04795880F97FB991F61F020
:104A40009F3F79F087950895121613061406551F97
:104A5000F2CF4695F1DF08C0161617061806991F03
:104A6000F1CF86957105610508940895E894BB27F8
:104A700066277727CB0197F908950E94C82408F488
:104A80008FEF08950E9455250C9403250E94F5246C
:104A900038F00E94FC2420F0952311F00C94EC24B3
:104AA0000C94F22411240C9437250E94142570F3E1
:104AB000959FC1F3950F50E0551F629FF001729FC3
:104AC000BB27F00DB11D639FAA27F00DB11DAA1FD2
:104AD000649F6627B00DA11D661F829F2227B00D1F
:104AE000A11D621F739FB00DA11D621F839FA00DAA
:104AF000611D221F749F3327A00D611D231F849FFA
:104B0000600D211D822F762F6A2F11249F57504050
:104B10009AF0F1F088234AF0EE0FFF1FBB1F661FCB
:104B2000771F881F91505040A9F79E3F510580F094
:104B30000C94EC240C9437255F3FE4F3983ED4F3B7
:104B4000869577956795B795F795E7959F5FC1F738
:104B5000FE2B880F911D9695879597F908950E94D1
:104B6000C824880B990B0895AA1BBB1B51E107C0F1
:104B7000AA1FBB1FA617B70710F0A61BB70B881FED
:104B8000991F5A95A9F780959095BC01CD0108957C
:104B900097FB072E16F4009407D077FD09D00E94EA
:104BA000B42507FC05D03EF4909581959F4F08955C
:104BB000709561957F4F0895A1E21A2EAA1BBB1B29
:104BC000FD010DC0AA1FBB1FEE1FFF1FA217B307D9
:104BD000E407F50720F0A21BB30BE40BF50B661FEF
:104BE000771F881F991F1A9469F7609570958095B3
:104BF00090959B01AC01BD01CF010895EE0FFF1F01
:104C00000590F491E02D09940E940F26A59F900D28
:104C1000B49F900DA49F800D911D11240895A29F13
:104C2000B001B39FC001A39F700D811D1124911D80
:104C3000B29F700D811D1124911D0895AEE0B0E06A
:104C4000E4E2F6E20C94CD280D891E8986E08C837F
:104C50001A8309838FEF9FE79E838D83AE01475EA2
:104C60005F4F6F89788DCE0101960E9441262F817A
:104C70003885020F131FF80110822E96E4E00C9481
:104C8000E928ABE0B0E0E7E4F6E20C94BF287C0151
:104C90003B018A01FC0117821682838181FFC8C112
:104CA000CE0101965C01F7019381F30193FD85919B
:104CB00093FF81913F01882309F453C1853239F470
:104CC00093FD859193FF81913F01853229F4B701CE
:104CD00090E00E943128E7CF912C212C312CFFE16C
:104CE000F31538F08B3211F190F4803209F18332F0
:104CF00029F137FC3CC020ED280F2A3050F536FE54
:104D000020C08AE0989E200D1124922E06C08D327C
:104D100091F0803371F7689430F8F30193FD859139
:104D200093FF81913F018111DACF21C0689431F85E
:104D3000689432F8F2CF689433F8EFCF689434F87F
:104D4000ECCFEAE02E9E200D1124222E689435F837
:104D5000E4CF8E3229F436FC04C1689436F8DDCFF6
:104D60008C3619F4689437F8D8CF8836B1F2982F7A
:104D70009F7D95549330E0F08336A1F18337C1F1E4
:104D8000833509F063C02801F2E04F0E511CF80191
:104D9000C080D180692D70E036FC02C06FEF7FEFDC
:104DA000C6010E941B284C01689437F882010AC092
:104DB0000C5F1F4FFFE3F98388248394912C6501D6
:104DC000E89437F833FE2DC0522C8114910471F50C
:104DD000552009F468CFB70180E290E00E943128A5
:104DE0005A94F6CFF801808189830E5F1F4FE4CF7C
:104DF0002801F2E04F0E511CF801C080D180692DCE
:104E000070E036FC02C06FEF7FEFC6010E942628DB
:104E10004C018201D5CFB70180E290E00E94312899
:104E20002A942814190409F0B0F7CECFF60137FC04
:104E3000859137FE81916F01B70190E00E94312882
:104E400051105A94F1E08F1A9108BFCF843619F0AF
:104E5000893609F077C0F80137FE6BC06081718137
:104E6000828193810C5F1F4FF32DFF763F2E97FFBA
:104E700009C090958095709561957F4F8F4F9F4F9A
:104E8000689437F82AE030E0A5010E946128C82E16
:104E9000CA188C2C432C36FE0CC0E89440F8C91478
:104EA00040F434FE05C032FC03C0F32DFE7E4F2ECD
:104EB000892C44FE95C0FE01EC0DF11D80818033EC
:104EC00009F087C0242D297E422E842D8870582E0B
:104ED00043FC95C040FE8FC09C2C821418F42C0C0F
:104EE000922C981844FE91C0B70180E390E00E9494
:104EF000312842FE09C088E790E041FE02C088E503
:104F000090E0B7010E943128C91408F48AC0CA94FD
:104F1000D12C9FEFC91AD90ACA0CDB1CF601829169
:104F20006F01B70190E00E943128AC14BD04B1F7C5
:104F30004FCF60817181072E000C880B990B0E5F9B
:104F40001F4F92CFD32CE894D4F82AE030E0853775
:104F500039F1232D297FD22E8F3601F148F488357F
:104F6000A9F0F701868197812B96E2E10C94DB286A
:104F7000803749F08837A9F7D4FE02C06894D2F888
:104F800020E130E00DC06894D4F8F6CF34FE03C0C1
:104F9000822F8660D82E20E132E002C028E030E087
:104FA000F801D7FE0FC060817181828193810C5F0F
:104FB0001F4FA5010E946128C82ECA183D2CE894F5
:104FC00037F867CF6081718190E080E00E5F1F4FFE
:104FD000F0CF42FC02C0839478CF8394839475CF42
:104FE000842D867809F471CFF6CFB70180E290E086
:104FF0000E94312883948214C0F3512C73CF522C19
:105000005818821408F46ECFF8CF842D867809F4EE
:105010007BCF8BE241FE80E247FC8DE2B70190E05E
:1050200071CFB70180E390E00E9431289A946CCF51
:105030008FEF9FEF99CFFC010590615070400110F8
:10504000D8F7809590958E0F9F1F0895FC016150B1
:10505000704001900110D8F7809590958E0F9F1F9A
:1050600008950F931F93CF93DF93182F092FEB0110
:105070008B8181FD09C01FEF0FEF812F902FDF91F2
:10508000CF911F910F91089582FF14C02E813F810F
:105090008C819D81281739073CF4E881F981CF0183
:1050A00001969983888310838E819F8101969F83C7
:1050B0008E83E3CFE885F985812F0995892BA1F3AC
:1050C000DACFFA01AA27283051F1203181F1E89492
:1050D0006F936E7F6E5F7F4F8F4F9F4FAF4FB1E0EB
:1050E0003ED0B4E03CD0670F781F891F9A1FA11DE6
:1050F000680F791F8A1F911DA11D6A0F711D811DE7
:10510000911DA11D20D009F468943F912AE0269FAB
:1051100011243019305D3193DEF6CF010895462F0A
:105120004770405D4193B3E00FD0C9F7F6CF462FEB
:105130004F70405D4A3318F0495D31FD4052419354
:1051400002D0A9F7EACFB4E0A69597958795779511
:105150006795BA95C9F700976105710508959B0198
:10516000AC010A2E06945795479537952795BA9521
:10517000C9F7620F731F841F951FA01D08952F92FA
:105180003F924F925F926F927F928F929F92AF92D7
:10519000BF92CF92DF92EF92FF920F931F93CF9324
:1051A000DF93CDB7DEB7CA1BDB0B0FB6F894DEBFBB
:1051B0000FBECDBF09942A88398848885F846E84E1
:1051C0007D848C849B84AA84B984C884DF80EE802B
:1051D000FD800C811B81AA81B981CE0FD11D0FB634
:1051E000F894DEBF0FBECDBFED010895F894FFCF58
:1051F00018010000C8419A019A013C000000C84112
:105200000000C841000000004F0F240F5E00BC00EA
:105210007701000000006602C601F301B302240218
:105220000202160200000000E00AC601A604A5045E
:105230000D0A006E616E00696E66006F7666004C46
:105240006F616456616C7565730062004449534335
:105250004F4E4E45435445440025303375004F6E44
:06526000004F666600002D
:00000001FF
