:100000000C945B010C9414100C94ED0F0C94830170
:100010000C9483010C9483010C9483010C94830150
:100020000C9483010C9483010C9483010C94830140
:100030000C9483010C9483010C9483010C94830130
:100040000C94A30F0C9483010C94710F0C944B0F20
:100050000C9483010C9483010C9483010C94830110
:100060000C9483010C9483015049447265730059C8
:10007000004E00005EBCE2613FDD83C29C7E20A397
:10008000FD1F41009D23BE46DB65F88C11AF32CACF
:1000900057E97400000000240027002A0000000037
:1000A00000250028002B0042726175766572656933
:1000B0006E2E6F726700202020202020202020201C
:1000C00000526173744E72004F66004F6E00416CB7
:1000D00061726D202020004F66004F6E00576169ED
:1000E0007420202020004F66004F6E004163746929
:1000F000766520200054696D655B4D696E5D005426
:10010000656D705B435D2000526173744E72004DEB
:10011000656E75005261737400526173744D656E43
:1001200075005341564556414C0053774F66660063
:1001300053774F6E00537742697473005377527050
:1001400074005377504C00537750726F74005069AD
:10015000644D696E576E640050696457537A00505D
:1001600069644F57496E74005069644B440050698C
:10017000644B49005069644B500053657420004241
:10018000726577004D656E75000000000800020181
:100190000000030407000000000000000050494474
:1001A000636F6D703A0020573A0020543A00205295
:1001B0003A002054733A002054693A00300031006C
:1001C00020483A0020533A00423A00413A00205475
:1001D000733A002D2D0054693A0020573A002054FC
:1001E0003A0020523A003000310020483A00533A99
:1001F0000054696D655265616368656400546D7093
:1002000052656163686564006E787453743A004F98
:1002100000440055005E01011F01030301008A0232
:10022000010A010202010064001E47040B090600D6
:100230007C0101060103030100F401060E01020224
:100240000100C201170101020201019600023E01F4
:1002500006060100C80003820710031000C80082D0
:100260000710071003016D01120103010103010EC4
:1002700001240101020201014001240101020201E5
:1002800001000000002300260029000404040404E7
:100290000404040202020202020303030303030133
:1002A000020408102040800102040810200102040A
:1002B000081020003B1011241FBECFEFD8E0DEBF96
:1002C000CDBF11E0A0E0B1E0E2EDFFE402C0059097
:1002D0000D92A637B107D9F724E0A6E7B1E001C037
:1002E0001D92A93AB207E1F711E0CBE5D1E004C0D5
:1002F0002197FE010E94EF24CA35D107C9F70E9459
:1003000052120C94E7270C9400000895DC01ED9143
:10031000FC910190F081E02D0994EF92FF920F93F0
:100320001F93CF93DF938C017B01D0E0C0E0F701F6
:10033000EC0FFD1F6491662361F0D801ED91FC91F3
:100340000190F081E02DC8010995892B11F02196CB
:10035000EECFCE01DF91CF911F910F91FF90EF90E3
:100360000895CF93C091330210923302CC23D9F079
:1003700063E172E089E392E00E948D0180912F0297
:100380009091300201968230910541F090933002B5
:1003900080932F02C0E08C2FCF91089510923002ED
:1003A00010922F02F7CF80913402109234028823EA
:1003B000A9F061E172E089E392E00E948D018091F1
:1003C0002F0290913002009739F481E090E09093F1
:1003D000300280932F02DFCF0197F9CFC091350211
:1003E00010923502CC23B1F26FE072E089E392E023
:1003F0000E948D01D0CFAF92BF92CF92DF92EF9249
:10040000FF920F931F93CF93DF936C017B018B01BE
:10041000040F151FEB015E01AE18BF08C017D1070E
:1004200059F06991D601ED91FC910190F081E02D98
:10043000C6010995892B79F7C501DF91CF911F91ED
:100440000F91FF90EF90DF90CF90BF90AF90089505
:10045000FC01538D448D252F30E0842F90E0821BCA
:10046000930B541710F0CF96089501970895FC014F
:10047000918D828D981761F0A28DAE0FBF2FB11DA7
:100480005D968C91928D9F5F9F73928F90E00895FF
:100490008FEF9FEF0895FC01918D828D981731F0B9
:1004A000828DE80FF11D858D90E008958FEF9FEF0D
:1004B0000895FC01918D228D892F90E0805C9F4FE3
:1004C000821B91098F739927089589E392E00E9416
:1004D000590221E0892B09F420E0822F089580E061
:1004E00090E0892B29F00E94650281110C94000094
:1004F0000895FC01A48DA80FB92FB11DA35ABF4FB9
:100500002C91848D90E001968F739927848FA68912
:10051000B7892C93A089B1898C91837080648C9366
:10052000938D848D981306C00288F389E02D808115
:100530008F7D80830895EF92FF920F931F93CF9347
:10054000DF93EC0181E0888F9B8D8C8D98131AC00E
:10055000E889F989808185FF15C09FB7F894EE89F5
:10056000FF896083E889F989808183708064808352
:100570009FBF81E090E0DF91CF911F910F91FF909D
:10058000EF900895F62E0B8D10E00F5F1F4F0F7345
:100590001127E02E8C8D8E110CC00FB607FCFACF00
:1005A000E889F989808185FFF5CFCE010E94790223
:1005B000F1CFEB8DEC0FFD2FF11DE35AFF4FF082D1
:1005C0009FB7F8940B8FEA89FB8980818062CFCF37
:1005D000CF93DF93EC01888D8823B9F0AA89BB897A
:1005E000E889F9898C9185FD03C0808186FD0DC065
:1005F0000FB607FCF7CF8C9185FFF2CF808185FF86
:10060000EDCFCE010E947902E9CFDF91CF9108951D
:1006100090E0FC01E757FE4F2491FC01E156FD4FAD
:100620003491FC01E557FD4FE491EE23C9F02223FC
:1006300039F0233001F1A8F4213019F1223029F1E9
:10064000F0E0EE0FFF1FE356FF4FA591B4918FB777
:10065000F894EC91611126C030953E233C938FBFF6
:1006600008952730A9F02830C9F0243049F7809147
:1006700080008F7D03C0809180008F778093800001
:10068000DFCF84B58F7784BDDBCF84B58F7DFBCF83
:100690008091B0008F778093B000D2CF8091B0006E
:1006A0008F7DF9CF3E2BDACF1F93CF93DF93182F97
:1006B000D92F80916B0460E0C1E0811102C061E03C
:1006C000C0E080915F040E94080320916304309190
:1006D0006404129FC001139F900D11248230910574
:1006E00038F0880F991F880F991F05970197F1F728
:1006F0006C2F80915F040E94080320916304309165
:100700006404D29FC001D39F900D112482309105C3
:1007100038F0880F991F880F991F05970197F1F7F7
:10072000DF91CF911F9108954F925F926F927F92C8
:100730008F929F92AF92BF92CF92DF92EF92FF92F1
:100740000F931F93CF93DF932B013C016A01C0915C
:100750005D04D0915E04CF3FDC07A9F0C23068F49D
:10076000FE01FF27C130D1F1E898EE0FFF1FEA5FCD
:10077000FE4F85E891E0918380838FEF9FEF909308
:100780005E0480935D04F12CE12C812C912C5401AA
:1007900083948091610490916204E816F9067CF5D7
:1007A00086010150110917FD20C0D501C401002E9A
:1007B00004C0880F991FAA1FBB1F0A94D2F7842177
:1007C0009521A621B721892B8A2B8B2B49F080916B
:1007D000690490916A040E945403E3CFE998C5CF5D
:1007E0008091670490916804F6CF809165049091A0
:1007F00066040E9454038FEFE81AF80ACACF60E03B
:1008000080915F040E940803CF3FDC0729F1D09359
:100810005E04C0935D041092D6021092D70210922B
:10082000D8021092D90210923802109237028C2FFF
:10083000C23090F4DD27CC0FDD1FCA5FDE4F28E306
:1008400037E0398328838130C1F0809169008C7F43
:10085000816080936900E89ADF91CF911F910F9199
:10086000FF90EF90DF90CF90BF90AF909F908F90D0
:100870007F906F905F904F90089580916900837F83
:10088000846080936900E99AE7CFCF93DF9390E08B
:10089000FC01E156FD4F249185579D4FFC01849149
:1008A0008823D1F090E0880F991FFC01ED56FF4F8F
:1008B000A591B491FC01E356FF4FC591D49161110C
:1008C0000EC09FB7F8948C91E22FE0958E238C9305
:1008D0002881E223E8839FBFDF91CF9108958FB7EE
:1008E000F894EC91E22BEC938FBFF6CF3FB7F894DE
:1008F00080910D0290910E02A0910F02B091100212
:1009000026B5A89B05C02F3F19F00196A11DB11D6A
:100910003FBFBA2FA92F982F8827BC01CD01620FA6
:10092000711D811D911D42E0660F771F881F991F61
:100930004A95D1F708958F929F92AF92BF92CF922E
:10094000DF92EF92FF926B017C010E9476044B01D3
:100950005C01C114D104E104F104B9F00E947604F1
:10096000681979098A099B09683E734081059105D8
:1009700080F321E0C21AD108E108F10888EE880E60
:1009800083E0981EA11CB11CE4CFFF90EF90DF9094
:10099000CF90BF90AF909F908F9008952FB7F8940D
:1009A0006091090270910A0280910B0290910C02F1
:1009B0002FBF0895089590E080E00895DC0180E065
:1009C000615090F09D919827E92FEF70F0E0ED587D
:1009D000FF4F2491E92FE295EF70F0E0ED57FF4FC4
:1009E000E491822F8E27ECCF0895DC012C91119693
:1009F000ED91FC91F8948181822B81839281322F39
:100A000030959323928387E090E00197F1F78181FD
:100A10008323818383E290E00197F1F790817894BA
:100A2000EFECF0E03197F1F7922381E009F480E0F8
:100A30000895FC0190810180F281E02D292F2095FD
:100A400060FF14C0F8948281822382838181892B84
:100A50008183A3E2B0E01197F1F78281982B928312
:100A6000789487ED90E00197F1F70895F8948281EA
:100A7000822382838181892B8183AFEFB0E011973C
:100A8000F1F78281982B928378948FE090E0EBCFFE
:100A9000DF92EF92FF920F931F93CF93DF93EC01BE
:100AA000D62EE42E08E010E0FF24F39461E08D2DB3
:100AB0008F2109F460E0CE010E941905FF0C01505E
:100AC0001109A1F7E11010C0F894E981FA81918130
:100AD0008881809589238183E981FA819281888147
:100AE0008095892382837894DF91CF911F910F9114
:100AF000FF90EF90DF900895EF92FF920F931F9376
:100B0000CF93DF938C017B0140E065E50E944805AF
:100B1000E70188E0E80EF11C699140E0C8010E94FD
:100B20004805CE15DF05C1F7DF91CF911F910F91D9
:100B3000FF90EF900895FC0190810180F281E02DFB
:100B4000F8948181292F20958223818378943DE731
:100B500043E050E0315029F1DA011197F1F780813B
:100B60008923C1F3F8948281822382838181892B36
:100B700081837894ABE7B7E01197F1F7F89481811E
:100B800082238183A3E1B1E01197F1F7808198235B
:100B900081E009F080E07894E3E6F6E03197F1F740
:100BA000089580E00895CF92DF92EF92FF928091B6
:100BB0007504909176040E949B0540E06CEC809156
:100BC0007504909176040E94480540916C0464E499
:100BD00080917504909176040E944805809170047C
:100BE000882309F1E0916F0480917104882301F159
:100BF00080916C0481111CC00E94CE046B017C01A9
:100C000080917504909176040E94F504813059F02A
:100C10000E94CE046C197D098E099F096E3E7240B8
:100C20008105910568F3FF90EF90DF90CF900895D4
:100C3000E9508EEE92E0E33038F4F0E0EE0FFF1F63
:100C4000E45EFE4F808191816C01990FEE08FF08F0
:100C500080916D04882329F060E080916E040E94E9
:100C60000803C701B6010E949B0480916D0488238C
:100C7000D1F261E080916E04FF90EF90DF90CF9011
:100C80000C9408036F927F928F929F92AF92BF92C3
:100C9000CF92DF92EF92FF920F931F93CF93DF9348
:100CA0008C01EB0180917504909176040E949B0564
:100CB000882309F43FC0B8018091750490917604AF
:100CC0000E947C0540E06EEB809175049091760463
:100CD0000E9448057E016E0189E0C80ED11C8E017C
:100CE000A0907504B090760488E0882E912C712C29
:100CF00066246394C5010E94F50481117628660C70
:100D0000E1E08E1A9108B1F7F80171928F01CE16C9
:100D1000DF0631F780917504909176040E949B055F
:100D2000813041F4F70181917F01811105C0E01705
:100D3000F107C1F790E008C068E0CE010E94DE0430
:100D400091E028852813F6CF892FDF91CF911F914D
:100D50000F91FF90EF90DF90CF90BF90AF909F905A
:100D60008F907F906F900895CF93DF93CDB7DEB7CC
:100D700029970FB6F894DEBF0FBECDBFBE016F5FDF
:100D80007F4F0E944206882331F08D818F33A9F076
:100D900020F48F31A1F080E007C08F3521F08F372C
:100DA000D1F78CE001C08BE029960FB6F894DEBF36
:100DB0000FBECDBFDF91CF9108958AE0F5CF89E0D6
:100DC000F3CF0F931F93CF93DF93FC01228922234C
:100DD00031F080E0DF91CF911F910F910895EC01E8
:100DE0000E94CE04088119812A813B81DC01CB015C
:100DF000801B910BA20BB30B88879987AA87BB87AF
:100E00000C811D812E813F8180179107A207B307B6
:100E100000F3088719872A873B8781E0DBCFCF93D0
:100E2000DF93FC012089211109C0EC010E94CE044E
:100E3000688379838A839B8381E0888BDF91CF915C
:100E40000895FC0110821182128213821486158685
:100E500016861786108A118A128A0895CF93DF9317
:100E6000EC010E942107CE01DF91CF910C940F0776
:100E70002F923F924F925F926F927F928F929F92AA
:100E8000AF92BF92CF92DF92EF92FF920F931F9398
:100E9000CF93DF93CDB7DEB765970FB6F894DEBF7B
:100EA0000FBECDBF0E9476046B017C0180910402CD
:100EB000909105022601481A590A4DEC441640E16A
:100EC000540608F4E0C0809102029091030200975A
:100ED00089F020917C0130917D011201221A330AA0
:100EE000910137FE03C0319521953109283C310528
:100EF0000CF0C5C001969093030280930202029702
:100F000009F0BDC095E1692E92E0792E01E010E074
:100F100020907A0130907B013B862A8649E050E0A0
:100F2000B301CE0101960E944A228B816C81681721
:100F300008F4682F70E080917C0190917D010E94FF
:100F4000A5249B0140910A0150910B01649FC001AF
:100F5000659F900D749F900D112464E670E00E94CF
:100F6000A5248985A1E0B0E0882311F0A2E0B0E0DB
:100F70008D81829FA001839F500D11245D874C8736
:100F80008E81829F1001839F300C11243F862E8614
:100F90008F81829FA001839F500D1124598B488B14
:100FA0008885829F1001839F300C11243B8A2A8AF6
:100FB000FD01EE0FFF1FE458FE4F812C912C5401D0
:100FC0004A855B85415051095D8B4C8B8C899D898D
:100FD000A817B90708F040C0880C991CAA1CBB1CB4
:100FE00080819181AC012C843D844219530957FFC3
:100FF00003C05195419551094617570770F4428136
:1010000053812E843F844219530957FF03C05195E1
:101010004195510946175707E0F048895989841BC3
:10102000950B97FF03C091958195910986179707B6
:10103000C8F4828193812A883B888219930997FF9B
:1010400003C09195819591098617970758F4689484
:1010500080F812963496BACF4A855B8548305105A0
:1010600008F053C00F5F1F4F59E0650E711C0D3023
:10107000110509F04DCF1092030210920202109256
:101080007B0110927A0180917A0190917B018334E7
:10109000910540F010927B0110927A0110920302A8
:1010A0001092020280917A0190917B019C012F5F46
:1010B0003F4F30937B0120937A01880F991FFC01E9
:1010C000E458FE4F51824082C0920402D092050241
:1010D000E0920602F092070265960FB6F894DEBF22
:1010E0000FBECDBFDF91CF911F910F91FF90EF9079
:1010F000DF90CF90BF90AF909F908F907F906F9038
:101100005F904F903F902F9008958092D6029092DA
:10111000D702A092D802B092D9022C883D8836948A
:10112000279430923802209237023093790120932D
:10113000780110937701009376019DCFBF92CF92F3
:10114000DF92EF92FF920F931F93CF93DF93EC0107
:10115000B62EC72E8D85811105C0CE010E949B053C
:1011600081110EC01B861D861C8680E0DF91CF9109
:101170001F910F91FF90EF90DF90CF90BF90089557
:1011800040E060EFCE010E94480501E0E12CD12C47
:1011900011E0CE010E94F504F82ECE010E94F50464
:1011A00091E0F91218C0813099F51134D8F2DB863C
:1011B000D11002C081E08D878B81882399F223961C
:1011C000EB2DFC2DCF01089629912193E817F90703
:1011D000D9F781E0CBCFEE2DF0E0F8120FC08B8570
:1011E0001817A0F4DE01AE0FBF1F13968C91802359
:1011F00079F4F12C193008F41C87D12EEC0FFD1F67
:101200008381902F9095892383830AC08113F1CF26
:10121000FE01EE0DF11D8381802B8383FF24F39467
:101220006F2DCE010E9419051F5F000F11F4E3948A
:1012300001E087E08E1508F0ACCFB7CFFF920F9397
:101240001F93CF93DF938C01F62EE0917504F091FC
:1012500076041386158614861286118610861782E8
:101260001682158214821382C0E0B8018091750441
:10127000909176040E949E08D82F882329F0FC16AE
:1012800029F0CF5FFC1688F7D0E008C067E0C801FE
:101290000E94DE04F80197818913F3CF8D2FDF912F
:1012A000CF911F910F91FF900895CF93DF93EC01A1
:1012B00060E08E810E94080361E08E810E94080335
:1012C00060E08E810E9408038BE891E00197F1F7BE
:1012D000DF91CF910895CF92DF92EF92FF920F931B
:1012E0001F93CF93DF936C017C0187E0E80EF11C24
:1012F000D0E0C0E0062F10E0B8010C2E02C07595BA
:1013000067950A94E2F76170F70181917F010E946D
:1013100008032196C430D10579F7C601DF91CF913A
:101320001F910F91FF90EF90DF90CF900C94550993
:10133000CF92DF92EF92FF920F931F93CF93DF93A1
:10134000EC01F62E642F8C810E9408038D818F3F63
:1013500019F060E00E9408030F2D10E08F8584FFD4
:1013600025C06E0187E0C80ED11CF12CE12CB8011C
:101370000E2C02C0759567950A94E2F76170F6012C
:1013800081916F010E940803FFEFEF1AFF0A88E0C6
:10139000E816F10461F7CE01DF91CF911F910F9113
:1013A000FF90EF90DF90CF900C945509B80184E046
:1013B000759567958A95E1F7CE010E946B096F2DAF
:1013C000CE01DF91CF911F910F91FF90EF90DF90B1
:1013D000CF900C946B0940E0682F81E994E00C9465
:1013E000980981E00E94EB098BE39FE10197F1F7F7
:1013F0000895CF93DF93823029F49091A0049860F0
:101400009093A0048093A4041092A50480E4809398
:10141000A60480E18093A70480E58093A80461E09E
:10142000809195040E944504809196048F3F19F0A5
:1014300061E00E94450461E0809197040E944504A8
:10144000C1E9D4E09E01215934408091A00484FD7B
:101450000BC084E090E021962817390744F461E03E
:101460008E810E944504EECF88E090E0F4CF8BE3BC
:101470009DE00197F1F760E0809195040E940803D8
:1014800060E0809197040E940803809196048F3F4A
:1014900019F060E00E9408038091A00484FD34C02C
:1014A00063E081E994E00E946B09CBE4D6E4CE01CD
:1014B0000197F1F763E081E994E00E946B092197BD
:1014C000F1F763E081E994E00E946B0983E592E023
:1014D0000197F1F762E081E994E00E946B09809145
:1014E000A00480620E94EB0984E08093A1048CE058
:1014F0000E94EB090E94F10982E08093A20486E039
:10150000DF91CF910C94EB0980620E94EB098BE490
:1015100096E40197F1F78091A00480620E94EB09A4
:1015200083E592E00197F1F78091A00480620E9428
:10153000EB09D5CF9091A404891710F08FEF890F94
:10154000E82FF0E0EF56FB4F848980680C94EB099C
:10155000CF93C82F81E00E949A0A6FE670E0C11114
:1015600002C061E770E081E994E0CF910C948D01B5
:1015700041E00E94980981E090E00895CF93DF93C5
:10158000EC010E94F10980E00E949A0AD0931A02AD
:10159000C09319021092300210922F021092590437
:1015A00010925A0410922C0261E08CE00E944504D3
:1015B00060E08CE00E94080383E090E090932E02AC
:1015C00080932D0283E193E0DF91CF910C9421076A
:1015D000FB0101900020E9F73197AF01461B570B43
:1015E000DC01ED91FC910280F381E02D09948F9252
:1015F0009F92AF92BF92EF92FF920F931F93CF9360
:10160000DF93CDB7DEB7A1970FB6F894DEBF0FBE5C
:10161000CDBF7C01FA01CB0119A2223008F42AE0E7
:101620008E010F5D1F4F822E912CB12CA12CBF017A
:10163000A50194010E94CD24F901CA016A300CF57C
:10164000605DD8016E938D01232B242B252B79F718
:1016500090E080E0109721F0BD01C7010E94E80AE8
:10166000A1960FB6F894DEBF0FBECDBFDF91CF912C
:101670001F910F91FF90EF90BF90AF909F908F9030
:101680000895695CDECFCF92DF92EF92FF920F93C5
:101690001F93CF93DF936B01770FEE08FF08F7FEE0
:1016A0001BC0EC016DE20E9486018C014427552786
:1016B000BA014C195D096E097F092AE0CE010E942A
:1016C000F70A800F911FDF91CF911F910F91FF902B
:1016D000EF90DF90CF9008952AE0B701A601DF9147
:1016E000CF911F910F91FF90EF90DF90CF900C94CE
:1016F000F70ACF93DF93BC0189E392E00E94430B8A
:10170000EC0160E471E089E392E00E94E80A8C0F4A
:101710009D1FDF91CF910895CF93DF93BC0189E3A3
:1017200092E00E94E80AEC0160E471E089E392E053
:101730000E94E80A8C0F9D1FDF91CF910895CF93EF
:10174000DF93BC0189E392E00E948D01EC0160E42B
:1017500071E089E392E00E94E80A8C0F9D1FDF91FF
:10176000CF9108958F929F92AF92BF92CF92DF92C6
:10177000EF92FF9210929D0310925F03109260030C
:101780001092610310926203E0918103F091820351
:10179000C080D180E280F380C0928903D0928A0316
:1017A000E0928B03F0928C03E0917F03F091800331
:1017B00080819181A281B38180938D0390938E0368
:1017C000A0938F03B09390038090990390909A0315
:1017D000A0909B03B0909C03A5019401C701B601A2
:1017E0000E942E2418164CF48092890390928A034A
:1017F000A0928B03B0928C0310C0809095039090C0
:101800009603A0909703B0909803A5019401C70197
:10181000B6010E94D62287FDE7CF81E080939D0329
:1018200088E690E0FF90EF90DF90CF90BF90AF9070
:101830009F908F900C949F0B4F925F926F927F922C
:101840008F929F92AF92BF92CF92DF92EF92FF92D0
:10185000CF93DF9300D000D0CDB7DEB760913F04C7
:101860007091400480914104909142040E947C2335
:101870004B015C01609143047091440480914504E4
:10188000909146040E947C236B017C01AC019B017A
:10189000C501B4010E94D62218160CF06EC0C09289
:1018A0009503D0929603E0929703F092980380926A
:1018B000990390929A03A0929B03B0929C0380910B
:1018C0009D03882309F459C080918103909182037C
:1018D0009A838983FC014080518062807380A301D8
:1018E0009201C501B4010E94D62287FF27C0E98179
:1018F000FA8180829182A282B38280908903909043
:101900008A03A0908B03B0908C03C0909903D09071
:101910009A03E0909B03F0909C03A7019601C501F8
:10192000B4010E942E241816C4F4C0928903D092E8
:101930008A03E0928B03F0928C031FC0A3019201F3
:10194000C701B6010E942E241816BCF6E981FA815F
:10195000C082D182E282F382D0CFC0909503D09032
:101960009603E0909703F0909803A7019601C501B4
:10197000B4010E94D62287FDD8CF40902F0450900A
:101980003004609031047090320420E030E0A9010E
:10199000C301B2010E94D62287FDB6C080903304F5
:1019A00090903404A0903504B090360420E030E0EC
:1019B000A901C501B4010E94D62287FDA5C0C0902F
:1019C0003704D0903804E0903904F0903A0420E0D5
:1019D00030E0A901C701B6010E94D62287FD94C05C
:1019E00081E020917D0330917E032130310509F0A3
:1019F00080E080939E034092630350926403609260
:101A00006503709266038092670390926803A092C8
:101A10006903B0926A03C0926B03D0926C03E092A8
:101A20006D03F0926E036091910370919203809127
:101A30009303909194030E947C2320E030E04AE7D6
:101A400054E40E94DB2269837A838B839C834092D7
:101A50006F035092700360927103709272039B0146
:101A6000AC01C501B4010E9433244B015C0180929A
:101A7000730390927403A0927503B0927603298148
:101A80003A814B815C81C701B6010E94DB226B0168
:101A90007C01C0927703D0927803E0927903F092B0
:101AA0007A0380917B0390917C03019769F5A301F0
:101AB000920160E070E0CB010E94692260936F03A5
:101AC000709370038093710390937203A501940146
:101AD00060E070E0CB010E94692260937303709311
:101AE00074038093750390937603A701960160E0D9
:101AF00070E0CB010E9469226093770370937803B2
:101B00008093790390937A03C0903B04D0903C0477
:101B10001C141D040CF04CC00D2C000CEE08FF082A
:101B2000C701B6010E947E234B015C0160919103C5
:101B30007091920380919303909194030E947C236F
:101B40009B01AC01C501B4010E94DB224B015C0189
:101B5000AC019B01609173037091740380917503D4
:101B6000909176030E9433246093730370937403FF
:101B70008093750390937603A50194016091770398
:101B8000709178038091790390917A030E94DB220F
:101B900060937703709378038093790390937A032B
:101BA000C0929103D0929203E0929303F092940337
:101BB0000F900F900F900F90DF91CF91FF90EF90CB
:101BC000DF90CF90BF90AF909F908F907F906F905D
:101BD0005F904F900C94B20BCF93DF93AB01BC019D
:101BE0002AE089E392E00E94F70AEC0160E471E0E8
:101BF00089E392E00E94E80A8C0F9D1FDF91CF914C
:101C000008952F923F924F925F926F927F928F92A0
:101C10009F92AF92BF92CF92DF92EF92FF921F936B
:101C2000CF93DF93EC016A017B01722EAB01960129
:101C3000CB01B6010E94A02463E471E0811126C0AB
:101C400046015701E894B7F82FEF3FEF4FE75FE702
:101C5000C501B4010E94A02481110CC02FEF3FEFF9
:101C60004FE75FE7C501B4010E94D62267E471E047
:101C7000181664F02FEF3FEF4FE75FE4C701B6019E
:101C80000E942E241816B4F46BE471E0CE01DF91AB
:101C9000CF911F91FF90EF90DF90CF90BF90AF90CA
:101CA0009F908F907F906F905F904F903F902F907C
:101CB0000C94E80A2FEF3FEF4FE75FECC701B60146
:101CC0000E94D62287FDE0CF20E030E0A901C701C5
:101CD000B6010E94D622312C212C87FF09C06DE26B
:101CE000CE010E9486011C01F7FAF094F7F8F094F7
:101CF00010E060E070E080E09FE3711641F020E0CA
:101D000030E040E251E40E94DB221F5FF6CFA701E2
:101D100096010E946A222B013C010E944D234B0137
:101D20005C012AE0BC01A401CE010E94F70A7C01FB
:101D3000E20CF31C1123C1F1C501B4010E947C2304
:101D40009B01AC01C301B2010E9469224B015C01FD
:101D50006EE2CE010E948601E80EF91E115020F1BC
:101D600020E030E040E251E4C501B4010E94332498
:101D70002B013C010E944D234B01B12CA12C2AE0E8
:101D8000B501A401CE010E94F70AE80EF91EC501B3
:101D9000B4010E947C239B01AC01C301B2010E94EB
:101DA00069224B015C01DACFC701DF91CF911F910E
:101DB000FF90EF90DF90CF90BF90AF909F908F906B
:101DC0007F906F905F904F903F902F900895CF93AA
:101DD000DF93AB01BC0122E089E392E00E94010E97
:101DE000EC0160E471E089E392E00E94E80A8C0F64
:101DF0009D1FDF91CF910895DF92EF92FF920F9395
:101E00001F93CF93DF93EB0189017A01E20EF31E5A
:101E10000E151F05A1F0C11584E0D80780F4F999CB
:101E2000FECFF801D1908F01CE010E945322D81627
:101E300021F06D2DCE010E945B222196E9CFDF912A
:101E4000CF911F910F91FF90EF90DF900895EF9247
:101E5000FF920F931F93CF93DF938A01020F131FFB
:101E6000E9017B01E21AF30AC017D10769F0C70143
:101E70008C0F9D1F811524E0920730F4F999FECF55
:101E80000E9453228993F0CFDF91CF911F910F9140
:101E9000FF90EF9008951F920F920FB60F921124AA
:101EA0002F933F934F935F936F937F938F939F9362
:101EB000AF93BF93EF93FF9389E392E00E9479027F
:101EC000FF91EF91BF91AF919F918F917F916F9112
:101ED0005F914F913F912F910F900FBE0F901F90E8
:101EE00018951F920F920FB60F9211242F938F9374
:101EF0009F93EF93FF93E0914902F0914A02808112
:101F0000E0914F02F091500282FD1BC090818091C0
:101F100052028F5F8F7320915302821741F0E0913C
:101F20005202F0E0E75CFD4F958F80935202FF91E3
:101F3000EF919F918F912F910F900FBE0F901F9057
:101F400018958081F4CF1F920F920FB60F92112433
:101F50002F933F938F939F93AF93BF9380910902E9
:101F600090910A02A0910B02B0910C0230910802EC
:101F700023E0230F2D3758F50196A11DB11D2093A5
:101F800008028093090290930A02A0930B02B09377
:101F90000C0280910D0290910E02A0910F02B0915F
:101FA00010020196A11DB11D80930D0290930E02A7
:101FB000A0930F02B0931002BF91AF919F918F91A8
:101FC0003F912F910F900FBE0F901F90189526E80C
:101FD000230F0296A11DB11DD2CF1F920F920FB6F3
:101FE0000F9211242F933F934F935F936F937F939F
:101FF0008F939F93AF93BF93EF93FF93E09108016B
:10200000F09109010995FF91EF91BF91AF919F91D7
:102010008F917F916F915F914F913F912F910F9091
:102020000FBE0F901F9018951F920F920FB60F9230
:1020300011242F933F934F935F936F937F938F93CD
:102040009F93AF93BF93EF93FF93E0910601F091BD
:1020500007010995FF91EF91BF91AF919F918F91EA
:102060007F916F915F914F913F912F910F900FBE94
:102070000F901F9018954F925F926F927F928F9260
:102080009F92AF92BF92CF92DF92EF92FF920F9307
:102090001F93CF9310923C0210923B0288EE93E084
:1020A000A0E0B0E080933D0290933E02A0933F02F7
:1020B000B093400286E291E090933A028093390215
:1020C00085EC90E0909346028093450284EC90E08A
:1020D000909348028093470280EC90E090934A02EC
:1020E0008093490281EC90E090934C0280934B02E4
:1020F00082EC90E090934E0280934D0286EC90E04B
:102100009093500280934F02109252021092530209
:10211000109254021092550210929404109293045B
:1021200088E391E0909392048093910488E08093F7
:1021300095048FEF80939604C9E0C093970484E0E0
:102140008093980485E08093990486E080939A04B4
:1021500087E080939B0410929C0410929D0410923F
:102160009E0410929F041092A00481E00E94F9093D
:1021700060E08DE00E944504ECEAF2E0E491E09337
:102180008304E8E9F2E0E491F0E0EE0FFF1FEF577F
:10219000FD4F8591949190938504809384041092CF
:1021A0008E041092900410928F0410928D0410925D
:1021B0008C0410928B0410928A041092890410925D
:1021C0008804109287041092860410928204109260
:1021D000810410926D0483E894E0909376048093D8
:1021E0007504109273041092740410926C04C093DE
:1021F0006F04C1E0C0937004C0937104C093720473
:102200000FEF1FEF1093600400935F048AE090E0EB
:10221000909362048093610449E050E065E172E0CC
:1022200083E694E00E944A2210935E0400935D04CA
:102230008CE390E090930B0180930A011092D602F8
:102240001092D7021092D8021092D902C09037048F
:10225000D0903804E0903904F0903A048090330430
:1022600090903404A0903504B090360440902F0430
:102270005090300460903104709032048FE593E008
:10228000909382038093810380E191E09093800397
:1022900080937F038CE091E0909384038093830389
:1022A00010929D031092950310929603109297033B
:1022B0001092980380E090E0AFE7B3E48093990335
:1022C00090939A03A0939B03B0939C0384E690E0C1
:1022D000A0E0B0E08093910390939203A0939303C6
:1022E000B093940310927C0310927B0320E030E0C3
:1022F000A901C301B2010E94D62287FD5AC020E085
:1023000030E0A901C501B4010E94D62287FD51C069
:1023100020E030E0A901C701B6010E94D62287FD66
:1023200048C081E090E090937E0380937D03C0934A
:102330009E0340926303509264036092650370921F
:1023400066038092670390926803A0926903B0923B
:102350006A03C0926B03D0926C03E0926D03F0921B
:102360006E0340926F0350927003609271037092FB
:1023700072032DEC3CEC4CEC5DE3C501B4010E9412
:102380003324609373037093740380937503909365
:1023900076032DEC3CEC4CEC5DE3C701B6010E94EA
:1023A000DB22609377037093780380937903909393
:1023B0007A030E94CE040091910310919203209120
:1023C000930330919403601B710B820B930B60930A
:1023D00085037093860380938703909388031092FC
:1023E00050031092510310925203109253038CE445
:1023F00093E00E94210710923D0310923E03109239
:102400003F031092400389E393E00E94210710925A
:102410002A0310922B0310922C0310922D0386E2B4
:1024200093E00E9421071092170310921803109254
:10243000190310921A0383E193E00E94210710927E
:10244000040310920503109206031092070380E024
:1024500093E00E9421071092F1021092F202109272
:10246000F3021092F4028DEE92E00E942107109286
:10247000DE021092DF021092E0021092E1028AED79
:1024800092E0CF911F910F91FF90EF90DF90CF904E
:10249000BF90AF909F908F907F906F905F904F9084
:1024A0000C942107CF93DF93CDB7DEB76E970FB6AD
:1024B000F894DEBF0FBECDBF789484B5826084BD32
:1024C00084B5816084BD85B5826085BD85B5816038
:1024D00085BD80916E00816080936E0010928100B6
:1024E0008091810082608093810080918100816071
:1024F0008093810080918000816080938000809132
:10250000B10084608093B1008091B00081608093BD
:10251000B00080917A00846080937A0080917A0084
:10252000826080937A0080917A00816080937A0043
:1025300080917A00806880937A001092C100E091C7
:102540004902F0914A0282E08083E0914502F091D5
:1025500046021082E0914702F091480280E18083B8
:1025600010925102E0914D02F0914E0286E080837C
:10257000E0914B02F0914C02808180618083E09178
:102580004B02F0914C02808188608083E0914B0285
:10259000F0914C02808180688083E0914B02F09141
:1025A0004C0280818F7D808382E00E94F9098FE454
:1025B00091E00E948C0B10925C042FE933E04EEB0B
:1025C00050E070E060E080E091E00E94270F809191
:1025D0005C04811185C0EFE9F3E08EEBDF011D9211
:1025E0008A95E9F780E090E4ACE9B5E480932F04A4
:1025F00090933004A0933104B093320488EE93E0BA
:10260000A0E0B0E080933B0490933C04A0933D0491
:10261000B0933E0480E797E1A0E0B0E080933F04F0
:1026200090934004A0934104B093420486E990E063
:10263000A0E0B0E08093430490934404A093450449
:10264000B09346048FE694EEA8E1B0E080934F0487
:1026500090935004A0935104B09352048EE694EEEC
:10266000A8E1B0E08093530490935404A0935504E0
:10267000B093560481E090E090934804809347041F
:102680008BE391E090934A048093490488E190E0C1
:1026900090934E0480934D048FE090E090934C040F
:1026A00080934B0481E080935C0424E130E082E07D
:1026B00090E0A0E0B0E03583248380839183A283FF
:1026C000B383399644E0EF32F407A9F72FE933E0FA
:1026D0004EEB50E070E060E080E091E00E94FC0E84
:1026E00060E08DE00E94450461E08CE00E944504BA
:1026F00061E08AE00E94450461E08CE00E944504AC
:1027000060E08CE00E94080361E08AE00E94080318
:10271000E0917504F091760413861586148612866E
:1027200011861086178216821582148213821092E7
:1027300073041092740411E0BE016F5F7F4F8091AB
:102740007504909176040E949E08882309F45FC066
:1027500067E0CE0101960E94DE0498858913ECCFD4
:10276000809173048F5F809373048981883231F084
:1027700008F044C0803111F08232F1F68091740487
:102780008F5F8093740480916C04811128C08091C4
:102790007504909176040E949B05BE016F5F7F4F88
:1027A00080917504909176040E947C0540E064EB72
:1027B00080917504909176040E944805809175047B
:1027C000909176040E94F504082F809175049091F1
:1027D00076040E949B05011102C010936C0489814C
:1027E000803199F0CE0101960E94B40690916F0459
:1027F000981708F0A1CF80936F049ECF8B3309F414
:10280000BDCF823409F098CFB9CF8CE0EFCF60E034
:1028100081E192E00E941E0980911102803109F449
:102820006FC0BE016F5F7F4F81E192E00E94420660
:10283000882309F465C08D818F3709F461C08FE763
:102840008D8380917504909176040E949B0561E1CF
:1028500072E080917504909176040E947C0540E0BE
:102860006EE480917504909176040E94480540E0E2
:102870006B8180917504909176040E94480540E038
:102880006C8180917504909176040E944805809136
:102890001102803141F040E06D818091750490918A
:1028A00076040E94480580917504909176042091E9
:1028B0007204222319F10E949B05882309F161E12A
:1028C00072E080917504909176040E947C0540919D
:1028D0006C0468E480917504909176040E94480528
:1028E00080916C04811130C064E170E080E090E080
:1028F0000E949B0480917504909176040E949B0530
:102900008CE080936F04809173048230C0F110E0FA
:1029100080917304181798F580916F048C3079F1C9
:10292000612FCE0101960E941E098981803129F113
:10293000CE0101960E94B40690916F04981710F48E
:1029400080936F041F5FE4CF80916D04882329F08A
:1029500060E080916E040E94080364E170E080E012
:1029600090E00E949B0480916D04882319F261E03D
:1029700080916E040E940803BDCF8CE0DDCF1092E1
:1029800070040E94D3058BE090E0909360048093E4
:102990005F0461E00E9445048091470490914804DF
:1029A0009C01215031092C30310510F081E090E07C
:1029B000019729E0289FB001299F700D11246B5EBB
:1029C0007D4F49E050E083E694E00E944A228091E6
:1029D000490490914A049093640480936304809125
:1029E0004B0490914C049093620480936104809115
:1029F0003B0490913C04A0913D04B0913E0480932F
:102A0000500390935103A0935203B09353038CE46B
:102A100093E00E94210780913F0490914004A0918F
:102A20004104B091420480933D0390933E03A093F0
:102A30003F03B093400389E393E00E942107809114
:102A40003F0490914004A0914104B09142048093CE
:102A50002A0390932B03A0932C03B0932D0386E2BB
:102A600093E00E9421078AEF90E0A0E0B0E080931D
:102A7000040390930503A0930603B093070380E03B
:102A800093E00E94210788EE93E0A0E0B0E08093FD
:102A9000F1029093F202A093F302B093F4028DEE50
:102AA00092E00E9421070E941C0C0E94F10980E024
:102AB0000E949A0A67EA70E081E994E00E948D0121
:102AC00060ED77E080E090E00E949B040E94F109B5
:102AD000F12CE12CB0E4DB2ED0927C0080917A00C6
:102AE000806480937A0080917A0086FDFCCF80918B
:102AF00078009091790001E010E08C339105C4F0EA
:102B000002E010E0883C91059CF003E010E0803981
:102B100051E095076CF004E010E08835A2E09A07D8
:102B20003CF005E010E08032934014F010E000E04B
:102B30006AE070E080E090E00E949B04E016F106FD
:102B400009F04DC0E114F104B9F0F701EF5CFD4F5D
:102B5000808181110BC081E080836AE571E089E3A7
:102B600092E00E94E80AC7010E94790B68EC70E0CD
:102B700080E090E00E949B0480E00E949A0AE0902E
:102B80005704F0905804E0911902F0911A02E032D3
:102B9000F10508F035C0E153FA4E0C94EF24F1151D
:102BA0002917E31787173F189718ED18431982194B
:102BB000BF19FC19391A8F1A0016E51A201BDC1BE5
:102BC0008C1B391C7C1CBF1C00160016001600163E
:102BD00000160016001600160016001D9D1D780137
:102BE0007BCF0E94B101882309F417C180912F0285
:102BF00090913002009709F408C1019709F40AC1C5
:102C00008CE493E00E940F078CE493E00E94E106BD
:102C1000882349F18CE493E00E942E0760E0CE0106
:102C20000A960E941E09811190C7C12CD12CFEEF7B
:102C3000EF2EF2ECFF2EC0920201D0920301E0923F
:102C40000401F09205010E94D30520E030E04EEF30
:102C500052ECC701B6010E94D6228111C1C78CE592
:102C600091E00E948C0B80915904882311F40C94FC
:102C7000232180912D0290912E020397B1F580912E
:102C800057049091580429E0289FF001299FF00DE6
:102C90001124E156FC4F382F292F803191050CF07B
:102CA000A8C74681019639964423A9F33093570467
:102CB0002093580468E072E089E392E00E948D015D
:102CC00080915704909158040E94790B8091570489
:102CD00090915804409709F091C7109258041092AF
:102CE000570490E080E00E94BE0A80912D029091EE
:102CF0002E02892B09F045C0809157049091580409
:102D000029E0289F8001299F100D112401561C4F96
:102D1000D80114966D917C91072E000C880B990BAD
:102D20000E947E23209110013091110140911201E7
:102D3000509113010E94D62287FF23C0E1E0F0E00A
:102D4000F0932E02E0932D02D8012D913D914D91EB
:102D50005C91A0E6BAEE0E94F5246093170370938D
:102D600018038093190390931A0383E193E00E9460
:102D7000210783E193E00E940F078DEF91E00E940D
:102D80009F0B80912D0290912E02019709F055C75B
:102D900083E193E00E94E106882309F498C781EF5C
:102DA00091E00E949F0BE2E0F0E0F0932E02E093AE
:102DB0002D02809157049091580429E0289FF0013A
:102DC000299FF00D1124E156FC4F8085882309F4DA
:102DD0003BC781E080932C0261E08CE00E944504B7
:102DE000E5E9F1E0E491E33011F40C94902108F06E
:102DF0000AC7E13009F41CC7E23011F40C948A21AF
:102E000061E08CE00E94080318C78EE190E00E9408
:102E1000BE0AF6CE81E090E0FACF64E871E081E985
:102E200094E00E948D0181E00E949A0A80912F0215
:102E300090913002009731F0019709F0E1CE6AE7F6
:102E400071E002C06FE771E081E994E00E948D01BA
:102E5000D7CE64E771E081E994E00E948D0181E0C2
:102E60000E949A0A40912F045091300460913104DD
:102E70007091320422E081E994E00E94010E809179
:102E80003302109233028823B9F02AE037ED43E28F
:102E90005CE360912F047091300480913104909133
:102EA00032040E946A2260932F047093300480934E
:102EB000310490933204A4CE8091340210923402F3
:102EC000882379F02AE037ED43E25CE360912F0438
:102ED0007091300480913104909132040E946922F3
:102EE000E2CF8091350210923502882309F488CE12
:102EF00083E090E00E94BE0A60912F04709130043C
:102F000080913104909132040E94E70E79CE6EE6F2
:102F100071E081E994E00E948D0181E00E949A0AAB
:102F2000409133045091340460913504709136041B
:102F300022E081E994E00E94010E80913302109218
:102F400033028823B9F02AE037ED43E25CE3609175
:102F500033047091340480913504909136040E94BA
:102F60006A22609333047093340480933504909301
:102F7000360446CE8091340210923402882379F0D0
:102F80002AE037ED43E25CE360913304709134044E
:102F900080913504909136040E946922E2CF80919D
:102FA000350210923502882309F42ACE82E090E09F
:102FB0000E94BE0A609133047091340480913504FC
:102FC00090913604A1CF68E671E081E994E00E9417
:102FD0008D0181E00E949A0A409137045091380493
:102FE0006091390470913A0422E081E994E00E94F2
:102FF000010E80913302109233028823B9F02AE047
:1030000037ED43E25CE360913704709138048091BE
:10301000390490913A040E946A22609337047093B5
:1030200038048093390490933A04EACD80913402B5
:1030300010923402882379F02AE037ED43E25CE312
:1030400060913704709138048091390490913A046A
:103050000E946922E2CF80913502109235028823C6
:1030600009F4CECD84E090E00E94BE0A609137045E
:10307000709138048091390490913A0445CF6FE5FE
:1030800071E081E994E00E948D0181E00E949A0A3A
:1030900040913B0450913C0460913D0470913E048A
:1030A0002AE081E994E00E94F70A809133021092AD
:1030B00033028823A1F080913B0490913C04A091BD
:1030C0003D04B0913E040196A11DB11D80933B04C7
:1030D00090933C04A0933D04B0933E0491CD809125
:1030E000340210923402882361F080913B04909165
:1030F0003C04A0913D04B0913E040197A109B1099F
:10310000E5CF8091350210923502882309F478CDFD
:1031100085E090E00E94BE0A60913B0470913C04FF
:1031200080913D0490913E040E94EC0D69CD68E5CC
:1031300071E081E994E00E948D0181E00E949A0A89
:1031400040913F04509140046091410470914204C9
:103150002AE081E994E00E94F70A809133021092FC
:1031600033028823A1F080913F0490914004A09104
:103170004104B09142040196A11DB11D80933F040A
:1031800090934004A0934104B093420439CD8091C0
:10319000340210923402882361F080913F049091B0
:1031A0004004A0914104B09142040197A109B109E2
:1031B000E5CF8091350210923502882309F420CDA5
:1031C00086E090E00E94BE0A60913F047091400446
:1031D0008091410490914204A7CF6EE471E081E9AF
:1031E00094E00E948D0181E00E949A0A409143047C
:1031F0005091440460914504709146042AE081E9AD
:1032000094E00E94F70A80913302109233028823DF
:10321000A1F08091430490914404A0914504B091A1
:1032200046040196A11DB11D80934304909344046C
:10323000A0934504B0934604E3CC809134021092ED
:103240003402882361F08091430490914404A0915A
:103250004504B09146040197A109B109E5CF8091D9
:10326000350210923502882309F4CACC87E090E039
:103270000E94BE0A60914304709144048091450409
:103280009091460451CF67E471E081E994E00E9497
:103290008D0181E00E949A0A609147047091480470
:1032A00081E994E00E94430B809133021092330233
:1032B000882351F08091470490914804019690939F
:1032C0004804809347049CCC8091340210923402CD
:1032D000882331F080914704909148040197EFCF03
:1032E0008091350210923502882309F489CC88E058
:1032F00090E00E94BE0A80914704909148040E9489
:10330000790B7ECC62E471E081E994E00E948D014A
:1033100081E00E949A0A6091490470914A0481E90F
:1033200094E00E94430B8091330210923302882371
:1033300051F08091490490914A04019690934A0477
:10334000809349045DCC809134021092340288232A
:1033500031F08091490490914A040197EFCF809118
:10336000350210923502882309F44ACC89E090E0B6
:103370000E94BE0A8091490490914A04C0CF6CE338
:1033800071E081E994E00E948D0181E00E949A0A37
:1033900060914B0470914C0481E994E00E94430BCE
:1033A0008091330210923302882351F080914B04B4
:1033B00090914C04019690934C0480934B0420CC44
:1033C0008091340210923402882331F080914B04B2
:1033D00090914C040197EFCF809135021092350205
:1033E000882309F40DCC8AE090E00E94BE0A809107
:1033F0004B0490914C0483CF65E371E081E994E044
:103400000E948D0181E00E949A0A60914D047091A2
:103410004E0481E994E00E94430B809133021092A4
:103420003302882351F080914D0490914E0401960F
:1034300090934E0480934D04E3CB8091340210921C
:103440003402882331F080914D0490914E0401970D
:10345000EFCF8091350210923502882309F4D0CB4A
:1034600080914D0490914E040E94790B8BE090E086
:10347000CECC60E371E081E994E00E948D0181E0AF
:103480000E949A0A40914F04509150046091510457
:10349000709152042AE081E994E00E94F70A809139
:1034A0003302109233028823A1F080914F0490914F
:1034B0005004A0915104B09152040196A11DB11D78
:1034C00080934F0490935004A0935104B0935204FE
:1034D00097CB8091340210923402882361F080915E
:1034E0004F0490915004A0915104B091520401975F
:1034F000A109B109E5CF80913502109235028823E8
:1035000009F47ECB60914F04709150048091510476
:10351000909152040E94EC0D8CE090E078CC6AE22D
:1035200071E081E994E00E948D0181E00E949A0A95
:103530004091530450915404609155047091560485
:103540002AE081E994E00E94F70A80913302109208
:1035500033028823A1F08091530490915404A091E8
:103560005504B09156040196A11DB11D80935304DA
:1035700090935404A0935504B093560441CB80918A
:10358000340210923402882361F0809153049091A8
:103590005404A0915504B09156040197A109B109B2
:1035A000E5CF8091350210923502882309F428CBAB
:1035B0006091530470915404809155049091560485
:1035C0000E94EC0D8EE090E022CC0E94B101882395
:1035D000F9F080912F02909130020097B1F001979D
:1035E00009F00ECB2FE933E04EEB50E070E060E0E5
:1035F00080E091E00E94FC0E0E941C0C82E291E0AF
:103600000E949F0B90E080E002CC8FE090E0FFCB27
:1036100069E171E081E994E00E948D0181E00E94FE
:103620009A0A80912F0290913002009731F0019711
:1036300009F0E6CA6FE071E007CC64E171E004CC08
:1036400068E071E081E994E00E948D0181E00E94D0
:103650009A0A609157047091580481E994E00E949D
:10366000430B8091330210923302882309F1C090FA
:103670005704D0905804EFEFCE1ADE0A0D2C000C40
:10368000EE08FF0881E00E949A0A66EB70E081E98B
:1036900094E00E948D01F0E1CF16D104E104F10421
:1036A0003CF5F7FC02C2D0925804C0925704A8CA55
:1036B00080913402109234028823F1F0C0905704B4
:1036C000D090580421E0C21AD1080D2C000CEE084D
:1036D000FF0881E00E949A0A66EB70E081E994E0BD
:1036E0000E948D0130E1C316D104E104F104CCF253
:1036F000C12CD12C7601D7CF8091350210923502A2
:10370000882309F47DCA80915704909158040E943F
:10371000790B81E190E07BCB6FEF70E081E994E081
:103720000E948D0181E00E949A0A89E08E9D8001AD
:103730008F9D100D112401561C4FD80114966D91C8
:103740007C9181E994E00E94430B809133021092B6
:1037500033028823A9F0F801E480F580FFEFEF1A27
:10376000FF0A81E00E949A0A66EB70E081E994E02A
:103770000E948D01D8011596FC92EE92149740CAD2
:103780008091340210923402882339F0F801E480E9
:10379000F580F1E0EF1AF108E4CF80913502109244
:1037A0003502882309F42CCAF801848195810E948E
:1037B000790B80E190E02BCB65EF70E081E994E03C
:1037C0000E948D0181E00E949A0A89E08E9D80010D
:1037D0008F9D100D112401561C4FD8014D915D9104
:1037E0006D917C912AE081E994E00E94F70A809132
:1037F0003302109233028823D1F0F801C080D180C7
:10380000E280F380FFEFCF1ADF0AEF0AFF0A81E0C0
:103810000E949A0A66EB70E081E994E00E948D01B3
:10382000D801CD92DD92ED92FC921397E9C9809177
:10383000340210923402882359F0F801C080D180FC
:10384000E280F380F1E0CF1AD108E108F108DFCF80
:103850008091350210923502882309F4D1C9F8010C
:1038600060817181828193810E94EC0D82E190E000
:10387000CECA6CEE70E081E994E00E948D0189E08F
:103880008E9D80018F9D100D112401561C4FD80173
:1038900016968C910E94A80A8091330210923302EE
:1038A000882331F0F801868191E089278683A8C9B1
:1038B0008091340210923402882349F0D801169680
:1038C0008C91169791E0892716968C9399C98091CF
:1038D000350210923502882309F492C9F8018681D5
:1038E000882339F089EE90E00E949F0B83E190E0FD
:1038F0008ECA86EE90E0F8CF6DED70E081E994E03D
:103900000E948D0189E08E9D80018F9D100D1124F4
:1039100001561C4FD80117968C910E94A80A8091DD
:10392000330210923302882331F0F801878191E04D
:103930008927878365C980913402109234028823D5
:1039400049F0D80117968C91179791E0892717961F
:103950008C9356C98091350210923502882309F460
:103960004FC9F8018781882339F08AED90E00E94E1
:103970009F0B84E190E04BCA87ED90E0F8CF6EECAE
:1039800070E081E994E00E948D0189E08E9D8001C4
:103990008F9D100D112401561C4FD80118968C9143
:1039A0000E94A80A8091330210923302882331F0DA
:1039B000F801808591E08927808722C980913402AF
:1039C00010923402882349F0D80118968C911897E8
:1039D00091E0892718968C9313C980913502109233
:1039E0003502882309F40CC9F8018085882329F061
:1039F0008BEC90E00E949F0BE5CD88EC90E0FACF35
:103A000061EC70E081E994E00E948D0181E00E9408
:103A10009A0A609157047091580481E994E00E94D9
:103A2000430B80913302109233028823E1F0C0905F
:103A30005704D0905804FFEFCF1ADF0A0D2C000C6A
:103A4000EE08FF0881E00E949A0A66EB70E081E9C7
:103A500094E00E948D0120E1C216D104E104F1043A
:103A60000CF41FCE45CE809134021092340288238C
:103A700011F1C0905704D090580431E0C31AD10816
:103A80000D2C000CEE08FF0881E00E949A0A66EBFC
:103A900070E081E994E00E948D0140E1C416D104F8
:103AA000E104F1040CF4FDCD23CEAFE0CA2ED12CFD
:103AB000E12CF12CF8CD809135021092350288234B
:103AC00009F49EC88FE190E00E94BE0A89E08E9DB5
:103AD00080018F9D100D112401561C4FF80180812B
:103AE0009181A281B3818093170390931803A093CF
:103AF0001903B0931A0383E193E00E942107D801D0
:103B000014966D917C91072E000C880B990B0E94E6
:103B10007E2360930C0170930D0180930E019093AE
:103B20000F0181E080935904E3E0F0E0F0932E026E
:103B3000E0932D020E94B20B63C88091350210926F
:103B40003502882309F45CC85DCDBE016F5F7F4FED
:103B5000CE010A960E944206882309F466C86A814B
:103B600070E0762F6627770F770F770F2981F8E0BF
:103B70002F9F90011124262B372B8A858031E1F469
:103B800068856623C9F070E08F81AB01481B51093D
:103B9000CA019695982F8827979587950E94B924F2
:103BA000CB018097B90153E0660F771F5A95E1F773
:103BB00060789C01260F371F213854EE35070CF42E
:103BC00034C8B901330F880B990B0E947E2320E083
:103BD00030E040E05CE30E9433246B017C012BC8A1
:103BE000C0921001D0921101E0921201F0921301E3
:103BF0003AC890935804809357045CC810922E02E0
:103C000010922D0272C8E73009F496C3E83009F427
:103C10009CC3E43009F0F4C88091800080628093F6
:103C2000800084EB90E090938B0080938A0005C025
:103C300084B5806884BD84EB87BD80912D0290910E
:103C40002E02029709F043C080912C02882381F054
:103C50008091340210923402882351F010922C0289
:103C600061E08CE00E94450460E08CE00E94080363
:103C7000809157049091580429E0289FF001299FD2
:103C8000F00D1124E156FC4F2781222309F466C36D
:103C900080913302109233028823C9F023E030E090
:103CA00030932E0220932D0210922C0261E08CE0C2
:103CB0000E94450460E08CE00E9408038091570454
:103CC00090915804019690935804809357048091E2
:103CD0005904882309F4B5C080E093E00E940F07DF
:103CE00080E093E00E94E106882309F4AAC080E006
:103CF00093E00E942E076EEE71E081E994E00E944D
:103D00008D01609157047091580481E994E00E94FC
:103D1000430B6AEE71E081E994E00E948D0180918D
:103D20005A0468EE71E0811102C066EE71E081E92B
:103D300094E00E948D0180912D0290912E0281309D
:103D4000910509F012C362EE71E081E994E00E94EE
:103D50008D01C0901703D0901803E0901903F090E4
:103D60001A0380911B0390911C03A0911D03B09135
:103D70001E03C81AD90AEA0AFB0AC701B60128EECF
:103D800033E040E050E00E94CD2428373105410562
:103D9000510540F0C701B60120E63AEE40E050E0A0
:103DA0000E94CD243F932F9389E691E09F938F93B8
:103DB0008CE192E09F938F930E940F256CE172E05B
:103DC00081E994E00E94E80A0F900F900F900F9005
:103DD0000F900F9081E00E949A0A66ED71E081E9F0
:103DE00094E00E948D0120E030E04EEF52EC6091B3
:103DF00002017091030180910401909105010E94DC
:103E0000D6228111DAC263ED71E081E994E00E946B
:103E10008D016EEC71E081E994E00E948D0180914A
:103E200057049091580429E0289FF001299FF00D34
:103E30001124E156FC4F6481758181E994E00E9470
:103E4000430B8DEE92E00E940F078DEE92E00E94F0
:103E5000E106882309F48FC08DEE92E00E942E07C0
:103E600080912C026BEC71E0811102C068EC71E072
:103E700089E392E00E948D0160912D0270912E02E3
:103E800089E392E00E94430B64EC71E089E392E0E5
:103E90000E948D01609157047091580489E392E06B
:103EA0000E94430B60EC71E089E392E00E948D0177
:103EB00080915A046EEB71E0811102C06CEB71E0ED
:103EC00089E392E00E948D0167EB71E089E392E063
:103ED0000E948D01409110015091110160911201D9
:103EE0007091130122E089E392E00E94010E62EBDF
:103EF00071E089E392E00E948D01809157049091D6
:103F0000580419E0189FF001199FF00D1124E15693
:103F1000FC4F6481758189E392E00E94430B80919C
:103F20002D0290912E028130910509F054C26EEA63
:103F300071E089E392E00E948D0160911703709116
:103F400018038091190390911A0300911B0310919B
:103F50001C0320911D0330911E03601B710B820B0B
:103F6000930B28EE33E040E050E00E94CD24CA01DC
:103F7000B9010E94EC0D89E393E00E940F0789E3E9
:103F800093E00E94E106882309F45DC189E393E090
:103F90000E942E0780919D03882309F42AC10E9464
:103FA000CE046A8B7B8B8C8B9D8B8091850390914B
:103FB0008603A0918703B09188034A895B896C8945
:103FC0007D89481B590B6A0B7B0B80919103909163
:103FD0009203A0919303B0919403481759076A077D
:103FE0007B0708F406C1E0917F03F09180034080D5
:103FF000518062807380E0918303F0918403A30178
:10400000920160817181828193810E9469226B019A
:104010007C0120918D0330918E0340918F0350914C
:104020009003C301B2010E9469226E8B7F8B888F3F
:10403000998F2091730330917403409175035091CF
:104040007603C701B6010E94332420918903309181
:104050008A0340918B0350918C030E946A224B018A
:104060005C018092890390928A03A0928B03B092A4
:104070008C03B0919E03BA8FB1111CC020916F03C5
:104080003091700340917103509172036E897F8962
:10409000888D998D0E9433249B01AC01C501B40128
:1040A0000E9469226093890370938A0380938B0333
:1040B00090938C032091890330918A0340918B0364
:1040C00050918C032B8F3C8F4D8F5E8F0091990305
:1040D00030909A0320909B0310919C03202F332D46
:1040E000422D512F6B8D7C8D8D8D9E8D0E942E24A7
:1040F00018160CF090C1802F932DA22DB12F809314
:10410000890390938A03A0938B03B0938C033A8D19
:10411000332309F49BC120916F03309170034091C8
:10412000710350917203C701B6010E9433246B01E1
:104130007C0120917703309178034091790350916D
:104140007A036E897F89888D998D0E9433249B0123
:10415000AC016091890370918A0380918B039091E7
:104160008C030E946922A70196010E946A226B01BA
:104170007C019B01AC01602F732D822D912F0E9439
:10418000D62287FD16C000919503309096032090AB
:10419000970310919803202F332D422D512FB601F4
:1041A000C7010E94D62287FD04C00C2D3D2C2E2C69
:1041B0001F2DE0918103F0918203802F932DA22D7A
:1041C000B12F80839183A283B38340928D03509259
:1041D0008E0360928F03709290038A899B89AC89C9
:1041E000BD898093850390938603A0938703B09342
:1041F000880360915F0370916003809161039091E7
:1042000062030E944D236093DE027093DF0280936D
:10421000E0029093E1028AED92E00E9421078AED8C
:1042200092E00E940F076DE971E089E392E00E943D
:104230008D0160915F0370916003809161039091A3
:1042400062030E94E70E8AED92E00E94E10610915F
:104250005A048111FFC0609143047091440480911D
:104260004504909146040E947C2320915F03309185
:10427000600340916103509162030E94D62287FF40
:10428000E9C0111103C081E080931B0281E080939B
:104290005A0486E293E00E940F0786E293E00E94B0
:1042A000E106811104C080911B02882319F186E286
:1042B00093E00E942E0710921B0280915A048823DB
:1042C00009F4D0C08EE691E00E948C0B80915F04CF
:1042D00090916004019671F040914D0450914E040C
:1042E00060914F0470915004809151049091520458
:1042F0000E94940380E090E0892B11F40C946815DF
:104300000E946502882311F40C9468150E94000035
:104310000C94681584B5806284BD84EB88BD8DCC17
:104320008091800080688093800084EB90E090937F
:1043300089008093880081CC8091B0008068809350
:10434000B00084EB8093B30078CC8091B0008062A1
:104350008093B00084EB8093B4006FCC43E050E0D6
:1043600050932E0240932D02ADCC0097E1F46EEDF8
:1043700071E081E994E00E948D0180915704909151
:10438000580429E0289FF001299FF00D1124E156DF
:10439000FC4F40815181628173812AE081E994E080
:1043A0000E94F70A17CD029709F014CD6AED71E06B
:1043B00081E994E00E948D010DCD40911001509152
:1043C0001101609112017091130122E081E994E0E2
:1043D0000E94010E1ECD0097B1F46AEA71E089E3F4
:1043E00092E00E948D018091570490915804189F8B
:1043F000F001199FF00D1124E156FC4F608171818D
:1044000082819381B6CD029709F0B5CD86EA91E01D
:104410000E949F0BB0CD8090950390909603A09042
:104420009703B0909803A50194016B8D7C8D8D8DC1
:104430009E8D0E94D62287FF6ACE80928903909239
:104440008A03A0928B03B0928C0361CEC12CD12C35
:1044500076016FCE112319F081E080931B02109238
:104460005A0417CF81E791E00E948C0B80915F0482
:1044700090916004019609F43DCF40914D04509114
:104480004E046091530470915404809155049091AE
:1044900056042ECFFB01DC0102C005900D92415065
:1044A0005040D8F70895F999FECF92BD81BDF89A92
:1044B000992780B50895262FF999FECF1FBA92BD8E
:1044C00081BD20BD0FB6F894FA9AF99A0FBE0196F5
:1044D00008955058BB27AA270E9481220C94F423E8
:1044E0000E94E62338F00E94ED2320F039F49F3F2C
:1044F00019F426F40C94E3230EF4E095E7FB0C94F6
:10450000DD23E92F0E94052458F3BA1762077307C9
:104510008407950720F079F4A6F50C9427240EF46F
:10452000E0950B2EBA2FA02D0B01B90190010C01C3
:10453000CA01A0011124FF27591B99F0593F50F4DB
:10454000503E68F11A16F040A22F232F342F442733
:10455000585FF3CF469537952795A795F04053952B
:10456000C9F77EF41F16BA0B620B730B840BBAF0FB
:104570009150A1F0FF0FBB1F661F771F881FC2F766
:104580000EC0BA0F621F731F841F48F4879577957A
:104590006795B795F7959E3F08F0B0CF9395880F34
:1045A00008F09927EE0F9795879508950E94B923F3
:1045B00008F481E008950E94EF220C94F4230E94F5
:1045C000ED2358F00E94E62340F029F45F3F29F0E4
:1045D0000C94DD2351110C9428240C94E3230E94A5
:1045E000052468F39923B1F3552391F3951B550BDB
:1045F000BB27AA2762177307840738F09F5F5F4FB6
:10460000220F331F441FAA1FA9F335D00E2E3AF0F4
:10461000E0E832D091505040E695001CCAF72BD00C
:10462000FE2F29D0660F771F881FBB1F261737075D
:104630004807AB07B0E809F0BB0B802DBF01FF278F
:1046400093585F4F3AF09E3F510578F00C94DD236C
:104650000C9428245F3FE4F3983ED4F38695779535
:104660006795B795F7959F5FC9F7880F911D969548
:10467000879597F90895E1E0660F771F881FBB1FA4
:10468000621773078407BA0720F0621B730B840B51
:10469000BA0BEE1F88F7E09508950E940D2488F06C
:1046A0009F5798F0B92F9927B751B0F0E1F0660FF6
:1046B000771F881F991F1AF0BA95C9F714C0B13037
:1046C00091F00E942724B1E008950C942724672FCD
:1046D000782F8827B85F39F0B93FCCF38695779566
:1046E0006795B395D9F73EF490958095709561954F
:1046F0007F4F8F4F9F4F0895E89409C097FB3EF47A
:1047000090958095709561957F4F8F4F9F4F99231E
:10471000A9F0F92F96E9BB279395F695879577959C
:104720006795B795F111F8CFFAF4BB0F11F460FF5C
:104730001BC06F5F7F4F8F4F9F4F16C0882311F0B4
:1047400096E911C0772321F09EE8872F762F05C0C8
:10475000662371F096E8862F70E060E02AF09A9563
:10476000660F771F881FDAF7880F9695879597F958
:104770000895990F0008550FAA0BE0E8FEEF1616F2
:104780001706E807F907C0F012161306E407F50745
:1047900098F0621B730B840B950B39F40A2661F0B9
:1047A000232B242B252B21F408950A2609F4A1405C
:1047B000A6958FEF811D811D089597F99F6780E869
:1047C00070E060E008959FEF80EC089500240A9463
:1047D0001616170618060906089500240A941216DC
:1047E0001306140605060895092E0394000C11F40F
:1047F000882352F0BB0F40F4BF2B11F460FF04C0BC
:104800006F5F7F4F8F4F9F4F089557FD9058440F14
:10481000551F59F05F3F71F04795880F97FB991F1F
:1048200061F09F3F79F087950895121613061406DC
:10483000551FF2CF4695F1DF08C016161706180669
:10484000991FF1CF86957105610508940895E89444
:10485000BB2766277727CB0197F908950E94B923D4
:1048600008F48FEF08950E9446240C94F4230E94CC
:10487000E62338F00E94ED2320F0952311F00C94EC
:10488000DD230C94E32311240C9428240E94052496
:1048900070F3959FC1F3950F50E0551F629FF00193
:1048A000729FBB27F00DB11D639FAA27F00DB11DAC
:1048B000AA1F649F6627B00DA11D661F829F222735
:1048C000B00DA11D621F739FB00DA11D621F839FBC
:1048D000A00D611D221F749F3327A00D611D231F92
:1048E000849F600D211D822F762F6A2F11249F57E0
:1048F00050409AF0F1F088234AF0EE0FFF1FBB1FE3
:10490000661F771F881F91505040A9F79E3F5105A1
:1049100080F00C94DD230C9428245F3FE4F3983E50
:10492000D4F3869577956795B795F795E7959F5F4B
:10493000C1F7FE2B880F911D9695879597F90895DD
:104940000E94B923880B990B0895AA1BBB1B51E148
:1049500007C0AA1FBB1FA617B70710F0A61BB70BEF
:10496000881F991F5A95A9F780959095BC01CD0194
:10497000089597FB072E16F4009407D077FD09D011
:104980000E94A52407FC05D03EF4909581959F4F89
:104990000895709561957F4F0895A1E21A2EAA1B84
:1049A000BB1BFD010DC0AA1FBB1FEE1FFF1FA217DF
:1049B000B307E407F50720F0A21BB30BE40BF50BDC
:1049C000661F771F881F991F1A9469F76095709565
:1049D000809590959B01AC01BD01CF010895EE0F2C
:1049E000FF1F0590F491E02D09940E940025A59FDA
:1049F000900DB49F900DA49F800D911D11240895DA
:104A0000A29FB001B39FC001A39F700D811D11240F
:104A1000911DB29F700D811D1124911D0895AEE06E
:104A2000B0E0E5E1F5E20C94BE270D891E8986E031
:104A30008C831A8309838FEF9FE79E838D83AE015A
:104A4000475E5F4F6F89788DCE0101960E943225B7
:104A50002F813885020F131FF80110822E96E4E093
:104A60000C94DA27ABE0B0E0E8E3F5E20C94B02771
:104A70007C013B018A01FC0117821682838181FF40
:104A8000C8C1CE0101965C01F7019381F30193FD4A
:104A9000859193FF81913F01882309F453C18532A9
:104AA00039F493FD859193FF81913F01853229F47B
:104AB000B70190E00E942227E7CF912C212C312CC6
:104AC000FFE1F31538F08B3211F190F4803209F1E7
:104AD000833229F137FC3CC020ED280F2A3050F5F5
:104AE00036FE20C08AE0989E200D1124922E06C02A
:104AF0008D3291F0803371F7689430F8F30193FDB3
:104B0000859193FF81913F018111DACF21C0689493
:104B100031F8689432F8F2CF689433F8EFCF6894A4
:104B200034F8ECCFEAE02E9E200D1124222E68945A
:104B300035F8E4CF8E3229F436FC04C1689436F897
:104B4000DDCF8C3619F4689437F8D8CF8836B1F2B7
:104B5000982F9F7D95549330E0F08336A1F18337F1
:104B6000C1F1833509F063C02801F2E04F0E511CFA
:104B7000F801C080D180692D70E036FC02C06FEF73
:104B80007FEFC6010E940C274C01689437F8820120
:104B90000AC00C5F1F4FFFE3F98388248394912C94
:104BA0006501E89437F833FE2DC0522C811491042E
:104BB00071F5552009F468CFB70180E290E00E94BA
:104BC00022275A94F6CFF801808189830E5F1F4F08
:104BD000E4CF2801F2E04F0E511CF801C080D180D3
:104BE000692D70E036FC02C06FEF7FEFC6010E94B6
:104BF00017274C018201D5CFB70180E290E00E94D7
:104C000022272A942814190409F0B0F7CECFF60110
:104C100037FC859137FE81916F01B70190E00E94CA
:104C2000222751105A94F1E08F1A9108BFCF843691
:104C300019F0893609F077C0F80137FE6BC0608142
:104C40007181828193810C5F1F4FF32DFF763F2E80
:104C500097FF09C090958095709561957F4F8F4F14
:104C60009F4F689437F82AE030E0A5010E94522750
:104C7000C82ECA188C2C432C36FE0CC0E89440F881
:104C8000C91440F434FE05C032FC03C0F32DFE7E8F
:104C90004F2E892C44FE95C0FE01EC0DF11D808144
:104CA000803309F087C0242D297E422E842D887000
:104CB000582E43FC95C040FE8FC09C2C821418F4E3
:104CC0002C0C922C981844FE91C0B70180E390E020
:104CD0000E94222742FE09C088E790E041FE02C000
:104CE00088E590E0B7010E942227C91408F48AC021
:104CF000CA94D12C9FEFC91AD90ACA0CDB1CF60141
:104D000082916F01B70190E00E942227AC14BD048C
:104D1000B1F74FCF60817181072E000C880B990B82
:104D20000E5F1F4F92CFD32CE894D4F82AE030E0E6
:104D3000853739F1232D297FD22E8F3601F148F4A2
:104D40008835A9F0F701868197812B96E2E10C94D2
:104D5000CC27803749F08837A9F7D4FE02C0689481
:104D6000D2F820E130E00DC06894D4F8F6CF34FEDC
:104D700003C0822F8660D82E20E132E002C028E0F6
:104D800030E0F801D7FE0FC060817181828193818C
:104D90000C5F1F4FA5010E945227C82ECA183D2C38
:104DA000E89437F867CF6081718190E080E00E5F12
:104DB0001F4FF0CF42FC02C0839478CF839483943A
:104DC00075CF842D867809F471CFF6CFB70180E2D4
:104DD00090E00E94222783948214C0F3512C73CF59
:104DE000522C5818821408F46ECFF8CF842D867890
:104DF00009F47BCF8BE241FE80E247FC8DE2B701F4
:104E000090E071CFB70180E390E00E9422279A944E
:104E10006CCF8FEF9FEF99CFFC01059061507040F0
:104E20000110D8F7809590958E0F9F1F0895FC0173
:104E30006150704001900110D8F7809590958E0FC9
:104E40009F1F08950F931F93CF93DF93182F092F60
:104E5000EB018B8181FD09C01FEF0FEF812F902F98
:104E6000DF91CF911F910F91089582FF14C02E8181
:104E70003F818C819D81281739073CF4E881F981B5
:104E8000CF0101969983888310838E819F8101963B
:104E90009F838E83E3CFE885F985812F0995892B40
:104EA000A1F3DACFFA01AA27283051F1203181F19C
:104EB000E8946F936E7F6E5F7F4F8F4F9F4FAF4F22
:104EC000B1E03ED0B4E03CD0670F781F891F9A1F35
:104ED000A11D680F791F8A1F911DA11D6A0F711DE9
:104EE000811D911DA11D20D009F468943F912AE0F5
:104EF000269F11243019305D3193DEF6CF010895DD
:104F0000462F4770405D4193B3E00FD0C9F7F6CF0D
:104F1000462F4F70405D4A3318F0495D31FD4052D5
:104F2000419302D0A9F7EACFB4E0A695979587956B
:104F300077956795BA95C9F700976105710508954A
:104F40009B01AC010A2E06945795479537952795F6
:104F5000BA95C9F7620F731F841F951FA01D08958E
:104F60002F923F924F925F926F927F928F929F9279
:104F7000AF92BF92CF92DF92EF92FF920F931F9367
:104F8000CF93DF93CDB7DEB7CA1BDB0B0FB6F89418
:104F9000DEBF0FBECDBF09942A88398848885F8458
:104FA0006E847D848C849B84AA84B984C884DF80C9
:104FB000EE80FD800C811B81AA81B981CE0FD11DAD
:104FC0000FB6F894DEBF0FBECDBFED010895F89483
:024FD000FFCF11
:104FD20018010000C841850185013C000000C8415C
:104FE2000000C84100000000270FFC0E5E00BC005C
:104FF2007701000000009B02FB012802E80259022F
:1050020037024B0200000000B80AFB01DB04DA049D
:105012000D0A006E616E00696E66006F7666004C66
:105022006F616456616C7565730062004449534355
:105032004F4E4E45435445440025303375004F6E64
:06504200004F666600004D
:00000001FF
