:100000000C9457010C940E100C94E70F0C947F0184
:100010000C947F010C947F010C947F010C947F0160
:100020000C947F010C947F010C947F010C947F0150
:100030000C947F010C947F010C947F010C947F0140
:100040000C949D0F0C947F010C946B0F0C94450F36
:100050000C947F010C947F010C947F010C947F0120
:100060000C947F010C947F015049447265730059D0
:10007000004E00005EBCE2613FDD83C29C7E20A397
:10008000FD1F41009D23BE46DB65F88C11AF32CACF
:1000900057E97400000000240027002A0000000037
:1000A00000250028002B0042726175766572656933
:1000B0006E2E6F726700202020202020202020201C
:1000C00000526173744E72004F66004F6E00416CB7
:1000D00061726D202020004F66004F6E00576169ED
:1000E0007420202020004F66004F6E004163746929
:1000F000766520200054696D655B4D696E5D005426
:10010000656D705B435D2000526173744E72004DEB
:10011000656E75005261737400526173744D656E43
:1001200075005341564556414C0053774F66660063
:1001300053774F6E00537742697473005377527050
:1001400074005377504C00537750726F74005069AD
:10015000644D696E576E640050696457537A00505D
:1001600069644F57496E74005069644B440050698C
:10017000644B49005069644B500053657420004241
:10018000726577004D656E75000000000800020181
:100190000000030407000000000000000050494474
:1001A000636F6D703A0020573A0020543A00205295
:1001B0003A002073543A002069543A00300031006C
:1001C00020483A0020533A00423A00413A00207356
:1001D000543A002D2D0069543A0020573A0020541B
:1001E0003A0020523A003000310020483A00533A99
:1001F0000054696D655265616368656400546D7093
:1002000052656163686564004F00440055005E01FB
:10021000011F01030301008A02010A010202010019
:1002200064001E47040B0906007C0101060103035C
:100230000100F401060E0102020100C201170101D2
:10024000020201019600023E0106060100C80003F9
:10025000820710031000C800820710071003016D09
:1002600001120103010103010E0124010102020137
:1002700001400124010102020101000000002300ED
:1002800026002900040404040404040402020202F7
:100290000202030303030303010204081020408049
:1002A0000102040810200102040810203510112456
:1002B0001FBECFEFD8E0DEBFCDBF11E0A0E0B1E0C0
:1002C000ECEEFEE402C005900D92A637B107D9F717
:1002D00024E0A6E7B1E001C01D92A437B207E1F720
:1002E00011E0C7E5D1E004C02197FE010E947C2403
:1002F000C635D107C9F70E9428120C9474270C94B4
:1003000000000895DC01ED91FC910190F081E02D59
:100310000994EF92FF920F931F93CF93DF938C0179
:100320007B01D0E0C0E0F701EC0FFD1F6491662374
:1003300061F0D801ED91FC910190F081E02DC801B0
:100340000995892B11F02196EECFCE01DF91CF9147
:100350001F910F91FF90EF900895CF93C0913702B6
:1003600010923702CC23D9F06CE072E08DE392E07A
:100370000E9489018091330290913402019682306B
:10038000910541F09093340280933302C0E08C2FAA
:10039000CF9108951092340210923302F7CF8091DA
:1003A0003802109238028823A9F06AE072E08DE3E7
:1003B00092E00E948901809133029091340200976B
:1003C00039F481E090E09093340280933302DFCFE0
:1003D0000197F9CFC091390210923902CC23B1F2C2
:1003E00068E072E08DE392E00E948901D0CFAF9285
:1003F000BF92CF92DF92EF92FF920F931F93CF9312
:10040000DF936C017B018B01040F151FEB015E0173
:10041000AE18BF08C017D10759F06991D601ED9108
:10042000FC910190F081E02DC6010995892B79F7A7
:10043000C501DF91CF911F910F91FF90EF90DF9059
:10044000CF90BF90AF900895FC01538D448D252F20
:1004500030E0842F90E0821B930B541710F0CF965E
:10046000089501970895FC01918D828D981761F090
:10047000A28DAE0FBF2FB11D5D968C91928D9F5FA7
:100480009F73928F90E008958FEF9FEF0895FC0186
:10049000918D828D981731F0828DE80FF11D858D39
:1004A00090E008958FEF9FEF0895FC01918D228DCC
:1004B000892F90E0805C9F4F821B91098F73992751
:1004C00008958DE392E00E94550221E0892B09F402
:1004D00020E0822F089580E090E0892B29F00E948F
:1004E000610281110C9400000895FC01A48DA80FF5
:1004F000B92FB11DA35ABF4F2C91848D90E0019666
:100500008F739927848FA689B7892C93A089B18985
:100510008C91837080648C93938D848D981306C026
:100520000288F389E02D80818F7D80830895EF928A
:10053000FF920F931F93CF93DF93EC0181E0888F9D
:100540009B8D8C8D98131AC0E889F989808185FF6D
:1005500015C09FB7F894EE89FF896083E889F9890F
:1005600080818370806480839FBF81E090E0DF9111
:10057000CF911F910F91FF90EF900895F62E0B8D64
:1005800010E00F5F1F4F0F731127E02E8C8D8E111F
:100590000CC00FB607FCFACFE889F989808185FF86
:1005A000F5CFCE010E947502F1CFEB8DEC0FFD2F40
:1005B000F11DE35AFF4FF0829FB7F8940B8FEA8941
:1005C000FB8980818062CFCFCF93DF93EC01888D50
:1005D0008823B9F0AA89BB89E889F9898C9185FDBE
:1005E00003C0808186FD0DC00FB607FCF7CF8C914C
:1005F00085FFF2CF808185FFEDCFCE010E9475028D
:10060000E9CFDF91CF91089590E0FC01E757FE4FCD
:100610002491FC01E856FD4F3491FC01EC57FD4F4D
:10062000E491EE23C9F0222339F0233001F1A8F43C
:10063000213019F1223029F1F0E0EE0FFF1FE356CF
:10064000FF4FA591B4918FB7F894EC91611126C03A
:1006500030953E233C938FBF08952730A9F0283072
:10066000C9F0243049F7809180008F7D03C08091CC
:1006700080008F7780938000DFCF84B58F7784BD33
:10068000DBCF84B58F7DFBCF8091B0008F778093D7
:10069000B000D2CF8091B0008F7DF9CF3E2BDACF62
:1006A0001F93CF93DF93182FD92F8091360460E0EA
:1006B000C1E0811102C061E0C0E080912A040E9483
:1006C000040320912E0430912F04129FC001139F28
:1006D000900D11248230910538F0880F991F880FF2
:1006E000991F05970197F1F76C2F80912A040E94BA
:1006F000040320912E0430912F04D29FC001D39F78
:10070000900D11248230910538F0880F991F880FC1
:10071000991F05970197F1F7DF91CF911F910895E8
:100720004F925F926F927F928F929F92AF92BF9201
:10073000CF92DF92EF92FF920F931F93CF93DF93AD
:100740002B013C016A01C0912804D0912904CF3FBC
:10075000DC07A9F0C23068F4FE01FF27C130D1F1F7
:10076000E898EE0FFF1FEA5FFE4F81E891E091836A
:1007700080838FEF9FEF9093290480932804F12CBE
:10078000E12C812C912C5401839480912C04909124
:100790002D04E816F9067CF586010150110917FDB4
:1007A00020C0D501C401002E04C0880F991FAA1FC4
:1007B000BB1F0A94D2F784219521A621B721892B4A
:1007C0008A2B8B2B49F080913404909135040E9440
:1007D0005003E3CFE998C5CF809132049091330460
:1007E000F6CF80913004909131040E9450038FEF36
:1007F000E81AF80ACACF60E080912A040E94040334
:10080000CF3FDC0729F1D0932904C093280410922C
:10081000DA021092DB021092DC021092DD021092DA
:100820003C0210923B028C2FC23090F4DD27CC0F9B
:10083000DD1FCA5FDE4F2AE237E03983288381302B
:10084000C1F0809169008C7F816080936900E89A93
:10085000DF91CF911F910F91FF90EF90DF90CF909C
:10086000BF90AF909F908F907F906F905F904F90D0
:10087000089580916900837F846080936900E99A7C
:10088000E7CFCF93DF9390E0FC01E856FD4F249132
:100890008C579D4FFC0184918823D1F090E0880F04
:1008A000991FFC01ED56FF4FA591B491FC01E35651
:1008B000FF4FC591D49161110EC09FB7F8948C91F0
:1008C000E22FE0958E238C932881E223E8839FBF5B
:1008D000DF91CF9108958FB7F894EC91E22BEC93D0
:1008E0008FBFF6CF3FB7F89480910D0290910E0222
:1008F000A0910F02B091100226B5A89B05C02F3F12
:1009000019F00196A11DB11D3FBFBA2FA92F982F35
:100910008827BC01CD01620F711D811D911D42E030
:10092000660F771F881F991F4A95D1F708958F92F8
:100930009F92AF92BF92CF92DF92EF92FF926B01A4
:100940007C010E9472044B015C01C114D104E104DA
:10095000F104B9F00E947204681979098A099B09A7
:10096000683E73408105910580F321E0C21AD108E9
:10097000E108F10888EE880E83E0981EA11CB11CE6
:10098000E4CFFF90EF90DF90CF90BF90AF909F901B
:100990008F9008952FB7F8946091090270910A0220
:1009A00080910B0290910C022FBF0895089590E062
:1009B00080E00895DC0180E0615090F09D919827DF
:1009C000E92FEF70F0E0ED58FF4F2491E92FE29509
:1009D000EF70F0E0ED57FF4FE491822F8E27ECCFC0
:1009E0000895DC012C911196ED91FC91F894818190
:1009F000822B81839281322F30959323928387E0DB
:100A000090E00197F1F781818323818383E290E075
:100A10000197F1F790817894EFECF0E03197F1F7DE
:100A2000922381E009F480E00895FC019081018027
:100A3000F281E02D292F209560FF14C0F894828167
:100A4000822382838181892B8183A3E2B0E0119785
:100A5000F1F78281982B9283789487ED90E001974B
:100A6000F1F70895F8948281822382838181892B12
:100A70008183AFEFB0E01197F1F78281982B9283D9
:100A800078948FE090E0EBCFDF92EF92FF920F939C
:100A90001F93CF93DF93EC01D62EE42E08E010E0F5
:100AA000FF24F39461E08D2D8F2109F460E0CE01E5
:100AB0000E941505FF0C01501109A1F7E11010C0AB
:100AC000F894E981FA8191818881809589238183D5
:100AD000E981FA8192818881809589238283789443
:100AE000DF91CF911F910F91FF90EF90DF900895CC
:100AF000EF92FF920F931F93CF93DF938C017B01B3
:100B000040E065E50E944405E70188E0E80EF11C3D
:100B1000699140E0C8010E944405CE15DF05C1F788
:100B2000DF91CF911F910F91FF90EF900895FC01FD
:100B300090810180F281E02DF8948181292F209508
:100B40008223818378943DE743E050E0315029F1DE
:100B5000DA011197F1F780818923C1F3F89482813A
:100B6000822382838181892B81837894ABE7B7E0EC
:100B70001197F1F7F894818182238183A3E1B1E099
:100B80001197F1F78081982381E009F080E0789453
:100B9000E3E6F6E03197F1F7089580E00895CF920B
:100BA000DF92EF92FF9280914004909141040E9465
:100BB000970540E06CEC80914004909141040E94C4
:100BC00044054091370464E48091400490914104CD
:100BD0000E94440580913B04882309F1E0913A0486
:100BE00080913C04882301F18091370481111CC05D
:100BF0000E94CA046B017C018091400490914104E1
:100C00000E94F104813059F00E94CA046C197D09D8
:100C10008E099F096E3E72408105910568F3FF9031
:100C2000EF90DF90CF900895E9508EEE92E0E330A0
:100C300038F4F0E0EE0FFF1FE45EFE4F80819181FB
:100C40006C01990FEE08FF0880913804882329F081
:100C500060E0809139040E940403C701B6010E943C
:100C60009704809138048823D1F261E0809139049F
:100C7000FF90EF90DF90CF900C9404036F927F92DF
:100C80008F929F92AF92BF92CF92DF92EF92FF929C
:100C90000F931F93CF93DF938C01EB01809140045E
:100CA000909141040E949705882309F43FC0B80140
:100CB00080914004909141040E94780540E06EEBE1
:100CC00080914004909141040E9444057E016E0190
:100CD00089E0C80ED11C8E01A0904004B090410460
:100CE00088E0882E912C712C66246394C5010E94A3
:100CF000F10481117628660CE1E08E1A9108B1F7B3
:100D0000F80171928F01CE16DF0631F78091400411
:100D1000909141040E949705813041F4F70181913F
:100D20007F01811105C0E017F107C1F790E008C00D
:100D300068E0CE010E94DA0491E028852813F6CFFE
:100D4000892FDF91CF911F910F91FF90EF90DF904E
:100D5000CF90BF90AF909F908F907F906F900895AD
:100D6000CF93DF93CDB7DEB729970FB6F894DEBFE8
:100D70000FBECDBFBE016F5F7F4F0E943E0688232E
:100D800031F08D818F33A9F020F48F31A1F080E014
:100D900007C08F3521F08F37D1F78CE001C08BE091
:100DA00029960FB6F894DEBF0FBECDBFDF91CF916D
:100DB00008958AE0F5CF89E0F3CF0F931F93CF9387
:100DC000DF93FC012289222331F080E0DF91CF9173
:100DD0001F910F910895EC010E94CA0408811981A6
:100DE0002A813B81DC01CB01801B910BA20BB30B51
:100DF00088879987AA87BB870C811D812E813F81B7
:100E000080179107A207B30700F3088719872A877D
:100E10003B8781E0DBCFCF93DF93FC012089211159
:100E200009C0EC010E94CA04688379838A839B838A
:100E300081E0888BDF91CF910895FC0110821182AF
:100E4000128213821486158616861786108A118AD6
:100E5000128A08952F923F924F925F926F927F92E3
:100E60008F929F92AF92BF92CF92DF92EF92FF92BA
:100E70000F931F93CF93DF93CDB7DEB765970FB670
:100E8000F894DEBF0FBECDBF0E9472046B017C01DF
:100E900080910402909105022601481A590A4DECEE
:100EA000441640E1540608F4E0C08091020290919B
:100EB0000302009789F020917C0130917D0112019D
:100EC000221A330A910137FE03C031952195310969
:100ED000283C31050CF0C5C0019690930302809325
:100EE0000202029709F0BDC09EE0692E92E0792EC1
:100EF00001E010E020907A0130907B013B862A8649
:100F000049E050E0B301CE0101960E94D7218B81C8
:100F10006C81681708F4682F70E080917C019091D3
:100F20007D010E9432249B0140910A0150910B01E6
:100F3000649FC001659F900D749F900D112464E61D
:100F400070E00E9432248985A1E0B0E0882311F08E
:100F5000A2E0B0E08D81829FA001839F500D1124FB
:100F60005D874C878E81829F1001839F300C1124F6
:100F70003F862E868F81829FA001839F500D112472
:100F8000598B488B8885829F1001839F300C1124D8
:100F90003B8A2A8AFD01EE0FFF1FE458FE4F812C89
:100FA000912C54014A855B85415051095D8B4C8BD6
:100FB0008C899D89A817B90708F040C0880C991C36
:100FC000AA1CBB1C80819181AC012C843D844219F8
:100FD000530957FF03C051954195510946175707CB
:100FE00070F4428153812E843F844219530957FF84
:100FF00003C051954195510946175707E0F04889BC
:101000005989841B950B97FF03C091958195910990
:1010100086179707C8F4828193812A883B888219B2
:10102000930997FF03C091958195910986179707BA
:1010300058F4689480F812963496BACF4A855B8546
:101040004830510508F053C00F5F1F4F59E0650E3F
:10105000711C0D30110509F04DCF10920302109252
:10106000020210927B0110927A0180917A01909194
:101070007B018334910540F010927B0110927A013C
:10108000109203021092020280917A0190917B01EA
:101090009C012F5F3F4F30937B0120937A01880F93
:1010A000991FFC01E458FE4F51824082C092040215
:1010B000D0920502E0920602F092070265960FB602
:1010C000F894DEBF0FBECDBFDF91CF911F910F917E
:1010D000FF90EF90DF90CF90BF90AF909F908F9058
:1010E0007F906F905F904F903F902F9008958092E7
:1010F000DA029092DB02A092DC02B092DD022C8830
:101100003D883694279430923C0220923B023093E3
:1011100079012093780110937701009376019DCF98
:10112000BF92CF92DF92EF92FF920F931F93CF93D4
:10113000DF93EC01B62EC72E8D85811105C0CE013F
:101140000E94970581110EC01B861D861C8680E0BB
:10115000DF91CF911F910F91FF90EF90DF90CF9093
:10116000BF90089540E060EFCE010E94440501E089
:10117000E12CD12C11E0CE010E94F104F82ECE0119
:101180000E94F10491E0F91218C0813099F51134F0
:10119000D8F2DB86D11002C081E08D878B81882355
:1011A00099F22396EB2DFC2DCF01089629912193DE
:1011B000E817F907D9F781E0CBCFEE2DF0E0F81270
:1011C0000FC08B851817A0F4DE01AE0FBF1F13965A
:1011D0008C91802379F4F12C193008F41C87D12EDE
:1011E000EC0FFD1F8381902F9095892383830AC084
:1011F0008113F1CFFE01EE0DF11D8381802B8383DE
:10120000FF24F3946F2DCE010E9415051F5F000F80
:1012100011F4E39401E087E08E1508F0ACCFB7CF6E
:10122000FF920F931F93CF93DF938C01F62EE091E3
:101230004004F091410413861586148612861186A7
:10124000108617821682158214821382C0E0B801BC
:1012500080914004909141040E949008D82F8823E7
:1012600029F0FC1629F0CF5FFC1688F7D0E008C003
:1012700067E0C8010E94DA04F80197818913F3CF6F
:101280008D2FDF91CF911F910F91FF900895CF93F4
:10129000DF93EC0160E08E810E94040361E08E81A7
:1012A0000E94040360E08E810E9404038BE891E0B9
:1012B0000197F1F7DF91CF910895CF92DF92EF92EE
:1012C000FF920F931F93CF93DF936C017C0187E014
:1012D000E80EF11CD0E0C0E0062F10E0B8010C2EA3
:1012E00002C0759567950A94E2F76170F7018191E4
:1012F0007F010E9404032196C430D10579F7C6010D
:10130000DF91CF911F910F91FF90EF90DF90CF90E1
:101310000C944709CF92DF92EF92FF920F931F93A5
:10132000CF93DF93EC01F62E642F8C810E9404038F
:101330008D818F3F19F060E00E9404030F2D10E0B3
:101340008F8584FF25C06E0187E0C80ED11CF12C6B
:10135000E12CB8010E2C02C0759567950A94E2F74E
:101360006170F60181916F010E940403FFEFEF1A93
:10137000FF0A88E0E816F10461F7CE01DF91CF9112
:101380001F910F91FF90EF90DF90CF900C94470941
:10139000B80184E0759567958A95E1F7CE010E94C2
:1013A0005D096F2DCE01DF91CF911F910F91FF90BD
:1013B000EF90DF90CF900C945D0940E0682F8CE5B2
:1013C00094E00C948A0981E00E94DD098BE39FE19F
:1013D0000197F1F70895CF93DF93823029F490912C
:1013E0006B04986090936B0480936F041092700468
:1013F00080E48093710480E18093720480E580939F
:10140000730461E0809160040E9441048091610452
:101410008F3F19F061E00E94410461E08091620415
:101420000E944104CCE5D4E09E012C5534408091CB
:101430006B0484FD0BC084E090E0219628173907E7
:1014400044F461E08E810E944104EECF88E090E098
:10145000F4CF8BE39DE00197F1F760E080916004A9
:101460000E94040360E0809162040E940403809162
:1014700061048F3F19F060E00E94040380916B04C7
:1014800084FD34C063E08CE594E00E945D09CBE408
:10149000D6E4CE010197F1F763E08CE594E00E9479
:1014A0005D092197F1F763E08CE594E00E945D0906
:1014B00083E592E00197F1F762E08CE594E00E9409
:1014C0005D0980916B0480620E94DD0984E0809355
:1014D0006C048CE00E94DD090E94E30982E08093A5
:1014E0006D0486E0DF91CF910C94DD0980620E944B
:1014F000DD098BE496E40197F1F780916B0480623B
:101500000E94DD0983E592E00197F1F780916B0479
:1015100080620E94DD09D5CF90916F04891710F089
:101520008FEF890FE82FF0E0E45AFB4F8489806841
:101530000C94DD09CF93C82F81E00E948C0A6FE6DE
:1015400070E0C11102C061E770E08CE594E0CF91DA
:101550000C94890141E00E948A0981E090E008959D
:10156000CF93DF93EC010E94E30980E00E948C0A94
:10157000D0931A02C09319021092340210923302CF
:1015800010922D0210922E0210922F021092300211
:10159000109224041092250410922C0261E08BE03A
:1015A0000E94410460E08BE00E94040383E090E02D
:1015B00090933202809331028EED92E0DF91CF91D1
:1015C0000C941D07FB0101900020E9F73197AF0152
:1015D000461B570BDC01ED91FC910280F381E02D5D
:1015E00009948F929F92AF92BF92EF92FF920F93C6
:1015F0001F93CF93DF93CDB7DEB7A1970FB6F894C3
:10160000DEBF0FBECDBF7C01FA01CB0119A2223093
:1016100008F42AE08E010F5D1F4F822E912CB12C11
:10162000A12CBF01A50194010E945A24F901CA010D
:101630006A300CF5605DD8016E938D01232B242B4D
:10164000252B79F790E080E0109721F0BD01C701CC
:101650000E94E20AA1960FB6F894DEBF0FBECDBF7E
:10166000DF91CF911F910F91FF90EF90BF90AF90BE
:101670009F908F900895695CDECFCF92DF92EF92BA
:10168000FF920F931F93CF93DF936B01770FEE08B9
:10169000FF08F7FE1BC0EC016DE20E9482018C0185
:1016A00044275527BA014C195D096E097F092AE0C4
:1016B000CE010E94F10A800F911FDF91CF911F91FF
:1016C0000F91FF90EF90DF90CF9008952AE0B7013F
:1016D000A601DF91CF911F910F91FF90EF90DF90C6
:1016E000CF900C94F10ACF93DF93BC018DE392E08D
:1016F0000E943D0BEC0160E471E08DE392E00E94FA
:10170000E20A8C0F9D1FDF91CF910895CF93DF9355
:10171000BC018DE392E00E94E20AEC0160E471E01A
:101720008DE392E00E94E20A8C0F9D1FDF91CF9122
:101730000895CF93DF93BC018DE392E00E9489016D
:10174000EC0160E471E08DE392E00E94E20A8C0F0C
:101750009D1FDF91CF9108958F929F92AF92BF927C
:10176000CF92DF92EF92FF921092680310922A03B9
:1017700010922B0310922C0310922D03E0914C0336
:10178000F0914D03C080D180E280F380C092540379
:10179000D0925503E0925603F0925703E0914A032A
:1017A000F0914B0380819181A281B3818093580392
:1017B00090935903A0935A03B0935B038090640302
:1017C00090906503A0906603B0906703A501940113
:1017D000C701B6010E94BB2318164CF48092540333
:1017E00090925503A0925603B092570310C0809078
:1017F000600390906103A0906203B0906303A50121
:101800009401C701B6010E94632287FDE7CF81E002
:101810008093680388E690E0FF90EF90DF90CF9090
:10182000BF90AF909F908F900C94990B4F925F92C6
:101830006F927F928F929F92AF92BF92CF92DF92E0
:10184000EF92FF92CF93DF9300D000D0CDB7DEB7F9
:1018500060910A0470910B0480910C0490910D0426
:101860000E9409234B015C0160910E0470910F04EA
:1018700080911004909111040E9409236B017C0156
:10188000AC019B01C501B4010E94632218160CF043
:101890006EC0C0926003D0926103E0926203F09246
:1018A00063038092640390926503A0926603B092F2
:1018B000670380916803882309F459C080914C0321
:1018C00090914D039A838983FC014080518062800E
:1018D0007380A3019201C501B4010E94632287FFB6
:1018E00027C0E981FA8180829182A282B3828090AE
:1018F000540390905503A0905603B0905703C090A6
:101900006403D0906503E0906603F0906703A7013D
:101910009601C501B4010E94BB231816C4F4C092FD
:101920005403D0925503E0925603F09257031FC020
:10193000A3019201C701B6010E94BB231816BCF691
:10194000E981FA81C082D182E282F382D0CFC09055
:101950006003D0906103E0906203F0906303A701FD
:101960009601C501B4010E94632287FDD8CF409043
:10197000FA035090FB036090FC037090FD0320E09D
:1019800030E0A901C301B2010E94632287FDB6C005
:101990008090FE039090FF03A0900004B09001049B
:1019A00020E030E0A901C501B4010E94632287FD57
:1019B000A5C0C0900204D0900304E0900404F0900D
:1019C000050420E030E0A901C701B6010E946322AE
:1019D00087FD94C081E02091480330914903213074
:1019E000310509F080E08093690340922E03509204
:1019F0002F036092300370923103809232039092F1
:101A00003303A0923403B0923503C0923603D092D0
:101A10003703E0923803F092390360915C037091D0
:101A20005D0380915E0390915F030E94092320E093
:101A300030E04AE754E40E94682269837A838B830A
:101A40009C8340923A0350923B0360923C03709215
:101A50003D039B01AC01C501B4010E94C0234B01B1
:101A60005C0180923E0390923F03A0924003B092AB
:101A7000410329813A814B815C81C701B6010E94F3
:101A800068226B017C01C0924203D0924303E09232
:101A90004403F092450380914603909147030197D8
:101AA00069F5A301920160E070E0CB010E94F6218C
:101AB00060933A0370933B0380933C0390933D0300
:101AC000A501940160E070E0CB010E94F6216093D3
:101AD0003E0370933F038093400390934103A7011B
:101AE000960160E070E0CB010E94F6216093420312
:101AF000709343038093440390934503C09006047E
:101B0000D09007041C141D040CF04CC00D2C000CCC
:101B1000EE08FF08C701B6010E940B234B015C01D0
:101B200060915C0370915D0380915E0390915F030F
:101B30000E9409239B01AC01C501B4010E946822E7
:101B40004B015C01AC019B0160913E0370913F032E
:101B500080914003909141030E94C02360933E0313
:101B600070933F038093400390934103A501940138
:101B70006091420370914303809144039091450327
:101B80000E9468226093420370934303809344034E
:101B900090934503C0925C03D0925D03E0925E0394
:101BA000F0925F030F900F900F900F90DF91CF9105
:101BB000FF90EF90DF90CF90BF90AF909F908F906D
:101BC0007F906F905F904F900C94AC0BCF93DF930E
:101BD000AB01BC012AE08DE392E00E94F10AEC0126
:101BE00060E471E08DE392E00E94E20A8C0F9D1F99
:101BF000DF91CF9108952F923F924F925F926F9213
:101C00007F928F929F92AF92BF92CF92DF92EF928C
:101C1000FF921F93CF93DF93EC016A017B01722E39
:101C2000AB019601CB01B6010E942D2463E471E063
:101C3000811126C046015701E894B7F82FEF3FEF16
:101C40004FE75FE7C501B4010E942D2481110CC04C
:101C50002FEF3FEF4FE75FE7C501B4010E9463221A
:101C600067E471E0181664F02FEF3FEF4FE75FE491
:101C7000C701B6010E94BB231816B4F46BE471E0EF
:101C8000CE01DF91CF911F91FF90EF90DF90CF9029
:101C9000BF90AF909F908F907F906F905F904F908C
:101CA0003F902F900C94E20A2FEF3FEF4FE75FEC4D
:101CB000C701B6010E94632287FDE0CF20E030E03B
:101CC000A901C701B6010E946322312C212C87FF94
:101CD00009C06DE2CE010E9482011C01F7FAF09466
:101CE000F7F8F09410E060E070E080E09FE3711698
:101CF00041F020E030E040E251E40E9468221F5FA2
:101D0000F6CFA70196010E94F7212B013C010E940A
:101D1000DA224B015C012AE0BC01A401CE010E9441
:101D2000F10A7C01E20CF31C1123C1F1C501B401DD
:101D30000E9409239B01AC01C301B2010E94F6215C
:101D40004B015C016EE2CE010E948201E80EF91E99
:101D5000115020F120E030E040E251E4C501B4012F
:101D60000E94C0232B013C010E94DA224B01B12CBE
:101D7000A12C2AE0B501A401CE010E94F10AE80ECF
:101D8000F91EC501B4010E9409239B01AC01C301E6
:101D9000B2010E94F6214B015C01DACFC701DF914D
:101DA000CF911F91FF90EF90DF90CF90BF90AF90B9
:101DB0009F908F907F906F905F904F903F902F906B
:101DC0000895CF93DF93AB01BC0122E08DE392E055
:101DD0000E94FB0DEC0160E471E08DE392E00E9453
:101DE000E20A8C0F9D1FDF91CF910895DF92EF9251
:101DF000FF920F931F93CF93DF93EB0189017A0139
:101E0000E20EF31E0E151F05A1F0C11584E0D807E0
:101E100080F4F999FECFF801D1908F01CE010E9494
:101E2000E021D81621F06D2DCE010E94E8212196E7
:101E3000E9CFDF91CF911F910F91FF90EF90DF904D
:101E40000895EF92FF920F931F93CF93DF938A0130
:101E5000020F131FE9017B01E21AF30AC017D10731
:101E600069F0C7018C0F9D1F811524E0920730F4A3
:101E7000F999FECF0E94E0218993F0CFDF91CF91B5
:101E80001F910F91FF90EF9008951F920F920FB640
:101E90000F9211242F933F934F935F936F937F93F0
:101EA0008F939F93AF93BF93EF93FF938DE392E054
:101EB0000E947502FF91EF91BF91AF919F918F9119
:101EC0007F916F915F914F913F912F910F900FBE36
:101ED0000F901F9018951F920F920FB60F9211241A
:101EE0002F938F939F93EF93FF93E0914D02F09187
:101EF0004E028081E0915302F091540282FD1BC09A
:101F00009081809156028F5F8F73209157028217C4
:101F100041F0E0915602F0E0E35CFD4F958F809335
:101F20005602FF91EF919F918F912F910F900FBECD
:101F30000F901F9018958081F4CF1F920F920FB6CB
:101F40000F9211242F933F938F939F93AF93BF933F
:101F50008091090290910A02A0910B02B0910C02AB
:101F60003091080223E0230F2D3758F50196A11D6B
:101F7000B11D209308028093090290930A02A09356
:101F80000B02B0930C0280910D0290910E02A09171
:101F90000F02B09110020196A11DB11D80930D0298
:101FA00090930E02A0930F02B0931002BF91AF91D5
:101FB0009F918F913F912F910F900FBE0F901F9087
:101FC000189526E8230F0296A11DB11DD2CF1F92AE
:101FD0000F920FB60F9211242F933F934F935F935D
:101FE0006F937F938F939F93AF93BF93EF93FF93E1
:101FF000E0910801F09109010995FF91EF91BF91DE
:10200000AF919F918F917F916F915F914F913F9190
:102010002F910F900FBE0F901F9018951F920F9247
:102020000FB60F9211242F933F934F935F936F93AB
:102030007F938F939F93AF93BF93EF93FF93E09121
:102040000601F09107010995FF91EF91BF91AF91C2
:102050009F918F917F916F915F914F913F912F91C0
:102060000F900FBE0F901F9018954F925F926F9236
:102070007F928F929F92AF92BF92CF92DF92EF9218
:10208000FF920F931F93CF931092400210923F0242
:1020900088EE93E0A0E0B0E080934102909342028A
:1020A000A0934302B093440286E291E090933E02F3
:1020B00080933D0285EC90E090934A028093490220
:1020C00084EC90E090934C0280934B0280EC90E083
:1020D00090934E0280934D0281EC90E090935002D9
:1020E00080934F0282EC90E09093520280935102D1
:1020F00086EC90E090935402809353021092560223
:1021000010925702109258021092590210925F04D6
:1021100010925E0488E391E090935D0480935C04E8
:1021200088E0809360048FEF80936104C9E0C093DE
:10213000620484E08093630485E08093640486E015
:102140008093650487E08093660410926704109280
:1021500068041092690410926A0410926B0481E082
:102160000E94EB0960E08CE00E944104E4EAF2E0A6
:10217000E491E0934E04E0E9F2E0E491F0E0EE0F48
:10218000FF1FE658FD4F85919491909350048093E2
:102190004F041092590410925B0410925A0410924A
:1021A000580410925704109256041092550410923D
:1021B000540410925304109252041092510410923D
:1021C0004D0410924C04109238048EE494E09093E5
:1021D00041048093400410923E0410923F041092F8
:1021E0003704C0933A04C1E0C0933B04C0933C045D
:1021F000C0933D040FEF1FEF10932B0400932A04AC
:102200008AE090E090932D0480932C0449E050E004
:102210006EE072E08EE294E00E94D72110932904D0
:10222000009328048CE390E090930B0180930A01C3
:102230001092DA021092DB021092DC021092DD02A0
:10224000C0900204D0900304E0900404F0900504D0
:102250008090FE039090FF03A0900004B0900104D2
:102260004090FA035090FB036090FC037090FD03D4
:102270008AE293E090934D0380934C0380E191E0D8
:1022800090934B0380934A038CE091E090934F032B
:1022900080934E03109268031092600310926103C2
:1022A000109262031092630380E090E0AFE7B3E422
:1022B0008093640390936503A0936603B0936703D0
:1022C00084E690E0A0E0B0E080935C0390935D032F
:1022D000A0935E03B0935F031092470310924603EE
:1022E00020E030E0A901C301B2010E94632287FD12
:1022F0005AC020E030E0A901C501B4010E94632268
:1023000087FD51C020E030E0A901C701B6010E945D
:10231000632287FD48C081E090E090934903809359
:102320004803C093690340922E0350922F0360929A
:102330003003709231038092320390923303A09263
:102340003403B0923503C0923603D0923703E09243
:102350003803F092390340923A0350923B03609263
:102360003C0370923D032DEC3CEC4CEC5DE3C5016D
:10237000B4010E94C02360933E0370933F03809397
:102380004003909341032DEC3CEC4CEC5DE3C70122
:10239000B6010E94682260934203709343038093C6
:1023A0004403909345030E94CA0400915C0310917A
:1023B0005D0320915E0330915F03601B710B820B04
:1023C000930B609350037093510380935203909347
:1023D000530310921B0310921C0310921D031092C2
:1023E0001E0387E193E00E941D07109208031092DC
:1023F000090310920A0310920B0384E093E00E94F9
:102400001D071092F5021092F6021092F702109238
:10241000F80281EF92E00E941D071092E2021092F2
:10242000E3021092E4021092E5028EED92E0CF9169
:102430001F910F91FF90EF90DF90CF90BF90AF90E2
:102440009F908F907F906F905F904F900C941D079E
:10245000CF93DF93CDB7DEB76E970FB6F894DEBF9C
:102460000FBECDBF789484B5826084BD84B5816091
:1024700084BD85B5826085BD85B5816085BD80914F
:102480006E00816080936E001092810080918100C7
:1024900082608093810080918100816080938100BF
:1024A000809180008160809380008091B100846081
:1024B0008093B1008091B00081608093B0008091E2
:1024C0007A00846080937A0080917A0082608093A1
:1024D0007A0080917A00816080937A0080917A00FE
:1024E000806880937A001092C100E0914D02F091D3
:1024F0004E0282E08083E0914902F0914A0210820C
:10250000E0914B02F0914C0280E1808310925502E1
:10251000E0915102F091520286E08083E0914F02F7
:10252000F0915002808180618083E0914F02F091B0
:102530005002808188608083E0914F02F0915002C8
:10254000808180688083E0914F02F0915002808109
:102550008F7D808382E00E94EB098FE491E00E94EE
:10256000860B109227042AE633E04EEB50E070E031
:1025700060E080E091E00E94210FEAE6F3E08EEB5C
:10258000DF011D928A95E9F780E090E4ACE9B5E4BB
:102590008093FA039093FB03A093FC03B093FD0395
:1025A00088EE93E0A0E0B0E08093060490930704E7
:1025B000A0930804B093090480E797E1A0E0B0E09D
:1025C00080930A0490930B04A0930C04B0930D0421
:1025D00086E990E0A0E0B0E080930E0490930F04B1
:1025E000A0931004B09311048FE694EEA8E1B0E03C
:1025F00080931A0490931B04A0931C04B0931D04B1
:102600008EE694EEA8E1B0E080931E0490931F0440
:10261000A0932004B093210481E090E090931304F0
:10262000809312048BE391E090931504809314043B
:1026300088E190E090931904809318048FE090E073
:10264000909317048093160481E08093270424E17B
:1026500030E082E090E0A0E0B0E035832483808326
:102660009183A283B383399643E0EA3FF407A9F745
:102670002AE633E04EEB50E070E060E080E091E06D
:102680000E94F60E60E08CE00E94410461E08BE065
:102690000E94410461E08AE00E94410461E08BE015
:1026A0000E94410460E08BE00E94040361E08AE044
:1026B0000E940403E0914004F091410413861586C2
:1026C000148612861186108617821682158214824D
:1026D000138210923E0410923F0411E0BE016F5F1E
:1026E0007F4F80914004909141040E94900888237C
:1026F00009F45FC067E0CE0101960E94DA04988574
:102700008913ECCF80913E048F5F80933E048981D2
:10271000883231F008F044C0803111F08232F1F695
:1027200080913F048F5F80933F0480913704811133
:1027300028C080914004909141040E949705BE01F9
:102740006F5F7F4F80914004909141040E94780513
:1027500040E064EB80914004909141040E94440564
:1027600080914004909141040E94F104082F8091CF
:102770004004909141040E949705011102C01093FA
:1027800037048981803199F0CE0101960E94B0060C
:1027900090913A04981708F0A1CF80933A049ECF05
:1027A0008B3309F4BDCF823409F098CFB9CF8CE0D8
:1027B000EFCF60E081E192E00E9410098091110268
:1027C000803109F46FC0BE016F5F7F4F81E192E0FD
:1027D0000E943E06882309F465C08D818F3709F475
:1027E00061C08FE78D8380914004909141040E94E5
:1027F000970561E172E080914004909141040E944C
:10280000780540E06EE480914004909141040E947C
:10281000440540E06B8180914004909141040E9406
:10282000440540E06C8180914004909141040E94F5
:10283000440580911102803141F040E06D8180912A
:102840004004909141040E9444058091400490917D
:10285000410420913D04222319F10E949705882309
:1028600009F161E172E080914004909141040E947D
:1028700078054091370468E48091400490914104C8
:102880000E94440580913704811130C064E170E0FA
:1028900080E090E00E949704809140049091410470
:1028A0000E9497058CE080933A0480913E04823028
:1028B000C0F110E080913E04181798F580913A0419
:1028C0008C3079F1612FCE0101960E941009898127
:1028D000803129F1CE0101960E94B00690913A0410
:1028E000981710F480933A041F5FE4CF8091380466
:1028F000882329F060E0809139040E94040364E198
:1029000070E080E090E00E94970480913804882372
:1029100019F261E0809139040E940403BDCF8CE07C
:10292000DDCF10923B040E94CF058DE090E09093A4
:102930002B0480932A0461E00E94410480911204D8
:10294000909113049C01215031092C30310510F075
:1029500081E090E0019729E0289FB001299F700D48
:102960001124625F7D4F49E050E08EE294E00E94C6
:10297000D721809114049091150490932F04809393
:102980002E04809116049091170490932D04809347
:102990002C048091060490910704A0910804B09142
:1029A000090480931B0390931C03A0931D03B09311
:1029B0001E0387E193E00E941D0780910A04909115
:1029C0000B04A0910C04B0910D0480930803909324
:1029D0000903A0930A03B0930B0384E093E00E94E1
:1029E0001D0780910A0490910B04A0910C04B091F2
:1029F0000D048093F5029093F602A093F702B09332
:102A0000F80281EF92E00E941D070E94160C0E94BE
:102A1000E30980E00E948C0A67EA70E08CE594E0AC
:102A20000E94890160ED77E080E090E00E949704C9
:102A30000E94E309F12CE12CB0E4DB2ED0927C0063
:102A400080917A00806480937A0080917A0086FD7C
:102A5000FCCF809178009091790001E010E08C33F8
:102A60009105C4F002E010E0883C91059CF003E081
:102A700010E0803951E095076CF004E010E08835F3
:102A8000A2E09A073CF005E010E08032934014F099
:102A900010E000E06AE070E080E090E00E949704BF
:102AA000E016F10609F04DC0E114F104B9F0F701A8
:102AB000EB5CFD4F808181110BC081E080836AE572
:102AC00071E08DE392E00E94E20AC7010E94730B5D
:102AD00068EC70E080E090E00E94970480E00E9443
:102AE0008C0AE0902204F0902304E0911902F09106
:102AF0001A02E032F10508F035C0EF57FA4E0C9497
:102B00007C24A3153616F01694164C17A417FA1742
:102B100050188F18CC18091946199C19B215F219BA
:102B20002D1AE91A991A461B891BCC1BB215B2152E
:102B3000B215B215B215B215B215B215B2150D1CFB
:102B4000AA1C78017BCF0E94AD01882309F472C0D2
:102B50008091330290913402009709F463C0019789
:102B600009F465C087E193E00E940B0787E193E0D9
:102B70000E94DD06882369F187E193E00E941D072A
:102B800087E193E00E940B0760E0CE010A960E9465
:102B900010098111F3C6C12CD12CFEEFEF2EF2ECFF
:102BA000FF2EC0920201D0920301E0920401F09244
:102BB00005010E94CF0520E030E04EEF52ECC70146
:102BC000B6010E946322811124C78CE591E00E9426
:102BD000860B80912404882311F40C949B2080910F
:102BE000310290913202039709F03CC78091220490
:102BF0009091230429E0289FF001299FF00D1124D2
:102C0000E659FC4F382F292F803191050CF00EC763
:102C10004681019639964423A9F3309322042093E8
:102C200023040BC78EE190E00E94B00A9BCF81E0A5
:102C300090E0FACF64E871E08CE594E00E948901AD
:102C400081E00E948C0A80913302909134020097B7
:102C500031F0019709F086CF6AE771E002C06FE7B3
:102C600071E08CE594E00E9489017CCF64E771E01B
:102C70008CE594E00E94890181E00E948C0A4091D9
:102C8000FA035091FB036091FC037091FD0322E075
:102C90008CE594E00E94FB0D809137021092370280
:102CA0008823B9F02AE037ED43E25CE36091FA0350
:102CB0007091FB038091FC039091FD030E94F7212A
:102CC0006093FA037093FB038093FC039093FD03DE
:102CD00049CF8091380210923802882379F02AE097
:102CE00037ED43E25CE36091FA037091FB0380915E
:102CF000FC039091FD030E94F621E2CF80913902FE
:102D000010923902882309F42DCF83E090E00E94CD
:102D1000B00A6091FA037091FB038091FC039091DB
:102D2000FD030E94E10E1ECF6EE671E08CE594E09B
:102D30000E94890181E00E948C0A4091FE0350911B
:102D4000FF03609100047091010422E08CE594E09F
:102D50000E94FB0D80913702109237028823B9F050
:102D60002AE037ED43E25CE36091FE037091FF03DC
:102D700080910004909101040E94F7216093FE036A
:102D80007093FF038093000490930104EBCE809135
:102D9000380210923802882379F02AE037ED43E2B6
:102DA0005CE36091FE037091FF03809100049091B9
:102DB00001040E94F621E2CF80913902109239027B
:102DC000882309F4CFCE82E090E00E94B00A60919F
:102DD000FE037091FF038091000490910104A1CF44
:102DE00068E671E08CE594E00E94890181E00E9430
:102DF0008C0A409102045091030460910404709184
:102E0000050422E08CE594E00E94FB0D80913702DE
:102E1000109237028823B9F02AE037ED43E25CE3F1
:102E20006091020470910304809104049091050460
:102E30000E94F721609302047093030480930404BA
:102E4000909305048FCE8091380210923802882327
:102E500079F02AE037ED43E25CE36091020470917F
:102E6000030480910404909105040E94F621E2CFAE
:102E70008091390210923902882309F473CE84E0DC
:102E800090E00E94B00A6091020470910304809166
:102E900004049091050445CF6FE571E08CE594E062
:102EA0000E94890181E00E948C0A409106045091A1
:102EB000070460910804709109042AE08CE594E00D
:102EC0000E94F10A80913702109237028823A1F004
:102ED0008091060490910704A0910804B091090420
:102EE0000196A11DB11D8093060490930704A09341
:102EF0000804B093090436CE80913802109238024B
:102F0000882361F08091060490910704A091080441
:102F1000B09109040197A109B109E5CF8091390267
:102F200010923902882309F41DCE85E090E00E94BA
:102F3000B00A609106047091070480910804909192
:102F400009040E94E60D0ECE68E571E08CE594E080
:102F50000E94890181E00E948C0A40910A045091EC
:102F60000B0460910C0470910D042AE08CE594E050
:102F70000E94F10A80913702109237028823A1F053
:102F800080910A0490910B04A0910C04B0910D045F
:102F90000196A11DB11D80930A0490930B04A09388
:102FA0000C04B0930D04DECD8091380210923802EB
:102FB000882361F080910A0490910B04A0910C0485
:102FC000B0910D040197A109B109E5CF80913902B3
:102FD00010923902882309F4C5CD86E090E00E9462
:102FE000B00A60910A0470910B0480910C049091D6
:102FF0000D04A7CF6EE471E08CE594E00E94890196
:1030000081E00E948C0A40910E0450910F0460915F
:103010001004709111042AE08CE594E00E94F10AFA
:1030200080913702109237028823A1F080910E041C
:1030300090910F04A0911004B09111040196A11D6C
:10304000B11D80930E0490930F04A0931004B093CD
:10305000110488CD8091380210923802882361F0E3
:1030600080910E0490910F04A0911004B09111046E
:103070000197A109B109E5CF809139021092390277
:10308000882309F46FCD87E090E00E94B00A609138
:103090000E0470910F04809110049091110451CF8F
:1030A00067E471E08CE594E00E94890181E00E9470
:1030B0008C0A60911204709113048CE594E00E94D4
:1030C0003D0B8091370210923702882351F0809196
:1030D00012049091130401969093130480931204A8
:1030E00041CD8091380210923802882331F08091CE
:1030F0001204909113040197EFCF8091390210923E
:103100003902882309F42ECD88E090E00E94B00AAD
:1031100080911204909113040E94730B23CD62E4FA
:1031200071E08CE594E00E94890181E00E948C0AA4
:1031300060911404709115048CE594E00E943D0B9D
:103140008091370210923702882351F08091140445
:10315000909115040196909315048093140402CD68
:103160008091380210923802882331F08091140443
:10317000909115040197EFCF809139021092390296
:10318000882309F4EFCC89E090E00E94B00A809196
:10319000140490911504C0CF6CE371E08CE594E0C9
:1031A0000E94890181E00E948C0A6091160470914E
:1031B00017048CE594E00E943D0B80913702109239
:1031C0003702882351F080911604909117040196DC
:1031D0009093170480931604C5CC80913802109206
:1031E0003802882331F080911604909117040197DA
:1031F000EFCF8091390210923902882309F4B2CCC2
:103200008AE090E00E94B00A809116049091170421
:1032100083CF65E371E08CE594E00E94890181E051
:103220000E948C0A60911804709119048CE594E056
:103230000E943D0B8091370210923702882351F093
:103240008091180490911904019690931904809329
:10325000180488CC8091380210923802882331F00B
:1032600080911804909119040197EFCF8091390251
:1032700010923902882309F475CC8091180490913A
:1032800019040E94730B8BE090E0CECC60E371E0F8
:103290008CE594E00E94890181E00E948C0A4091B3
:1032A0001A0450911B0460911C0470911D042AE0C3
:1032B0008CE594E00E94F10A809137021092370267
:1032C0008823A1F080911A0490911B04A0911C0402
:1032D000B0911D040196A11DB11D80931A04909315
:1032E0001B04A0931C04B0931D043CCC80913802B5
:1032F00010923802882361F080911A0490911B0487
:10330000A0911C04B0911D040197A109B109E5CF5A
:103310008091390210923902882309F423CC6091FC
:103320001A0470911B0480911C0490911D040E944A
:10333000E60D8CE090E078CC6AE271E08CE594E0F8
:103340000E94890181E00E948C0A40911E045091E4
:103350001F0460912004709121042AE08CE594E020
:103360000E94F10A80913702109237028823A1F05F
:1033700080911E0490911F04A0912004B09121041B
:103380000196A11DB11D80931E0490931F04A0936C
:103390002004B0932104E6CB8091380210923802C9
:1033A000882361F080911E0490911F04A091200455
:1033B000B09121040197A109B109E5CF80913902AB
:1033C00010923902882309F4CDCB60911E047091CC
:1033D0001F0480912004909121040E94E60D8EE04C
:1033E00090E022CC0E94AD018823F9F08091330255
:1033F000909134020097B1F0019709F0B3CB2AE61F
:1034000033E04EEB50E070E060E080E091E00E943D
:10341000F60E0E94160C82E291E00E94990B90E059
:1034200080E002CC8FE090E0FFCB69E171E08CE5B9
:1034300094E00E94890181E00E948C0A809133020D
:1034400090913402009731F0019709F08BCB6FE037
:1034500071E007CC64E171E004CC68E071E08CE5D8
:1034600094E00E94890181E00E948C0A609122040C
:10347000709123048CE594E00E943D0B809137020B
:1034800010923702882309F1C0902204D0902304BF
:10349000EFEFCE1ADE0A0D2C000CEE08FF0881E0DB
:1034A0000E948C0A66EB70E08CE594E00E94890132
:1034B000F0E1CF16D104E104F1043CF5F7FC02C2BF
:1034C000D0922304C09222044DCB809138021092F6
:1034D00038028823F1F0C0902204D090230421E028
:1034E000C21AD1080D2C000CEE08FF0881E00E94E2
:1034F0008C0A66EB70E08CE594E00E94890140E163
:10350000C416D104E104F104CCF2C12CD12C760113
:10351000D7CF8091390210923902882309F422CB47
:1035200080912204909123040E94730B81E190E02A
:103530007BCB6FEF70E08CE594E00E94890181E025
:103540000E948C0A89E08E9D80018F9D100D1124B0
:1035500006591C4FD80114966D917C918CE594E02E
:103560000E943D0B80913702109237028823A9F008
:10357000F801E480F580FFEFEF1AFF0A81E00E9476
:103580008C0A66EB70E08CE594E00E948901D8011A
:103590001596FC92EE921497E5CA8091380210922B
:1035A0003802882339F0F801E480F580F1E0EF1A61
:1035B000F108E4CF8091390210923902882309F48E
:1035C000D1CAF801848195810E94730B80E190E05B
:1035D0002BCB65EF70E08CE594E00E94890181E0DF
:1035E0000E948C0A89E08E9D80018F9D100D112410
:1035F00006591C4FD8014D915D916D917C912AE047
:103600008CE594E00E94F10A809137021092370213
:103610008823D1F0F801C080D180E280F380FFEFF1
:10362000CF1ADF0AEF0AFF0A81E00E948C0A66EBDC
:1036300070E08CE594E00E948901D801CD92DD9282
:10364000ED92FC9213978ECA809138021092380244
:10365000882359F0F801C080D180E280F380F1E046
:10366000CF1AD108E108F108DFCF8091390210921A
:103670003902882309F476CAF80160817181828158
:1036800093810E94E60D82E190E0CECA6CEE70E07C
:103690008CE594E00E94890189E08E9D80018F9DD8
:1036A000100D112406591C4FD80116968C910E94BA
:1036B0009A0A8091370210923702882331F0F8017C
:1036C000868191E0892786834DCA809138021092C5
:1036D0003802882349F0D80116968C91169791E00C
:1036E000892716968C933ECA80913902109239022E
:1036F000882309F437CAF8018681882339F089EED6
:1037000090E00E94990B83E190E08ECA86EE90E0F3
:10371000F8CF6DED70E08CE594E00E94890189E0BE
:103720008E9D80018F9D100D112406591C4FD801CC
:1037300017968C910E949A0A809137021092370254
:10374000882331F0F801878191E0892787830ACAAD
:103750008091380210923802882349F0D8011796D8
:103760008C91179791E0892717968C93FBC98091CC
:10377000390210923902882309F4F4C9F8018781CB
:10378000882339F08AED90E00E94990B84E190E063
:103790004BCA87ED90E0F8CF6EEC70E08CE594E0DA
:1037A0000E94890189E08E9D80018F9D100D11245A
:1037B00006591C4FD80118968C910E949A0A809144
:1037C000370210923702882331F0F801808591E0AA
:1037D00089278087C7C980913802109238028823D0
:1037E00049F0D80118968C91189791E0892718967E
:1037F0008C93B8C98091390210923902882309F458
:10380000B1C9F8018085882329F08BEC90E00E94F3
:10381000990BE5CD88EC90E0FACF61EC70E08CE597
:1038200094E00E94890181E00E948C0A6091220448
:10383000709123048CE594E00E943D0B8091370247
:10384000109237028823E1F0C0902204D090230424
:10385000FFEFCF1ADF0A0D2C000CEE08FF0881E005
:103860000E948C0A66EB70E08CE594E00E9489016E
:1038700020E1C216D104E104F1040CF41FCE45CEC0
:103880008091380210923802882311F1C0902204EE
:10389000D090230441E0C41AD1080D2C000CEE088E
:1038A000FF0881E00E948C0A66EB70E08CE594E0F2
:1038B0000E94890150E1C516D104E104F1040CF421
:1038C000FDCD23CEAFE0CA2ED12CE12CF12CF8CDCA
:1038D0008091390210923902882309F443C98FE19B
:1038E00090E00E94B00A89E08E9D80018F9D100DAE
:1038F000112406591C4FF80180819181A281B38166
:103900008093E2029093E302A093E402B093E50275
:103910008EED92E00E941D07D80114966D917C9166
:10392000072E000C880B990B0E940B2360930C014F
:1039300070930D0180930E0190930F0181E08093AD
:103940002404E3E0F0E0F0933202E09331020E94BD
:10395000AC0B08C98091370210923702811102C95D
:1039600080913802109238028111FCC8809139028E
:1039700010923902882309F4F5C851CDBE016F5F5A
:103980007F4FCE010A960E943E06882309F403C9A0
:103990006A8170E0762F6627770F770F770F29817E
:1039A000F8E02F9F90011124262B372B8A85803138
:1039B000E1F468856623C9F070E08F81AB01481B94
:1039C0005109CA019695982F8827979587950E9447
:1039D0004624CB018097B90153E0660F771F5A95B3
:1039E000E1F760789C01260F371F213854EE350728
:1039F0000CF4D1C8B901330F880B990B0E940B232B
:103A000020E030E040E05CE30E94C0236B017C01D9
:103A1000C8C8C0921001D0921101E0921201F09238
:103A20001301C701B6010E94E10ED3C88031910590
:103A300049F0909323048093220410923202109252
:103A4000310210C0109223041092220410922D0211
:103A500010922E0210922F021092300290E080E01D
:103A60000E94B00A8091310290913202892B09F0B4
:103A700045C0809122049091230429E0289F800171
:103A8000299F100D112406591C4FD80114966D91D1
:103A90007C91072E000C880B990B0E940B23209120
:103AA00010013091110140911201509113010E94B7
:103AB000632287FF23C0E1E0F0E0F0933202E0935D
:103AC0003102D8012D913D914D915C91A0E6BAEE65
:103AD0000E9482246093E2027093E3028093E402E6
:103AE0009093E5028EED92E00E941D078EED92E02C
:103AF0000E940B078DEF91E00E94990B809131029B
:103B000090913202019709F051C08EED92E00E942F
:103B1000DD06882309F47FC081EF91E00E94990BB4
:103B2000E2E0F0E0F0933202E0933102809122046F
:103B30009091230429E0289FF001299FF00D112482
:103B4000E659FC4F80858823B9F181E080932C02EF
:103B500061E08BE00E944104E4E9F1E0E491E330AC
:103B600009F470C350F4E130E1F0E23009F464C3C9
:103B700061E08BE00E94040319C0E73009F46EC3D2
:103B8000E83009F474C3E43099F7809180008062D2
:103B90008093800084EB90E090938B0080938A0068
:103BA00005C084B5806884BD84EB87BD80913102F7
:103BB00090913202029779F580912C02882381F04E
:103BC0008091380210923802882351F010922C0212
:103BD00061E08BE00E94410460E08BE00E940403FE
:103BE000809122049091230429E0289FF001299FCD
:103BF000F00D1124E659FC4F8781882331F0809124
:103C0000370210923702882331F043E050E050939E
:103C100032024093310280912404882309F4A6C023
:103C20006EEE71E08CE594E00E94890160912204BF
:103C3000709123048CE594E00E943D0B6AEE71E0E4
:103C40008CE594E00E9489018091250468EE71E082
:103C5000811102C066EE71E08CE594E00E9489015A
:103C600080913102909132028130910509F008C3B0
:103C700062EE71E08CE594E00E948901C090E2025E
:103C8000D090E302E090E402F090E5028091E60239
:103C90009091E702A091E802B091E902C81AD90A0E
:103CA000EA0AFB0AC701B60128EE33E040E050E023
:103CB0000E945A24283731054105510540F0C701BB
:103CC000B60120E63AEE40E050E00E945A243F93CD
:103CD0002F9389E691E09F938F938CE192E09F93DD
:103CE0008F930E949C246CE172E08CE594E00E942A
:103CF000E20A0F900F900F900F900F900F9081E0BD
:103D00000E948C0A66ED71E08CE594E00E948901C6
:103D100020E030E04EEF52EC60910201709103011F
:103D200080910401909105010E9463228111D0C20B
:103D300063ED71E08CE594E00E9489016EEC71E026
:103D40008CE594E00E9489018091220490912304E3
:103D500029E0289FF001299FF00D1124E659FC4F1E
:103D6000648175818CE594E00E943D0B80912C026A
:103D70006BEC71E0811102C068EC71E08DE392E0C0
:103D80000E94890160913102709132028DE392E0CC
:103D90000E943D0B64EC71E08DE392E00E9489018A
:103DA00060912204709123048DE392E00E943D0B08
:103DB00060EC71E08DE392E00E948901809125041E
:103DC0006EEB71E0811102C06CEB71E08DE392E06B
:103DD0000E94890167EB71E08DE392E00E94890106
:103DE00040911001509111016091120170911301E5
:103DF00022E08DE392E00E94FB0D62EB71E08DE327
:103E000092E00E948901809122049091230419E09C
:103E1000189FF001199FF00D1124E659FC4F6481A1
:103E200075818DE392E00E943D0B8091310290916B
:103E300032028130910509F059C26EEA71E08DE3DA
:103E400092E00E9489016091E2027091E302809108
:103E5000E4029091E5020091E6021091E7022091C0
:103E6000E8023091E902601B710B820B930B28EE84
:103E700033E040E050E00E945A24CA01B9010E9498
:103E8000E60D84E093E00E940B0784E093E00E943B
:103E9000DD06882309F44FC180916803882309F463
:103EA00028C10E94CA046A8B7B8B8C8B9D8B80916E
:103EB000500390915103A0915203B09153034A894A
:103EC0005B896C897D89481B590B6A0B7B0B809140
:103ED0005C0390915D03A0915E03B0915F0348176E
:103EE00059076A077B0708F404C1E0914A03F0917F
:103EF0004B034080518062807380E0914E03F091CB
:103F00004F03A301920160817181828193810E949C
:103F1000F6216B017C0120915803309159034091A7
:103F20005A0350915B03C301B2010E94F6216E8BCC
:103F30007F8B888F998F20913E0330913F03409172
:103F4000400350914103C701B6010E94C023209154
:103F500054033091550340915603509157030E94EA
:103F6000F7214B015C018092540390925503A0927B
:103F70005603B0925703B0916903BA8FB1111CC0B8
:103F800020913A0330913B0340913C0350913D0313
:103F90006E897F89888D998D0E94C0239B01AC0119
:103FA000C501B4010E94F621609354037093550338
:103FB0008093560390935703809154039091550337
:103FC000A0915603B09157038B8F9C8FAD8FBE8FFE
:103FD000009164033090650320906603109167039D
:103FE000202F332D422D512FBC01CD010E94BB2328
:103FF00018160CF09BC1802F932DA22DB12F80930A
:10400000540390935503A0935603B09357039A8D8E
:10401000992309F4A6C120913A0330913B034091C2
:104020003C0350913D03C701B6010E94C0236B01C0
:104030007C0120914203309143034091440350910D
:1040400045036E897F89888D998D0E94C0239B01CD
:10405000AC01609154037091550380915603909187
:1040600057030E94F621A70196010E94F7216B01D8
:104070007C019B01AC01602F732D822D912F0E943A
:10408000632287FD16C00091600330906103209089
:10409000620310916303202F332D422D512FB6015F
:1040A000C7010E94632287FD04C00C2D3D2C2E2CDD
:1040B0001F2DE0914C03F0914D03802F932DA22DE5
:1040C000B12F80839183A283B3834092580350928F
:1040D000590360925A0370925B038A899B89AC8969
:1040E000BD898093500390935103A0935203B093E2
:1040F00053030E94CA0460932D0270932E02809392
:104100002F029093300284E093E00E941D0784E028
:1041100093E00E940B076DE971E08DE392E00E944D
:10412000890160912A0370912B0380912C03909157
:104130002D030E94E10E60910E0470910F04809196
:104140001004909111040E94092320912A033091B8
:104150002B0340912C0350912D030E94632287FF73
:1041600004C10E94CA0400912D0210912E022091D8
:104170002F0230913002601B710B820B930B0E9457
:10418000092320912A0330912B0340912C03509155
:104190002D030E94632287FFE8C0809125048111CE
:1041A00003C081E080931B0281E08093250481EFAE
:1041B00092E00E940B0781EF92E00E94DD068111E0
:1041C00004C080911B02882339F181EF92E00E94A4
:1041D0001D0781EF92E00E940B0710921B02809155
:1041E0002504882309F4CBC08EE691E00E94860B5B
:1041F00080912A0490912B04019671F0409118044B
:104200005091190460911A0470911B0480911C0450
:1042100090911D040E94900380E090E0892B11F49E
:104220000C941A150E946102882311F40C941A153B
:104230000E9400000C941A1584B5806284BD84EB42
:1042400088BDB4CC8091800080688093800084EB2E
:1042500090E09093890080938800A8CC8091B00072
:1042600080688093B00084EB8093B3009FCC8091F2
:10427000B00080628093B00084EB8093B40096CC51
:104280000097E1F46EED71E08CE594E00E94890105
:10429000809122049091230429E0289FF001299F16
:1042A000F00D1124E659FC4F4081518162817381E8
:1042B0002AE08CE594E00E94F10A21CD029709F0F2
:1042C0001ECD6AED71E08CE594E00E94890117CD66
:1042D00040911001509111016091120170911301F0
:1042E00022E08CE594E00E94FB0D28CD0097B1F40C
:1042F0006AEA71E08DE392E00E94890180912204D4
:1043000090912304189FF001199FF00D1124E65994
:10431000FC4F6081718182819381B1CD029709F058
:10432000B0CD86EA91E00E94990BABCD80906003FE
:1043300090906103A0906203B0906303A501940183
:104340006B8D7C8D8D8D9E8D0E94632287FF5FCE4D
:104350008092540390925503A0925603B092570353
:1043600056CEC12CD12C760164CE809125048823B1
:1043700019F081E080931B021092250418CF81E789
:1043800091E00E94860B80912A0490912B04019663
:1043900009F442CF409118045091190460911E0411
:1043A00070911F04809120049091210433CFFB0170
:1043B000DC0102C005900D9241505040D8F708959D
:1043C000F999FECF92BD81BDF89A992780B50895DD
:1043D000262FF999FECF1FBA92BD81BD20BD0FB621
:1043E000F894FA9AF99A0FBE019608955058BB278F
:1043F000AA270E940E220C9481230E94732338F076
:104400000E947A2320F039F49F3F19F426F40C948B
:1044100070230EF4E095E7FB0C946A23E92F0E94C9
:10442000922358F3BA17620773078407950720F0A1
:1044300079F4A6F50C94B4230EF4E0950B2EBA2F64
:10444000A02D0B01B90190010C01CA01A00111249A
:10445000FF27591B99F0593F50F4503E68F11A1646
:10446000F040A22F232F342F4427585FF3CF4695D7
:1044700037952795A795F0405395C9F77EF41F16F9
:10448000BA0B620B730B840BBAF09150A1F0FF0FC3
:10449000BB1F661F771F881FC2F70EC0BA0F621FAF
:1044A000731F841F48F4879577956795B795F7959F
:1044B0009E3F08F0B0CF9395880F08F09927EE0F34
:1044C0009795879508950E94462308F481E0089502
:1044D0000E947C220C9481230E947A2358F00E942F
:1044E000732340F029F45F3F29F00C946A235111A3
:1044F0000C94B5230C9470230E94922368F39923A3
:10450000B1F3552391F3951B550BBB27AA276217CF
:104510007307840738F09F5F5F4F220F331F441FDC
:10452000AA1FA9F335D00E2E3AF0E0E832D0915010
:104530005040E695001CCAF72BD0FE2F29D0660FFD
:10454000771F881FBB1F261737074807AB07B0E840
:1045500009F0BB0B802DBF01FF2793585F4F3AF046
:104560009E3F510578F00C946A230C94B5235F3F6D
:10457000E4F3983ED4F3869577956795B795F795CC
:104580009F5FC9F7880F911D9695879597F90895B4
:10459000E1E0660F771F881FBB1F62177307840750
:1045A000BA0720F0621B730B840BBA0BEE1F88F75F
:1045B000E09508950E949A2388F09F5798F0B92FAC
:1045C0009927B751B0F0E1F0660F771F881F991F48
:1045D0001AF0BA95C9F714C0B13091F00E94B42313
:1045E000B1E008950C94B423672F782F8827B85F23
:1045F00039F0B93FCCF3869577956795B395D9F7A0
:104600003EF490958095709561957F4F8F4F9F4FA9
:104610000895E89409C097FB3EF4909580957095B5
:1046200061957F4F8F4F9F4F9923A9F0F92F96E9FE
:10463000BB279395F695879577956795B795F11173
:10464000F8CFFAF4BB0F11F460FF1BC06F5F7F4F10
:104650008F4F9F4F16C0882311F096E911C0772322
:1046600021F09EE8872F762F05C0662371F096E82B
:10467000862F70E060E02AF09A95660F771F881FFA
:10468000DAF7880F9695879597F90895990F00089E
:10469000550FAA0BE0E8FEEF16161706E807F90714
:1046A000C0F012161306E407F50798F0621B730BAF
:1046B000840B950B39F40A2661F0232B242B252B30
:1046C00021F408950A2609F4A140A6958FEF811DD3
:1046D000811D089597F99F6780E870E060E0089574
:1046E0009FEF80EC089500240A941616170618060A
:1046F0000906089500240A941216130614060506E6
:104700000895092E0394000C11F4882352F0BB0F76
:1047100040F4BF2B11F460FF04C06F5F7F4F8F4FD9
:104720009F4F089557FD9058440F551F59F05F3F14
:1047300071F04795880F97FB991F61F09F3F79F0C3
:1047400087950895121613061406551FF2CF469545
:10475000F1DF08C0161617061806991FF1CF8695C7
:104760007105610508940895E894BB2766277727AB
:10477000CB0197F908950E94462308F48FEF08951E
:104780000E94D3230C9481230E94732338F00E944B
:104790007A2320F0952311F00C946A230C94702353
:1047A00011240C94B5230E94922370F3959FC1F3BA
:1047B000950F50E0551F629FF001729FBB27F00DCF
:1047C000B11D639FAA27F00DB11DAA1F649F662724
:1047D000B00DA11D661F829F2227B00DA11D621F73
:1047E000739FB00DA11D621F839FA00D611D221F2D
:1047F000749F3327A00D611D231F849F600D211D11
:10480000822F762F6A2F11249F5750409AF0F1F093
:1048100088234AF0EE0FFF1FBB1F661F771F881FFC
:1048200091505040A9F79E3F510580F00C946A23A7
:104830000C94B5235F3FE4F3983ED4F386957795C7
:104840006795B795F795E7959F5FC1F7FE2B880FA2
:10485000911D9695879597F908950E944623880B98
:10486000990B0895AA1BBB1B51E107C0AA1FBB1FD0
:10487000A617B70710F0A61BB70B881F991F5A95EC
:10488000A9F780959095BC01CD01089597FB072E5F
:1048900016F4009407D077FD09D00E94322407FC5B
:1048A00005D03EF4909581959F4F08957095619540
:1048B0007F4F0895A1E21A2EAA1BBB1BFD010DC05C
:1048C000AA1FBB1FEE1FFF1FA217B307E407F507C0
:1048D00020F0A21BB30BE40BF50B661F771F881F9C
:1048E000991F1A9469F760957095809590959B0132
:1048F000AC01BD01CF010895EE0FFF1F0590F491AB
:10490000E02D09940E948D24A59F900DB49F900DD9
:10491000A49F800D911D11240895A29FB001B39F03
:10492000C001A39F700D811D1124911DB29F700DB8
:10493000811D1124911D0895AEE0B0E0E2EAF4E299
:104940000C944B270D891E8986E08C831A8309837A
:104950008FEF9FE79E838D83AE01475E5F4F6F8928
:10496000788DCE0101960E94BF242F813885020FD9
:10497000131FF80110822E96E4E00C946727ABE039
:10498000B0E0E5ECF4E20C943D277C013B018A01A8
:10499000FC0117821682838181FFC8C1CE01019676
:1049A0005C01F7019381F30193FD859193FF819160
:1049B0003F01882309F453C1853239F493FD859171
:1049C00093FF81913F01853229F4B70190E00E9465
:1049D000AF26E7CF912C212C312CFFE1F31538F0D5
:1049E0008B3211F190F4803209F1833229F137FCD6
:1049F0003CC020ED280F2A3050F536FE20C08AE05A
:104A0000989E200D1124922E06C08D3291F0803395
:104A100071F7689430F8F30193FD859193FF8191CC
:104A20003F018111DACF21C0689431F8689432F8DF
:104A3000F2CF689433F8EFCF689434F8ECCFEAE023
:104A40002E9E200D1124222E689435F8E4CF8E324C
:104A500029F436FC04C1689436F8DDCF8C3619F49D
:104A6000689437F8D8CF8836B1F2982F9F7D955447
:104A70009330E0F08336A1F18337C1F1833509F03B
:104A800063C02801F2E04F0E511CF801C080D180B4
:104A9000692D70E036FC02C06FEF7FEFC6010E9407
:104AA00099264C01689437F882010AC00C5F1F4FA9
:104AB000FFE3F98388248394912C6501E89437F807
:104AC00033FE2DC0522C8114910471F5552009F448
:104AD00068CFB70180E290E00E94AF265A94F6CFEB
:104AE000F801808189830E5F1F4FE4CF2801F2E037
:104AF0004F0E511CF801C080D180692D70E036FC4A
:104B000002C06FEF7FEFC6010E94A4264C01820114
:104B1000D5CFB70180E290E00E94AF262A942814F6
:104B2000190409F0B0F7CECFF60137FC859137FEB6
:104B300081916F01B70190E00E94AF2651105A9405
:104B4000F1E08F1A9108BFCF843619F0893609F049
:104B500077C0F80137FE6BC06081718182819381DB
:104B60000C5F1F4FF32DFF763F2E97FF09C09095E6
:104B70008095709561957F4F8F4F9F4F689437F860
:104B80002AE030E0A5010E94DF26C82ECA188C2C2E
:104B9000432C36FE0CC0E89440F8C91440F434FEAF
:104BA00005C032FC03C0F32DFE7E4F2E892C44FE3F
:104BB00095C0FE01EC0DF11D8081803309F087C0A6
:104BC000242D297E422E842D8870582E43FC95C0BA
:104BD00040FE8FC09C2C821418F42C0C922C981838
:104BE00044FE91C0B70180E390E00E94AF2642FEF0
:104BF00009C088E790E041FE02C088E590E0B70177
:104C00000E94AF26C91408F48AC0CA94D12C9FEF21
:104C1000C91AD90ACA0CDB1CF60182916F01B701CF
:104C200090E00E94AF26AC14BD04B1F74FCF608175
:104C30007181072E000C880B990B0E5F1F4F92CFCE
:104C4000D32CE894D4F82AE030E0853739F1232DCD
:104C5000297FD22E8F3601F148F48835A9F0F7016B
:104C6000868197812B96E2E10C945927803749F091
:104C70008837A9F7D4FE02C06894D2F820E130E06A
:104C80000DC06894D4F8F6CF34FE03C0822F86603E
:104C9000D82E20E132E002C028E030E0F801D7FE53
:104CA0000FC060817181828193810C5F1F4FA501CC
:104CB0000E94DF26C82ECA183D2CE89437F867CF2B
:104CC0006081718190E080E00E5F1F4FF0CF42FC69
:104CD00002C0839478CF8394839475CF842D867893
:104CE00009F471CFF6CFB70180E290E00E94AF26C1
:104CF00083948214C0F3512C73CF522C5818821411
:104D000008F46ECFF8CF842D867809F47BCF8BE240
:104D100041FE80E247FC8DE2B70190E071CFB70120
:104D200080E390E00E94AF269A946CCF8FEF9FEFC4
:104D300099CFFC010590615070400110D8F7809523
:104D400090958E0F9F1F0895FC0161507040019057
:104D50000110D8F7809590958E0F9F1F08950F939F
:104D60001F93CF93DF93182F092FEB018B8181FDC8
:104D700009C01FEF0FEF812F902FDF91CF911F916F
:104D80000F91089582FF14C02E813F818C819D81F7
:104D9000281739073CF4E881F981CF0101969983FE
:104DA000888310838E819F8101969F838E83E3CFBA
:104DB000E885F985812F0995892BA1F3DACFFA01CE
:104DC000AA27283051F1203181F1E8946F936E7F4A
:104DD0006E5F7F4F8F4F9F4FAF4FB1E03ED0B4E03B
:104DE0003CD0670F781F891F9A1FA11D680F791F7C
:104DF0008A1F911DA11D6A0F711D811D911DA11D8D
:104E000020D009F468943F912AE0269F112430199C
:104E1000305D3193DEF6CF010895462F4770405D37
:104E20004193B3E00FD0C9F7F6CF462F4F70405DE6
:104E30004A3318F0495D31FD4052419302D0A9F741
:104E4000EACFB4E0A6959795879577956795BA953B
:104E5000C9F700976105710508959B01AC010A2E01
:104E600006945795479537952795BA95C9F7620FD8
:104E7000731F841F951FA01D08952F923F924F927C
:104E80005F926F927F928F929F92AF92BF92CF92DA
:104E9000DF92EF92FF920F931F93CF93DF93CDB7E3
:104EA000DEB7CA1BDB0B0FB6F894DEBF0FBECDBF5B
:104EB00009942A88398848885F846E847D848C842C
:104EC0009B84AA84B984C884DF80EE80FD800C8135
:104ED0001B81AA81B981CE0FD11D0FB6F894DEBF18
:0C4EE0000FBECDBFED010895F894FFCF88
:104EEC0018010000C841810181013C000000C8414B
:104EFC000000C84100000000210FF60E5E00BC004F
:104F0C007701000000009702F7012402E402550229
:104F1C003302470200000000AA0AF701D704D604A6
:104F2C000D0A006E616E00696E66006F7666004C4D
:104F3C006F616456616C756573006200444953433C
:104F4C004F4E4E45435445440025303375004F6E4B
:064F5C00004F6666000034
:00000001FF
