:100000000C946B000C944A040C9423040C949300FD
:100010000C9493000C9493000C9493000C94930014
:100020000C9493000C9493000C9493000C94930004
:100030000C9493000C9493000C9493000C949300F4
:100040000C94D9030C9493000C94A7030C94810393
:100050000C9493000C9493000C9493000C949300D4
:100060000C9493000C9493005E01011F01030301A3
:10007000008A02010A010202010064001E47040B0B
:100080000906007C0101060103030100F401060ECC
:100090000102020100C201170101020201019600E2
:1000A000023E0106060100C800038207100310008B
:1000B000C800820710071003016D0112010301013E
:1000C00003010E012401010202010140012401018A
:1000D00002020101710411241FBECFEFD8E0DEBF80
:1000E000CDBF11E0A0E0B1E0ECE4FDE002C005907E
:1000F0000D92AC38B107D9F723E0ACE8B1E001C00C
:100100001D92AB34B207E1F710E0CBE6D0E004C0BB
:100110002197FE010E949E06CA36D107C9F70E94A8
:10012000C8040C94A4060C940000AF92BF92CF9226
:10013000DF92EF92FF920F931F93CF93DF936C01A7
:100140007B018B01040F151FEB015E01AE18BF0888
:10015000C017D10759F06991D601ED91FC9101903A
:10016000F081E02DC6010995892B79F7C501DF9152
:10017000CF911F910F91FF90EF90DF90CF90BF90A4
:10018000AF900895FC01538D448D252F30E0842FCE
:1001900090E0821B930B541710F0CF9608950197AF
:1001A0000895FC01918D828D981761F0A28DAE0F9C
:1001B000BF2FB11D5D968C91928D9F5F9F73928F23
:1001C00090E008958FEF9FEF0895FC01918D828D4F
:1001D000981731F0828DE80FF11D858D90E008951C
:1001E0008FEF9FEF0895FC01918D228D892F90E074
:1001F000805C9F4F821B91098F73992708958BE92B
:1002000092E00E94F30021E0892B09F420E0822F84
:10021000089580E090E0892B29F00E94FF00811171
:100220000C9400000895FC01A48DA80FB92FB11DF6
:10023000A35ABF4F2C91848D90E001968F7399271C
:10024000848FA689B7892C93A089B1898C918370FA
:1002500080648C93938D848D981306C00288F389F3
:10026000E02D80818F7D80830895EF92FF920F9320
:100270001F93CF93DF93EC0181E0888F9B8D8C8D52
:1002800098131AC0E889F989808185FF15C09FB746
:10029000F894EE89FF896083E889F9898081837009
:1002A000806480839FBF81E090E0DF91CF911F91B8
:1002B0000F91FF90EF900895F62E0B8D10E00F5FD9
:1002C0001F4F0F731127E02E8C8D8E110CC00FB6AF
:1002D00007FCFACFE889F989808185FFF5CFCE0147
:1002E0000E941301F1CFEB8DEC0FFD2FF11DE35AAE
:1002F000FF4FF0829FB7F8940B8FEA89FB898081CA
:100300008062CFCFCF93DF93EC01888D8823B9F043
:10031000AA89BB89E889F9898C9185FD03C0808110
:1003200086FD0DC00FB607FCF7CF8C9185FFF2CF8D
:10033000808185FFEDCFCE010E941301E9CFDF91CF
:10034000CF91089508952F923F924F925F926F92AE
:100350007F928F929F92AF92BF92CF92DF92EF9255
:10036000FF920F931F93CF93DF93CDB7DEB76597BF
:100370000FB6F894DEBF0FBECDBF9FB7F894809044
:10038000940190909501A0909601B090970186B548
:10039000A89B07C08F3F29F02FEF821A920AA20A6A
:1003A000B20A9FBFBA2CA92C982C8824880E911CC5
:1003B000A11CB11C82E0880C991CAA1CBB1C8A954C
:1003C000D1F780919001909191012401481A590A26
:1003D0004DEC441640E1540608F4E0C080918E01D3
:1003E00090918F01009789F02091130230911402AF
:1003F000D201A21BB30B9D01B7FF03C0319521951C
:100400003109283C31050CF0C5C0019690938F014D
:1004100080938E01029709F0BDC018E6612E10E0AE
:10042000712E01E010E020908C0130908D013B8610
:100430002A8649E050E0B301CE0101960E945F0692
:100440008B816C81681708F4682F70E0809113022B
:10045000909114020E9468069B0140910401509102
:100460000501649FC001659F900D749F900D11243C
:1004700064E670E00E946806898541E050E08823C8
:1004800011F042E050E08D81829FD001839FB00D3A
:100490001124BD87AC878E81829FF001839FF00D70
:1004A0001124FF87EE878F81829F1001839F300C7C
:1004B0001124398A288A8885829FD001839FB00DB4
:1004C0001124BB8BAA8BFA01EE0FFF1FED5EFD4FCF
:1004D000C12CD12C76018A859B8501979D8B8C8BB5
:1004E000AC89BD894A175B0708F041C0CC0CDD1C04
:1004F000EE1CFF1C80819181DC012C843D84A219BB
:10050000B309B7FF03C0B195A195B109A617B70705
:1005100070F4A281B3812E843F84A219B309B7FF7E
:1005200003C0B195A195B109A617B707E0F0A88956
:10053000B9898A1B9B0B97FF03C0919581959109FF
:1005400086179707D0F4828193812A883B88821985
:10055000930997FF03C09195819591098617970795
:1005600060F46894C0F84E5F5F4F3496B9CF4A8507
:100570005B854830510508F053C00F5F1F4F59E0AD
:10058000650E711C0D30110509F04DCF10928F01D1
:1005900010928E0110928D0110928C0180918C012D
:1005A00090918D018334910540F010928D0110924D
:1005B0008C0110928F0110928E0180918C0190918C
:1005C0008D019C012F5F3F4F30938D0120938C0153
:1005D000880F991FFC01ED5EFD4F51824082809291
:1005E000900190929101A0929201B0929301659630
:1005F0000FB6F894DEBF0FBECDBFDF91CF911F9134
:100600000F91FF90EF90DF90CF90BF90AF909F90B1
:100610008F907F906F905F904F903F902F900895B4
:10062000C0923803D0923903E0923A03F0923B0330
:100630002C883D88369427943092100220920F0225
:10064000309312022093110210939A0200939902A0
:100650009DCFFC0101900020E9F73197AF01481BC5
:10066000590BBC018BE992E00C9495008F929F92FC
:10067000AF92BF920F931F93CF93DF93CDB7DEB7A7
:10068000A1970FB6F894DEBF0FBECDBF19A24230BE
:1006900008F44AE08E010F5D1F4F842E912CB12C7F
:1006A000A12CA50194010E947C06E62FB901CA0184
:1006B000EA30F4F4E05DD801EE938D01232B242B76
:1006C000252B79F790E080E0109719F0CD010E947A
:1006D0002903A1960FB6F894DEBF0FBECDBFDF9100
:1006E000CF911F910F91BF90AF909F908F900895E1
:1006F000E95CE1CF009711F00C94290390E080E0D1
:1007000008951F920F920FB60F9211242F933F93CB
:100710004F935F936F937F938F939F93AF93BF9309
:10072000EF93FF938BE992E00E941301FF91EF9109
:10073000BF91AF919F918F917F916F915F914F91F9
:100740003F912F910F900FBE0F901F9018951F9201
:100750000F920FB60F9211242F938F939F93EF93C5
:10076000FF93E091AB02F091AC028081E091B10285
:10077000F091B20282FD1BC090818091B4028F5F24
:100780008F732091B502821741F0E091B402F0E03E
:10079000E556FD4F958F8093B402FF91EF919F91A5
:1007A0008F912F910F900FBE0F901F901895808101
:1007B000F4CF1F920F920FB60F9211242F933F93F5
:1007C0008F939F93AF93BF938091990190919A01DA
:1007D000A0919B01B0919C013091980123E0230FDF
:1007E0002D3758F50196A11DB11D209398018093D6
:1007F000990190939A01A0939B01B0939C018091E1
:10080000940190919501A0919601B0919701019664
:10081000A11DB11D8093940190939501A093960121
:10082000B0939701BF91AF919F918F913F912F917D
:100830000F900FBE0F901F90189526E8230F029679
:10084000A11DB11DD2CF1F920F920FB60F9211248E
:100850002F933F934F935F936F937F938F939F93C8
:10086000AF93BF93EF93FF93E0910201F0910301E7
:100870000995FF91EF91BF91AF919F918F917F91DA
:100880006F915F914F913F912F910F900FBE0F90FD
:100890001F9018951F920F920FB60F9211242F934D
:1008A0003F934F935F936F937F938F939F93AF93F8
:1008B000BF93EF93FF93E0910001F091010109953F
:1008C000FF91EF91BF91AF919F918F917F916F9128
:1008D0005F914F913F912F910F900FBE0F901F90FE
:1008E00018950F931F93CF93DF93EBE9F2E01382F8
:1008F000128288EE93E0A0E0B0E084839583A68323
:10090000B7838AE091E09183808385EC90E09587BE
:10091000848784EC90E09787868780EC90E0918BC9
:10092000808B81EC90E0938B828B82EC90E0958BB6
:10093000848B86EC90E0978B868B118E128E138EB3
:10094000148ECCE3D3E00FEF1FEF1B830A838AE002
:1009500090E09D838C8349E050E068E670E082E49B
:1009600093E00E945F06198308838CE390E09093E4
:1009700005018093040110923803109239031092FC
:100980003A0310923B03DF91CF911F910F9108958D
:10099000789484B5826084BD84B5816084BD85B55A
:1009A000826085BD85B5816085BD80916E00816066
:1009B00080936E001092810080918100826080930C
:1009C000810080918100816080938100809180000E
:1009D0008160809380008091B10084608093B10039
:1009E0008091B00081608093B00080917A00846033
:1009F00080937A0080917A00826080937A0080915F
:100A00007A00816080937A0080917A008068809378
:100A10007A001092C100E091AB02F091AC0282E04A
:100A20008083E091A702F091A8021082E091A902D0
:100A3000F091AA028FEC80831092B302E091AF0292
:100A4000F091B00286E08083E091AD02F091AE02B9
:100A5000808180618083E091AD02F091AE0280815F
:100A600088608083E091AD02F091AE028081806861
:100A70008083E091AD02F091AE0280818F7D808312
:100A800010923D0310923C031092380310923903E8
:100A900010923A0310923B031092100210920F0230
:100AA00083EA91E0909301018093000180916900B5
:100AB0008C7F816080936900E89A30E3432E46E49E
:100AC000542E50E0652E50E0752E809138039091A1
:100AD0003903A0913A03B0913B03892B8A2B8B2BCE
:100AE00009F4E1C087E291E00E9429038AE291E0E3
:100AF0000E942903C0909902D0909A02E0901102BE
:100B0000F090120280910F029091100280903803B1
:100B100090903903A0903A03B0903B030DE911E0A7
:100B2000F801B501A4019F012D593140411551052E
:100B30006105710551F020E340FD21E320A3769586
:100B40006795579547953196EECFEDE9F1E0D0E006
:100B5000C0E0AC01421B530B9A018C179D0781F03A
:100B6000C217D30758F0DC01AC1BBD0BA356BE4F18
:100B70005F964C91408321963196EFCF4082FBCF18
:100B8000FE01E356FE4F10828DE291E00E947A034F
:100B90004AE0C501B4010E94360387E391E00E9458
:100BA0007A03BE0190E080E04AE00E9436038AE3C7
:100BB00091E00E947A038DE991E00E947A0388E433
:100BC00091E00E947A03EDEDF1E09F012D5D31404F
:100BD000D8019C919923C1F011968C918823A1F0A2
:100BE000903339F4803361F480830E5F1F4F319668
:100BF000ECCF913311F48133B9F388E191E00AC06D
:100C00008133D9F75082F1CFF901E352FE4F1082C0
:100C10008DED91E00E947A0385E591E00E947A03D0
:100C2000B70190E080E04AE00E94360384E691E05C
:100C30000E947A0382E791E00E947A03B60190E075
:100C400080E04AE00E9436038AE291E00E94290394
:100C50008EE791E00E947A037E01EE0CFF1CC3E157
:100C6000D2E010E000E06991799190E080E04AE004
:100C70000E94360389E891E00E947A030F5F1F4FBC
:100C8000E016F10680F78AE291E00E9429038AE2E9
:100C900091E00E94290310923803109239031092B8
:100CA0003A0310923B036114710409F40ECF0E94C1
:100CB000FF00882309F409CF0E94000006CFFB0142
:100CC000DC0102C005900D9241505040D8F70895C4
:100CD000AA1BBB1B51E107C0AA1FBB1FA617B70762
:100CE00010F0A61BB70B881F991F5A95A9F780957E
:100CF0009095BC01CD010895A1E21A2EAA1BBB1B41
:100D0000FD010DC0AA1FBB1FEE1FFF1FA217B307D7
:100D1000E407F50720F0A21BB30BE40BF50B661FED
:100D2000771F881F991F1A9469F7609570958095B1
:100D300090959B01AC01BD01CF010895EE0FFF1FFF
:0C0D40000590F491E02D0994F894FFCF89
:100D4C00A201A2013C000000000035019500C20088
:100D5C008201F300D100E5006E6F74206170706C3D
:100D6C00696361626C65006461000D0A004465632F
:100D7C00696D616C3A200020280042697429204278
:100D8C00696E6172793A2000205472692D53746136
:100D9C0074653A20002050756C73654C656E6774F1
:100DAC00683A2000206D6963726F7365636F6E64BF
:100DBC0073002050726F746F636F6C3A2000526135
:0C0DCC007720646174613A20002C000064
:00000001FF
