:020000040000FA
:100000000C9476010C940D100C94E60F0C949E0148
:100010000C949E010C949E010C949E010C949E01E4
:100020000C949E010C949E010C949E010C949E01D4
:100030000C949E010C949E010C949E010C949E01C4
:100040000C949C0F0C949E010C945A100C94341038
:100050000C949E010C949E010C949E010C949E01A4
:100060000C949E010C949E01504944726573004F9C
:10007000004400550059004E00005EBCE2613FDDC7
:1000800083C29C7E20A3FD1F41009D23BE46DB65ED
:10009000F88C11AF32CA57E9744272617576657295
:1000A00065696E2E6F72670020202020202020209E
:1000B000202000526173744E72004F66004F6E0034
:1000C000416C61726D202020004F66004F6E00571A
:1000D00061697420202020004F66004F6E0041634C
:1000E0007469766520200054696D655B4D696E5DAD
:1000F0000054656D705B435D2000526173744E72F5
:10010000004D656E75005261737400526173744DD9
:10011000656E75005341564556414C0053774F6606
:10012000660053774F6E00537742697473005377BC
:10013000527074005377504C00537750726F7400B4
:100140005069644D696E576E645B6D735D005069F4
:100150006457537A5B6D735D005069644F57496E05
:10016000745B6D735D005069644B44005069644B6F
:1001700049005069644B500053657420004F56523B
:100180002000526173740042726577004D656E7590
:100190000020573A0020543A0020523A002054736D
:1001A0003A002054693A003000310020483A0020DB
:1001B000533A00423A00413A002054733A002D2D40
:1001C0000054693A0020573A0020543A0020523A2D
:1001D000003000310020483A00533A0054696D6500
:1001E0005265616368656400546D7052656163684F
:1001F0006564006E787453743A00504944636F6DBF
:10020000703A002054693A00300031004F565220B5
:10021000483A002D2D002054693A0030003100206A
:10022000483A0000000000240027002A00000000D7
:1002300000250028002B000000000800020100003B
:1002400003040700000000000000005E01011F0120
:10025000030301008A02010A010202010064001E78
:1002600047040B0906007C0101060103030100F4A9
:1002700001060E0102020100C20117010102020182
:10028000019600023E0106060100C8000382071025
:10029000031000C800820710071003016D0112014E
:1002A00003010103010E01240101020201014001C9
:1002B00024010102020101000000002300260029A0
:1002C00000040404040404040402020202020203FF
:1002D0000303030303010204081020408001020409
:1002E000081020010204081020008C1011241FBEE9
:1002F000CFEFD8E0DEBFCDBF11E0A0E0B1E0E0E39A
:10030000F1E502C005900D92A637B107D9F724E0B8
:10031000A6E7B1E001C01D92A03BB207E1F711E0F2
:10032000C6E7D1E004C02197FE010E949E25C53793
:10033000D107C9F70E94F5110C9496280C9400007F
:10034000089580E480937C0080917A00806480939B
:100350007A0080917A0086FDFCCF809178009091A0
:100360007900089590E0FC01E95CFD4F2491FC01C7
:10037000EB52FD4F3491FC01EF53FD4FE491EE231E
:10038000C9F0222339F0233001F1A8F4213019F10A
:10039000223029F1F0E0EE0FFF1FE35DFD4FA59144
:1003A000B4918FB7F894EC91611126C030953E233B
:1003B0003C938FBF08952730A9F02830C9F024302E
:1003C00049F7809180008F7D03C0809180008F77F6
:1003D00080938000DFCF84B58F7784BDDBCF84B579
:1003E0008F7DFBCF8091B0008F778093B000D2CF0C
:1003F0008091B0008F7DF9CF3E2BDACF1F93CF9342
:10040000DF93182FD92F8091720460E0C1E0811131
:1004100002C061E0C0E0809166040E94B2012091B8
:100420006A0430916B04129FC001139F900D112438
:100430008230910538F0880F991F880F991F059712
:100440000197F1F76C2F809166040E94B201209110
:100450006A0430916B04D29FC001D39F900D112488
:100460008230910538F0880F991F880F991F0597E2
:100470000197F1F7DF91CF911F9108954F925F920D
:100480006F927F928F929F92AF92BF92CF92DF92A4
:10049000EF92FF920F931F93CF93DF932B013C01B9
:1004A0006A01C0916404D0916504CF3FDC07A9F0D4
:1004B000C23068F4FE01FF27C130D1F1E898EE0F99
:1004C000FF1FEA5FFE4F80EA91E0918380838FEF08
:1004D0009FEF9093650480936404F12CE12C812CB0
:1004E000912C540183948091680490916904E816DA
:1004F000F9067CF586010150110917FD20C0D501D0
:10050000C401002E04C0880F991FAA1FBB1F0A94A4
:10051000D2F784219521A621B721892B8A2B8B2BF9
:1005200049F080917004909171040E94FE01E3CF24
:10053000E998C5CF80916E0490916F04F6CF8091B9
:100540006C0490916D040E94FE018FEFE81AF80A86
:10055000CACF60E0809166040E94B201CF3FDC0701
:1005600029F1D0936504C093640410929B03109208
:100570009C0310929D0310929E031092FD02109214
:10058000FC028C2FC23090F4DD27CC0FDD1FCA5F38
:10059000DE4F29E837E0398328838130C1F080912C
:1005A00069008C7F816080936900E89ADF91CF9128
:1005B0001F910F91FF90EF90DF90CF90BF90AF9081
:1005C0009F908F907F906F905F904F900895809153
:1005D0006900837F846080936900E99AE7CFCF93B5
:1005E000DF9390E0FC01EB52FD4F24918F539D4F20
:1005F000FC0184918823D1F090E0880F991FFC01C1
:10060000ED5DFD4FA591B491FC01E35DFD4FC591FA
:10061000D49161110EC09FB7F8948C91E22FE095B0
:100620008E238C932881E223E8839FBFDF91CF91B3
:1006300008958FB7F894EC91E22BEC938FBFF6CF2F
:100640003FB7F8948091F8029091F902A091FA02D4
:10065000B091FB0226B5A89B05C02F3F19F001966B
:10066000A11DB11D3FBFBA2FA92F982F8827BC010C
:10067000CD01620F711D811D911D42E0660F771F34
:10068000881F991F4A95D1F708958F929F92AF9234
:10069000BF92CF92DF92EF92FF926B017C010E949A
:1006A00020034B015C01C114D104E104F104B9F051
:1006B0000E942003681979098A099B09683E7340E2
:1006C0008105910580F321E0C21AD108E108F10803
:1006D00088EE880E83E0981EA11CB11CE4CFFF9029
:1006E000EF90DF90CF90BF90AF909F908F90089544
:1006F0002FB7F8946091F4027091F5028091F602A0
:100700009091F7022FBF0895DC01ED91FC910190CB
:10071000F081E02D0994EF92FF920F931F93CF93F6
:10072000DF938C017B01D0E0C0E0F701EC0FFD1FEF
:100730006491662361F0D801ED91FC910190F08104
:10074000E02DC8010995892B11F02196EECFCE013D
:10075000DF91CF911F910F91FF90EF900895AF928D
:10076000BF92CF92DF92EF92FF920F931F93CF939E
:10077000DF936C017B018B01040F151FEB015E0100
:10078000AE18BF08C017D10759F06991D601ED9195
:10079000FC910190F081E02DC6010995892B79F734
:1007A000C501DF91CF911F910F91FF90EF90DF90E6
:1007B000CF90BF90AF900895FC01538D448D252FAD
:1007C00030E0842F90E0821B930B541710F0CF96EB
:1007D000089501970895FC01918D828D981761F01D
:1007E000A28DAE0FBF2FB11D5D968C91928D9F5F34
:1007F0009F73928F90E008958FEF9FEF0895FC0113
:10080000918D828D981731F0828DE80FF11D858DC5
:1008100090E008958FEF9FEF0895FC01918D228D58
:10082000892F90E0805C9F4F821B91098F739927DD
:1008300008958EEF92E00E940D0421E0892B09F4C7
:1008400020E0822F089580E090E0892B29F00E941B
:10085000190481110C9400000895FC01A48DA80FC7
:10086000B92FB11DA35ABF4F2C91848D90E00196F2
:100870008F739927848FA689B7892C93A089B18912
:100880008C91837080648C93938D848D981306C0B3
:100890000288F389E02D80818F7D80830895EF9217
:1008A000FF920F931F93CF93DF93EC0181E0888F2A
:1008B0009B8D8C8D98131AC0E889F989808185FFFA
:1008C00015C09FB7F894EE89FF896083E889F9899C
:1008D00080818370806480839FBF81E090E0DF919E
:1008E000CF911F910F91FF90EF900895F62E0B8DF1
:1008F00010E00F5F1F4F0F731127E02E8C8D8E11AC
:100900000CC00FB607FCFACFE889F989808185FF12
:10091000F5CFCE010E942D04F1CFEB8DEC0FFD2F12
:10092000F11DE35AFF4FF0829FB7F8940B8FEA89CD
:10093000FB8980818062CFCFCF93DF93EC01888DDC
:100940008823B9F0AA89BB89E889F9898C9185FD4A
:1009500003C0808186FD0DC00FB607FCF7CF8C91D8
:1009600085FFF2CF808185FFEDCFCE010E942D045F
:10097000E9CFDF91CF910895089590E080E0089548
:10098000DC0180E0615090F09D919827E92FEF7095
:10099000F0E0E758FF4F2491E92FE295EF70F0E087
:1009A000E757FF4FE491822F8E27ECCF0895DC01AB
:1009B0002C911196ED91FC91F8948181822B818389
:1009C0009281322F30959323928387E090E00197B4
:1009D000F1F781818323818383E290E00197F1F72E
:1009E00090817894EFECF0E03197F1F7922381E079
:1009F00009F480E00895FC0190810180F281E02DEE
:100A0000292F209560FF14C0F8948281822382836D
:100A10008181892B8183A3E2B0E01197F1F7828174
:100A2000982B9283789487ED90E00197F1F70895E1
:100A3000F8948281822382838181892B8183AFEF25
:100A4000B0E01197F1F78281982B928378948FE030
:100A500090E0EBCFDF92EF92FF920F931F93CF9333
:100A6000DF93EC01D62EE42E08E010E0FF24F3948F
:100A700061E08D2D8F2109F460E0CE010E94FB041E
:100A8000FF0C01501109A1F7E11010C0F894E981A1
:100A9000FA8191818881809589238183E981FA8116
:100AA000928188818095892382837894DF91CF9188
:100AB0001F910F91FF90EF90DF900895EF92FF92BA
:100AC0000F931F93CF93DF938C017B0140E065E58B
:100AD0000E942A05E70188E0E80EF11C699140E0D8
:100AE000C8010E942A05CE15DF05C1F7DF91CF911D
:100AF0001F910F91FF90EF900895FC01908101806C
:100B0000F281E02DF8948181292F20958223818321
:100B100078943DE743E050E0315029F1DA01119734
:100B2000F1F780818923C1F3F89482818223828343
:100B30008181892B81837894ABE7B7E01197F1F736
:100B4000F894818182238183A3E1B1E01197F1F7C9
:100B50008081982381E009F080E07894E3E6F6E074
:100B60003197F1F7089580E00895CF92DF92EF92E8
:100B7000FF9280917C0490917D040E947D0540E06D
:100B80006CEC80917C0490917D040E942A05409138
:100B9000730464E480917C0490917D040E942A0592
:100BA00080917704882309F1E0917604809178049C
:100BB000882301F18091730481111CC00E94780385
:100BC0006B017C0180917C0490917D040E94D7048C
:100BD000813059F00E9478036C197D098E099F09B4
:100BE0006E3E72408105910568F3FF90EF90DF90B3
:100BF000CF900895E9508EEE92E0E33038F4F0E0C3
:100C0000EE0FFF1FE45EFE4F808191816C01990F12
:100C1000EE08FF0880917404882329F060E0809139
:100C200075040E94B201C701B6010E94450380917C
:100C300074048823D1F261E080917504FF90EF90F5
:100C4000DF90CF900C94B2016F927F928F929F921F
:100C5000AF92BF92CF92DF92EF92FF920F931F93CA
:100C6000CF93DF938C01EB0180917C0490917D0404
:100C70000E947D05882309F43FC0B80180917C045F
:100C800090917D040E945E0540E06EEB80917C04B3
:100C900090917D040E942A057E016E0189E0C80EB4
:100CA000D11C8E01A0907C04B0907D0488E0882E39
:100CB000912C712C66246394C5010E94D704811184
:100CC0007628660CE1E08E1A9108B1F7F80171926E
:100CD0008F01CE16DF0631F780917C0490917D0460
:100CE0000E947D05813041F4F70181917F018111DE
:100CF00005C0E017F107C1F790E008C068E0CE0139
:100D00000E94C00491E028852813F6CF892FDF9137
:100D1000CF911F910F91FF90EF90DF90CF90BF90F8
:100D2000AF909F908F907F906F900895CF93DF93B7
:100D3000CDB7DEB729970FB6F894DEBF0FBECDBF93
:100D4000BE016F5F7F4F0E942406882331F08D81A2
:100D50008F33A9F020F48F31A1F080E007C08F35E8
:100D600021F08F37D1F78CE001C08BE029960FB6C8
:100D7000F894DEBF0FBECDBFDF91CF9108958AE01A
:100D8000F5CF89E0F3CFFC01EE5EFD4F808110824C
:100D9000882341F020910802309109023093190212
:100DA0002093180208959091ED02981719F091E0A0
:100DB000909331028093ED0208950F931F93CF9388
:100DC0008C0182E090E00E94C306C82F8823E9F0DE
:100DD00063E770E08EEF92E00E948B0380911C022B
:100DE00090911D0201968017910751F090931D027A
:100DF00080931C02C0E08C2FCF911F910F9108951A
:100E000010921D0210921C02F5CF83E090E00E9428
:100E1000C3068823C9F061E770E08EEF92E00E947C
:100E20008B0380911C0290911D02009739F40150B0
:100E3000110910931D0200931C02DDCF01979093BE
:100E40001D0280931C02D7CF84E090E00E94C3066D
:100E5000C82F882379F26FE670E08EEF92E00E944F
:100E60008B03C9CF0F931F93CF93DF93FC0122898C
:100E7000222331F080E0DF91CF911F910F910895EF
:100E8000EC010E947803088119812A813B81DC01F1
:100E9000CB01801B910BA20BB30B88879987AA8784
:100EA000BB870C811D812E813F8180179107A2078E
:100EB000B30700F3088719872A873B8781E0DBCFD8
:100EC000CF93DF93FC012089211109C0EC010E941E
:100ED0007803688379838A839B8381E0888BDF91A1
:100EE000CF910895FC011082118212821382148620
:100EF000158616861786108A118A128A0895CF934E
:100F0000DF93EC010E947207CE01DF91CF910C9428
:100F100060072F923F924F925F926F927F928F92D3
:100F20009F92AF92BF92CF92DF92EF92FF920F9378
:100F30001F93CF93DF93CDB7DEB765970FB6F894C5
:100F4000DEBF0FBECDBF0E9420036B017C018091EC
:100F50000402909105022601481A590A4DEC4416E4
:100F600040E1540608F4E0C080910202909103022F
:100F7000009789F020917C0130917D011201221AA5
:100F8000330A910137FE03C0319521953109283C80
:100F900031050CF0C5C001969093030280930202C4
:100FA000029709F0BDC09BE4692E92E0792E01E022
:100FB00010E020907A0130907B013B862A8649E040
:100FC00050E0B301CE0101960E94F9228B816C8121
:100FD000681708F4682F70E080917C0190917D0182
:100FE0000E9454259B0140910A0150910B01649F7E
:100FF000C001659F900D749F900D112464E670E010
:101000000E9454258985A1E0B0E0882311F0A2E078
:10101000B0E08D81829FA001839F500D11245D87D8
:101020004C878E81829F1001839F300C11243F8654
:101030002E868F81829FA001839F500D1124598B92
:10104000488B8885829F1001839F300C11243B8A36
:101050002A8AFD01EE0FFF1FE458FE4F812C912CD0
:1010600054014A855B85415051095D8B4C8B8C89BD
:101070009D89A817B90708F040C0880C991CAA1CC4
:10108000BB1C80819181AC012C843D8442195309A1
:1010900057FF03C05195419551094617570770F402
:1010A000428153812E843F844219530957FF03C064
:1010B00051954195510946175707E0F048895989DC
:1010C000841B950B97FF03C0919581959109861715
:1010D0009707C8F4828193812A883B8882199309F3
:1010E00097FF03C09195819591098617970758F44A
:1010F000689480F812963496BACF4A855B8548305A
:10110000510508F053C00F5F1F4F59E0650E711C69
:101110000D30110509F04DCF10920302109202021A
:1011200010927B0110927A0180917A0190917B015B
:101130008334910540F010927B0110927A01109255
:1011400003021092020280917A0190917B019C012E
:101150002F5F3F4F30937B0120937A01880F991FB7
:10116000FC01E458FE4F51824082C0920402D092AA
:101170000502E0920602F092070265960FB6F89417
:10118000DEBF0FBECDBFDF91CF911F910F91FF90BA
:10119000EF90DF90CF90BF90AF909F908F907F9017
:1011A0006F905F904F903F902F90089580929B0397
:1011B00090929C03A0929D03B0929E032C883D8840
:1011C000369427943092FD022092FC0230937901EC
:1011D0002093780110937701009376019DCFBF9201
:1011E000CF92DF92EF92FF920F931F93CF93DF93F3
:1011F000EC01B62EC72E8D85811105C0CE010E944F
:101200007D0581110EC01B861D861C8680E0DF9146
:10121000CF911F910F91FF90EF90DF90CF90BF90F3
:10122000089540E060EFCE010E942A0501E0E12C24
:10123000D12C11E0CE010E94D704F82ECE010E94DD
:10124000D70491E0F91218C0813099F51134D8F221
:10125000DB86D11002C081E08D878B81882399F2D3
:101260002396EB2DFC2DCF01089629912193E817A9
:10127000F907D9F781E0CBCFEE2DF0E0F8120FC0DF
:101280008B851817A0F4DE01AE0FBF1F13968C914B
:10129000802379F4F12C193008F41C87D12EEC0F3F
:1012A000FD1F8381902F9095892383830AC081132A
:1012B000F1CFFE01EE0DF11D8381802B8383FF248E
:1012C000F3946F2DCE010E94FB041F5F000F11F4F9
:1012D000E39401E087E08E1508F0ACCFB7CFFF9222
:1012E0000F931F93CF93DF938C01F62EE0917C0434
:1012F000F0917D0413861586148612861186108659
:1013000017821682158214821382C0E0B801809180
:101310007C0490917D040E94EF08D82F882329F047
:10132000FC1629F0CF5FFC1688F7D0E008C067E014
:10133000C8010E94C004F80197818913F3CF8D2F53
:10134000DF91CF911F910F91FF900895CF93DF937D
:10135000EC0160E08E810E94B20161E08E810E940A
:10136000B20160E08E810E94B2018BE891E00197AA
:10137000F1F7DF91CF910895CF92DF92EF92FF9234
:101380000F931F93CF93DF936C017C0187E0E80EEE
:10139000F11CD0E0C0E0062F10E0B8010C2E02C016
:1013A000759567950A94E2F76170F70181917F0165
:1013B0000E94B2012196C430D10579F7C601DF91B0
:1013C000CF911F910F91FF90EF90DF90CF900C94F1
:1013D000A609CF92DF92EF92FF920F931F93CF93C4
:1013E000DF93EC01F62E642F8C810E94B2018D8177
:1013F0008F3F19F060E00E94B2010F2D10E08F8541
:1014000084FF25C06E0187E0C80ED11CF12CE12CB1
:10141000B8010E2C02C0759567950A94E2F76170C9
:10142000F60181916F010E94B201FFEFEF1AFF0AEE
:1014300088E0E816F10461F7CE01DF91CF911F91AA
:101440000F91FF90EF90DF90CF900C94A609B80118
:1014500084E0759567958A95E1F7CE010E94BC09F5
:101460006F2DCE01DF91CF911F910F91FF90EF90E3
:10147000DF90CF900C94BC0940E0682F88E994E09D
:101480000C94E90981E00E943C0A8BE39FE10197FB
:10149000F1F70895CF93DF93823029F49091A70458
:1014A00098609093A7048093AB041092AC0480E4FE
:1014B0008093AD0480E18093AE0480E58093AF0417
:1014C00061E080919C040E94EF0280919D048F3F17
:1014D00019F061E00E94EF0261E080919E040E9499
:1014E000EF02C8E9D4E09E01285934408091A70456
:1014F00084FD0BC084E090E021962817390744F45E
:1015000061E08E810E94EF02EECF88E090E0F4CFA0
:101510008BE39DE00197F1F760E080919C040E94CD
:10152000B20160E080919E040E94B20180919D040E
:101530008F3F19F060E00E94B2018091A70484FD02
:1015400034C063E088E994E00E94BC09CBE4D6E4AF
:10155000CE010197F1F763E088E994E00E94BC09AD
:101560002197F1F763E088E994E00E94BC0983E5E4
:1015700092E00197F1F762E088E994E00E94BC09EB
:101580008091A70480620E943C0A84E08093A804B2
:101590008CE00E943C0A0E94420A82E08093A904E7
:1015A00086E0DF91CF910C943C0A80620E943C0A55
:1015B0008BE496E40197F1F78091A70480620E9482
:1015C0003C0A83E592E00197F1F78091A7048062DD
:1015D0000E943C0AD5CF9091AB04891710F08FEF91
:1015E000890FE82FF0E0E856FB4F848980680C945F
:1015F0003C0ACF93C82F81E00E94EB0A65E770E0B8
:10160000C11102C067E770E088E994E0CF910C94C3
:101610008B0341E00E94E90981E090E00895CF93B7
:10162000DF93EC010E94420A80E00E94EB0AD09313
:10163000F102C093F00210921D0210921C0210924F
:10164000EC021092ED0210922E0261E08CE00E94FA
:10165000EF0260E08CE00E94B20183E090E09093A2
:10166000300280932F0288ED93E0DF91CF910C94AC
:101670007207FB0101900020E9F73197AF01461B8B
:10168000570BDC01ED91FC910280F381E02D099470
:101690008F929F92AF92BF92EF92FF920F931F9300
:1016A000CF93DF93CDB7DEB7A1970FB6F894DEBF27
:1016B0000FBECDBF7C01FA01CB0119A2223008F484
:1016C0002AE08E010F5D1F4F822E912CB12CA12C90
:1016D000BF01A50194010E947C25F901CA016A306D
:1016E0000CF5605DD8016E938D01232B242B252BE7
:1016F00079F790E080E0109721F0BD01C7010E94CA
:10170000390BA1960FB6F894DEBF0FBECDBFDF91A7
:10171000CF911F910F91FF90EF90BF90AF909F904E
:101720008F900895695CDECFCF92DF92EF92FF92A7
:101730000F931F93CF93DF936B01770FEE08FF0892
:10174000F7FE1BC0EC016DE20E9484038C0144276C
:101750005527BA014C195D096E097F092AE0CE01AF
:101760000E94480B800F911FDF91CF911F910F9125
:10177000FF90EF90DF90CF9008952AE0B701A60187
:10178000DF91CF911F910F91FF90EF90DF90CF905D
:101790000C94480BCF93DF93BC018EEF92E00E9434
:1017A000940BEC0160E471E08EEF92E00E94390B43
:1017B0008C0F9D1FDF91CF910895CF93DF93AB01E5
:1017C000BC012AE08EEF92E00E94480BEC0160E43D
:1017D00071E08EEF92E00E94390B8C0F9D1FDF911C
:1017E000CF910895CF93DF93BC018EEF92E00E94DA
:1017F000390BEC0160E471E08EEF92E00E94390B4E
:101800008C0F9D1FDF91CF910895CF93DF93BC0183
:101810008EEF92E00E948B03EC0160E471E08EEFAA
:1018200092E00E94390B8C0F9D1FDF91CF9108959C
:101830008F929F92AF92BF92CF92DF92EF92FF92E0
:10184000109262041092240410922504109226042F
:1018500010922704E0914604F0914704C080D180A3
:10186000E280F380C0924E04D0924F04E092500484
:10187000F0925104E0914404F091450480819181FB
:10188000A281B3818093520490935304A093540493
:10189000B093550480905E0490905F04A090600423
:1018A000B0906104A5019401C701B6010E94DD2436
:1018B00018164CF480924E0490924F04A09250045B
:1018C000B092510410C080905A0490905B04A09094
:1018D0005C04B0905D04A5019401C701B6010E94AB
:1018E000852387FDE7CF81E08093620488E690E05E
:1018F000FF90EF90DF90CF90BF90AF909F908F9030
:101900000C94050C4F925F926F927F928F929F92F0
:10191000AF92BF92CF92DF92EF92FF92CF93DF937D
:1019200000D000D0CDB7DEB76091D2027091D30263
:101930008091D4029091D5020E942B244B015C012E
:101940006091D6027091D7028091D8029091D9020D
:101950000E942B246B017C01AC019B01C501B401E9
:101960000E94852318160CF06EC0C0925A04D092C3
:101970005B04E0925C04F0925D0480925E049092BD
:101980005F04A0926004B092610480916204882395
:1019900009F459C080914604909147049A83898341
:1019A000FC014080518062807380A3019201C501D7
:1019B000B4010E94852387FF27C0E981FA818082D4
:1019C0009182A282B38280904E0490904F04A090A6
:1019D0005004B0905104C0905E04D0905F04E09039
:1019E0006004F0906104A7019601C501B4010E9452
:1019F000DD241816C4F4C0924E04D0924F04E09235
:101A00005004F09251041FC0A3019201C701B60116
:101A10000E94DD241816BCF6E981FA81C082D182C9
:101A2000E282F382D0CFC0905A04D0905B04E09061
:101A30005C04F0905D04A7019601C501B4010E9409
:101A4000852387FDD8CF4090C2025090C30260909A
:101A5000C4027090C50220E030E0A901C301B201C8
:101A60000E94852387FDB6C08090C6029090C70271
:101A7000A090C802B090C90220E030E0A901C501E1
:101A8000B4010E94852387FDA5C0C090CA02D090F2
:101A9000CB02E090CC02F090CD0220E030E0A90132
:101AA000C701B6010E94852387FD94C081E0209183
:101AB0004204309143042130310509F080E08093E5
:101AC0006304409228045092290460922A04709280
:101AD0002B0480922C0490922D04A0922E04B0929C
:101AE0002F04C0923004D0923104E0923204F0927C
:101AF000330460915604709157048091580490917A
:101B000059040E942B2420E030E04AE754E40E946C
:101B10008A2369837A838B839C8340923404509216
:101B2000350460923604709237049B01AC01C50104
:101B3000B4010E94E2244B015C018092380490922F
:101B40003904A0923A04B0923B0429813A814B8136
:101B50005C81C701B6010E948A236B017C01C0929F
:101B60003C04D0923D04E0923E04F0923F04809108
:101B7000400490914104019769F5A301920160E04E
:101B800070E0CB010E9418236093340470933504F5
:101B90008093360490933704A501940160E070E0CF
:101BA000CB010E941823609338047093390480930A
:101BB0003A0490933B04A701960160E070E0CB01EA
:101BC0000E94182360933C0470933D0480933E046C
:101BD00090933F04C090CE02D090CF021C141D04FD
:101BE0000CF04CC00D2C000CEE08FF08C701B6012C
:101BF0000E942D244B015C016091560470915704A2
:101C000080915804909159040E942B249B01AC01AF
:101C1000C501B4010E948A234B015C01AC019B0108
:101C2000609138047091390480913A0490913B049A
:101C30000E94E224609338047093390480933A043C
:101C400090933B04A501940160913C0470913D0484
:101C500080913E0490913F040E948A2360933C044B
:101C600070933D0480933E0490933F04C0925604C9
:101C7000D0925704E0925804F09259040F900F90BC
:101C80000F900F90DF91CF91FF90EF90DF90CF906A
:101C9000BF90AF909F908F907F906F905F904F908C
:101CA0000C94180C2F923F924F925F926F927F92FA
:101CB0008F929F92AF92BF92CF92DF92EF92FF925C
:101CC0001F93CF93DF93EC016A017B01722EAB016E
:101CD0009601CB01B6010E944F2563E471E08111AA
:101CE00026C046015701E894B7F82FEF3FEF4FE7C2
:101CF0005FE7C501B4010E944F2581110CC02FEF91
:101D00003FEF4FE75FE7C501B4010E94852367E419
:101D100071E0181664F02FEF3FEF4FE75FE4C70163
:101D2000B6010E94DD241816B4F46BE471E0CE0114
:101D3000DF91CF911F91FF90EF90DF90CF90BF90F8
:101D4000AF909F908F907F906F905F904F903F905B
:101D50002F900C94390B2FEF3FEF4FE75FECC7014B
:101D6000B6010E94852387FDE0CF20E030E0A90185
:101D7000C701B6010E948523312C212C87FF09C0A1
:101D80006DE2CE010E9484031C01F7FAF094F7F88B
:101D9000F09410E060E070E080E09FE3711641F0A5
:101DA00020E030E040E251E40E948A231F5FF6CF3A
:101DB000A70196010E9419232B013C010E94FC23DC
:101DC0004B015C012AE0BC01A401CE010E94480B3A
:101DD0007C01E20CF31C1123C1F1C501B4010E9486
:101DE0002B249B01AC01C301B2010E9418234B01BB
:101DF0005C016EE2CE010E948403E80EF91E1150D0
:101E000020F120E030E040E251E4C501B4010E943D
:101E1000E2242B013C010E94FC234B01B12CA12C9C
:101E20002AE0B501A401CE010E94480BE80EF91E7C
:101E3000C501B4010E942B249B01AC01C301B20176
:101E40000E9418234B015C01DACFC701DF91CF91CB
:101E50001F91FF90EF90DF90CF90BF90AF909F9039
:101E60008F907F906F905F904F903F902F9008954C
:101E7000CF93DF93AB01BC0122E08EEF92E00E9492
:101E8000520EEC0160E471E08EEF92E00E94390B9B
:101E90008C0F9D1FDF91CF910895DF92EF92FF92FB
:101EA0000F931F93CF93DF93EB0189017A01E20E29
:101EB000F31E0E151F05A1F0C11584E0D80780F4AC
:101EC000F999FECFF801D1908F01CE010E94022333
:101ED000D81621F06D2DCE010E940A232196E9CF5C
:101EE000DF91CF911F910F91FF90EF90DF900895B8
:101EF000EF92FF920F931F93CF93DF938A01020F0C
:101F0000131FE9017B01E21AF30AC017D10769F038
:101F1000C7018C0F9D1F811524E0920730F4F999B9
:101F2000FECF0E9402238993F0CFDF91CF911F91C2
:101F30000F91FF90EF9008951F920F920FB60F929E
:101F400011242F933F938F939F93AF93BF938091CF
:101F5000F4029091F502A091F602B091F70230914F
:101F6000F30223E0230F2D3758F50196A11DB11D73
:101F70002093F3028093F4029093F502A093F6026B
:101F8000B093F7028091F8029091F902A091FA02C1
:101F9000B091FB020196A11DB11D8093F8029093B0
:101FA000F902A093FA02B093FB02BF91AF919F9107
:101FB0008F913F912F910F900FBE0F901F9018950A
:101FC00026E8230F0296A11DB11DD2CF1F920F92BA
:101FD0000FB60F9211242F933F934F935F936F93FC
:101FE0007F938F939F93AF93BF93EF93FF93E09172
:101FF0000801F09109010995FF91EF91BF91AF910F
:102000009F918F917F916F915F914F913F912F9110
:102010000F900FBE0F901F9018951F920F920FB642
:102020000F9211242F933F934F935F936F937F935E
:102030008F939F93AF93BF93EF93FF93E09106012C
:10204000F09107010995FF91EF91BF91AF919F9199
:102050008F917F916F915F914F913F912F910F9051
:102060000FBE0F901F9018951F920F920FB60F92F0
:1020700011242F933F934F935F936F937F938F938D
:102080009F93AF93BF93EF93FF938EEF92E00E94E5
:102090002D04FF91EF91BF91AF919F918F917F910F
:1020A0006F915F914F913F912F910F900FBE0F90C5
:1020B0001F9018951F920F920FB60F9211242F9315
:1020C0008F939F93EF93FF93E0910E03F0910F0393
:1020D0008081E0911403F091150382FD1BC0908173
:1020E000809117038F5F8F7320911803821741F03F
:1020F000E0911703F0E0E250FD4F958F80931703B6
:10210000FF91EF919F918F912F910F900FBE0F90A4
:102110001F9018958081F4CFEF92FF920F931F9339
:10212000CF93DF93EEEFF2E01382128288EE93E01A
:10213000A0E0B0E084839583A683B78386E291E034
:102140009183808385EC90E09587848784EC90E090
:102150009787868780EC90E0918B808B81EC90E074
:10216000938B828B82EC90E0958B848B86EC90E055
:10217000978B868B118E128E138E148EE8E9F4E005
:102180001382128288E391E09183808388E08483C4
:102190008FEF8583C9E0C68384E0878385E08087ED
:1021A00086E0818787E082871386148615861686E7
:1021B000178681E00E944A0A60E08DE00E94EF02EB
:1021C000E2EEF2E0E491AAE8B4E0EC93EEECF2E0A7
:1021D000E491F0E0EE0FFF1FE954FD4F85919491DB
:1021E00012969C938E9311971B961C921B971D968B
:1021F0001C921D971C961C921C971A961C921A975B
:1022000019961C92199718961C92189717961C925B
:10221000179716961C92169715961C92159714965A
:102220001C92149713961C921397E3E7F4E0168A16
:10223000158A1182B287A187178210861082C38304
:1022400011E0148315831683C4E6D4E0EE24EA94E7
:10225000FE2CFB82EA828AE090E09D838C8349E039
:1022600050E06BE472E08AE694E00E94F922F98281
:10227000E8828CE390E090930B0180930A01109226
:102280009B0310929C0310929D0310929E03C8E240
:10229000D4E084E294E09F8F8E8F80E191E09D8F67
:1022A0008C8F8CE091E099A388A31AAE1AAA1BAA7E
:1022B0001CAA1DAA80E090E0AFE7B3E48EAB9FAB11
:1022C000A8AFB9AF84E690E0A0E0B0E08EA79FA7EA
:1022D000A8ABB9AB198E188E81E090E09B8F8A8FE6
:1022E0001BAF80E090E0A0E8BFE388839983AA83D6
:1022F000BB831C821D821E821F82188619861A8645
:102300001B868C879D87AE87BF87188A198A1A8A91
:102310001B8A1C8A1D8A1E8A1F8A0E9478030EA5AA
:102320001FA528A939A9601B710B820B930B6AA307
:102330007BA38CA39DA310921504109216041092F7
:1023400017041092180481E194E00E947207109221
:1023500002041092030410920404109205048EEFFC
:1023600093E00E9472071092EF031092F003109214
:10237000F1031092F2038BEE93E00E947207109229
:10238000DC031092DD031092DE031092DF0388ED70
:1023900093E00E9472071092C9031092CA03109230
:1023A000CB031092CC0385EC93E00E94720710924D
:1023B000B6031092B7031092B8031092B90382EBE0
:1023C00093E00E9472071092A3031092A40310924C
:1023D000A5031092A6038FE993E0DF91CF911F919F
:1023E0000F91FF90EF900C947207CF93DF93CDB7CE
:1023F000DEB76E970FB6F894DEBF0FBECDBF7894F0
:1024000084B5826084BD84B5816084BD85B58260F9
:1024100085BD85B5816085BD80916E0081608093AA
:102420006E00109281008091810082608093810013
:102430008091810081608093810080918000816023
:10244000809380008091B10084608093B10080917E
:10245000B00081608093B00080917A0084608093A6
:102460007A0080917A00826080937A0080917A006D
:10247000816080937A0080917A00806880937A00EE
:102480001092C100E0910E03F0910F0382E080836F
:10249000E0910A03F0910B031082E0910C03F0919C
:1024A0000D0380E1808310921603E0911203F091F6
:1024B000130386E08083E0911003F0911103808183
:1024C00080618083E0911003F09111038081886026
:1024D0008083E0911003F0911103808180688083F4
:1024E000E0911003F091110380818F7D808382E061
:1024F0000E944A0A8FE491E00E94F20B1092EF02D0
:1025000022E332E04EEB50E070E060E080E091E0EA
:102510000E94780F8091EF02811191C0E2E3F2E016
:102520008EEBDF011D928A95E9F780E090E4ACE93B
:10253000B5E48093C2029093C302A093C402B09307
:10254000C50280E090E0AAE7B4E48093C6029093CD
:10255000C702A093C802B093C90288EE93E0A0E03E
:10256000B0E08093CE029093CF02A093D002B093BC
:10257000D10280E797E1A0E0B0E08093D20290938F
:10258000D302A093D402B093D50284EF91E0A0E0EF
:10259000B0E08093D6029093D702A093D802B09374
:1025A000D9028FE694EEA8E1B0E08093E202909326
:1025B000E302A093E402B093E5028EE694EEA8E174
:1025C000B0E08093E6029093E702A093E802B09314
:1025D000E90281E090E09093DB028093DA028BE3E2
:1025E00091E09093DD028093DC0288E190E090938B
:1025F000E1028093E0028FE090E09093DF0280930D
:10260000DE0281E08093EF0224E130E082E090E09E
:10261000A0E0B0E03583248380839183A283B383D9
:10262000399642E0E23CF407A9F722E332E04EEBB0
:1026300050E070E060E080E091E00E944D0F60E0CB
:102640008DE00E94EF0261E08CE00E94EF0261E009
:102650008AE00E94EF0261E08CE00E94EF0260E0FD
:102660008CE00E94B20161E08AE00E94B201E09138
:102670007C04F0917D0413861586148612861186DB
:1026800010861782168215821482138210927A04A1
:1026900010927B0411E0BE016F5F7F4F80917C043C
:1026A00090917D040E94EF08882309F45FC067E0E1
:1026B000CE0101960E94C00498858913ECCF8091C9
:1026C0007A048F5F80937A048981883231F008F030
:1026D00044C0803111F08232F1F680917B048F5F2B
:1026E00080937B0480917304811128C080917C04C5
:1026F00090917D040E947D05BE016F5F7F4F8091A8
:102700007C0490917D040E945E0540E064EB809122
:102710007C0490917D040E942A0580917C04909114
:102720007D040E94D704082F80917C0490917D0441
:102730000E947D05011102C01093730489818031CC
:1027400099F0CE0101960E94960690917604981712
:1027500008F0A1CF809376049ECF8B3309F4BDCFD0
:10276000823409F098CFB9CF8CE0EFCF60E08AE0F7
:1027700092E00E946F0980910A02803109F46FC0D3
:10278000BE016F5F7F4F8AE092E00E94240688239B
:1027900009F465C08D818F3709F461C08FE78D839F
:1027A00080917C0490917D040E947D056AE072E036
:1027B00080917C0490917D040E945E0540E06EE46F
:1027C00080917C0490917D040E942A0540E06B81F9
:1027D00080917C0490917D040E942A0540E06C81E8
:1027E00080917C0490917D040E942A0580910A02C8
:1027F000803141F040E06D8180917C0490917D04B6
:102800000E942A0580917C0490917D042091790496
:10281000222319F10E947D05882309F16AE072E004
:1028200080917C0490917D040E945E054091730428
:1028300068E480917C0490917D040E942A05809137
:102840007304811130C064E170E080E090E00E9488
:10285000450380917C0490917D040E947D058CE06D
:102860008093760480917A048230C0F110E08091E8
:102870007A04181798F5809176048C3079F1612FDD
:10288000CE0101960E946F098981803129F1CE0124
:1028900001960E94960690917604981710F4809302
:1028A00076041F5FE4CF80917404882329F060E0F0
:1028B000809175040E94B20164E170E080E090E0D4
:1028C0000E94450380917404882319F261E080918D
:1028D00075040E94B201BDCF8CE0DDCF1092770469
:1028E0000E94B5058BE090E09093670480936604A6
:1028F00061E00E94EF028091DA029091DB029C017C
:10290000215031092C30310510F081E090E0019721
:1029100029E0289FB001299F700D1124655B7D4F30
:1029200049E050E08AE694E00E94F9228091DC02BE
:102930009091DD0290936B0480936A048091DE0293
:102940009091DF0290936904809368048091CE0295
:102950009091CF02A091D002B091D1028093150442
:1029600090931604A0931704B093180481E194E0A7
:102970000E9472078091CE029091CF02A091D00266
:10298000B091D1028093020490930304A0930404B5
:10299000B09305048EEF93E00E9472078091CE02FF
:1029A0009091CF02A091D002B091D1028093EF0319
:1029B0009093F003A093F103B093F2038BEE93E0B6
:1029C0000E947207BAEFCB2ED12CE12CF12CC092D1
:1029D000A303D092A403E092A503F092A6038FE98B
:1029E00093E00E947207C092C903D092CA03E0929A
:1029F000CB03F092CC0385EC93E00E94720788EE43
:102A000093E0A0E0B0E08093B6039093B703A09367
:102A1000B803B093B90382EB93E00E9472070E945F
:102A2000820C0E94420A80E00E94EB0A69E970E091
:102A300088E994E00E948B0360ED77E080E090E00D
:102A40000E9445030E94420A0E94A101909309023C
:102A50008093080290931902809318020E94A101AA
:102A60008C0190931B0280931A028091180290911E
:102A70001902D801A81BB90BCD01B7FF03C091956E
:102A8000819591090B9744F08FE993E00E947F07AD
:102A900010931902009318028FE993E00E94320705
:102AA0008823F9F00C33110514F40C94D722083C58
:102AB000110514F40C94ED220039B1E01B0714F455
:102AC0000C94F0220835E2E01E0714F40C94F32273
:102AD0000032134014F40C94F6228FE993E00E9424
:102AE0007F0780E00E94EB0AE090EA02F090EB02A0
:102AF000E091F002F091F102E132F10508F039C005
:102B0000EC57FA4E0C949E25A515F2185019AC19E5
:102B1000081A621ABA1A121B511B8E1BCB1B081CF7
:102B20005E1CB915B41CF11CAD1D5D1D0C1E521EA2
:102B3000981EB915B915B915B915B915B915B9153D
:102B4000B915B915DC1E7B1F7B1F84E090E00E9445
:102B5000DD06882309F41DC380911C0290911D029B
:102B60008130910509F4FDC60CF002C3892B09F4EC
:102B700008C381E194E00E94600781E194E00E9433
:102B80003207882369F181E194E00E947F0760E0C9
:102B9000CE010A960E946F0981110C94841FC12CEA
:102BA000D12CFEEFEF2EF2ECFF2EC0920201D0925C
:102BB0000301E0920401F09205010E94B50520E0B6
:102BC00030E04EEF52ECC701B6010E94852381111F
:102BD0000C94D21F8CE591E00E94F20B1092F2024D
:102BE0008091F0029091F1028097E9F00E947803C1
:102BF0002091D2023091D3024091D4025091D5025B
:102C00000E947C250E942B242091240430912504CD
:102C100040912604509127040E948523881F88270D
:102C2000881F0E94D3068BEE93E00E9460078BEE14
:102C300093E00E943207811104C080913102882301
:102C400021F18BEE93E00E947F0710923102809178
:102C5000ED02882311F40C94E61F89E691E00E94AE
:102C6000F20B8091660490916704019671F0409197
:102C7000E0025091E1026091E2027091E3028091E2
:102C8000E4029091E5020E943E028091F002909150
:102C9000F102809709F07EC082E090E00E94C306B6
:102CA000882311F40C94002081E00E94D30685EC67
:102CB00093E00E94600785EC93E00E94320788232E
:102CC000B1F185EC93E00E947F0780E00E94EB0A5F
:102CD0006FE172E088E994E00E948B038091ED023D
:102CE0006DE172E0811102C06BE172E088E994E06D
:102CF0000E948B0366E172E088E994E00E948B03F6
:102D000020E030E04EEF52EC60910201709103013F
:102D100080910401909105010E94852381110C94FA
:102D20000B2063E172E088E994E00E948B0382EB60
:102D300093E00E94600782EB93E00E9432078823B1
:102D400049F182EB93E00E947F076CE072E08EEF26
:102D500092E00E948B038091ED026AE072E08111A3
:102D600002C068E072E08EEF92E00E948B0363E0A5
:102D700072E08EEF92E00E948B034091100150911F
:102D80001101609112017091130122E08EEF92E027
:102D90000E94520E8091EC02882311F40C9446227A
:102DA0008EEF93E00E9460078EEF93E00E9432075F
:102DB000882309F439C18EEF93E00E947F07809148
:102DC0006204882309F420C10E9478036A8B7B8BFC
:102DD0008C8B9D8B80914A0490914B04A0914C0464
:102DE000B0914D044A895B896C897D89481B590BD8
:102DF0006A0B7B0B8091560490915704A091580464
:102E0000B0915904481759076A077B0708F4FCC0BA
:102E1000E0914404F09145044080518062807380C9
:102E2000E0914804F0914904A3019201608171810D
:102E3000828193810E9418236B017C0120915204AE
:102E4000309153044091540450915504C301B20190
:102E50000E9418236E8B7F8B888F998F2091380466
:102E60003091390440913A0450913B04C701B601B6
:102E70000E94E22420914E0430914F04409150046E
:102E8000509151040E9419234B015C0180924E0421
:102E900090924F04A0925004B0925104E0916304C8
:102EA000EA8FE1111CC02091340430913504409127
:102EB0003604509137046E897F89888D998D0E94E0
:102EC000E2249B01AC01C501B4010E941823609368
:102ED0004E0470934F0480935004909351042091BA
:102EE0004E0430914F0440915004509151042B8F67
:102EF0003C8F4D8F5E8F20905E0430905F04009178
:102F00006004109161049101A8016B8D7C8D8D8D01
:102F10009E8D0E94DD24181614F00C941A20C10115
:102F2000D80180934E0490934F04A0935004B09323
:102F300051043A8D332311F40C9438202091340439
:102F4000309135044091360450913704C701B601E1
:102F50000E94E2246B017C0120913C0430913D04ED
:102F600040913E0450913F046E897F89888D998DF0
:102F70000E94E2249B01AC0160914E0470914F04C9
:102F800080915004909151040E941823A70196014A
:102F90000E9419236B017C019B01AC01B101C801A6
:102FA0000E94852387FD12C020905A0430905B0454
:102FB00000915C0410915D049101A801B601C70164
:102FC0000E94852387FD02C016018701E091460417
:102FD000F0914704C101D80180839183A283B38318
:102FE00040925204509253046092540470925504DB
:102FF0008A899B89AC89BD8980934A0490934B044C
:10300000A0934C04B0934D046AEF71E08EEF92E010
:103010000E948B0360912404709125048091260402
:10302000909127040E94380F80912F0290913002D6
:103030000397B9F58091EA029091EB0229E0289F6D
:10304000F001299FF00D1124EE5CFD4F382F292F40
:103050008031910514F00C943D20468101963996FB
:103060004423A1F33093EA022093EB0263EF71E073
:103070008EEF92E00E948B038091EA029091EB0226
:103080000E94CA0B8091EA029091EB02409709F0EE
:10309000FAC71092EB021092EA0290E080E00E94E0
:1030A0000F0B80912F0290913002892B11F00C941C
:1030B00055200091EA021091EB0289E0809FF00117
:1030C000819FF00D1124EE5CFD4F64817581072E08
:1030D000000C880B990B0E942D2420911001309137
:1030E000110140911201509113010E9418236B01AC
:1030F0007C0120E030E0A9010E94DD2418160CF0CC
:10310000C9C72AE939E949E95EE3C701B6010E9466
:10311000852387FFCAC7A1E0B0E0B0933002A09337
:103120002F0289E0809FF001819FF00D1124EE5C59
:10313000FD4F2081318142815381A0E6BAEE0E9489
:10314000A4256093DC037093DD038093DE039093EA
:10315000DF0388ED93E00E94720788ED93E00E9400
:1031600060070E94180C88EE91E00E94050C9DC734
:103170008230910559F0039709F0FBCC81E090E093
:1031800002C08EE190E00E940F0BF3CC80E290E051
:10319000FACF6CE871E088E994E00E948B0381E04B
:1031A0000E94EB0A80911C0290911D0281309105D2
:1031B00099F054F467E871E0892B09F0DACC88E9DA
:1031C00094E00E948B03D5CC8230910541F068E7F2
:1031D00071E00397A1F3CDCC62E871E0F0CF6DE729
:1031E00071E0EDCF62E771E088E994E00E948B0323
:1031F00081E00E94EB0A4091C2025091C3026091AB
:10320000C4027091C50222E088E994E00E94520E47
:1032100082E090E00E94C3068823B9F020E030E00D
:1032200048EC52E46091C2027091C3028091C402E2
:103230009091C5020E9419236093C2027093C30249
:103240008093C4029093C50294CC83E090E00E94E6
:10325000C306882379F020E030E048EC52E4609126
:10326000C2027091C3028091C4029091C5020E9473
:103270001823E2CF84E090E00E94C306882309F47B
:1032800078CC82E090E00E940F0B6091C2027091B6
:10329000C3028091C4029091C5020E94380F69CC8C
:1032A0006CE671E088E994E00E948B0381E00E9463
:1032B000EB0A4091C6025091C7026091C80270911A
:1032C000C90222E088E994E00E94520E82E090E078
:1032D0000E94C3068823B9F020E030E048EC52E4B5
:1032E0006091C6027091C7028091C8029091C90294
:1032F0000E9419236093C6027093C7028093C8028C
:103300009093C90236CC83E090E00E94C3068823E4
:1033100079F020E030E048EC52E46091C602709110
:10332000C7028091C8029091C9020E941823E2CF7F
:1033300084E090E00E94C306882309F41ACC83E05D
:1033400090E00E940F0B6091C6027091C7028091BD
:10335000C8029091C902A1CF66E671E088E994E0C5
:103360000E948B0381E00E94EB0A4091CA025091B7
:10337000CB026091CC027091CD0222E088E994E00A
:103380000E94520E82E090E00E94C3068823B9F0AA
:1033900020E030E048EC52E46091CA027091CB0228
:1033A0008091CC029091CD020E9419236093CA02B1
:1033B0007093CB028093CC029093CD02DACB83E062
:1033C00090E00E94C306882379F020E030E048ECCA
:1033D00052E46091CA027091CB028091CC0290912C
:1033E000CD020E941823E2CF84E090E00E94C30641
:1033F000882309F4BECB84E090E00E940F0B60911B
:10340000CA027091CB028091CC029091CD0245CF3F
:1034100069E571E088E994E00E948B0381E00E94F5
:10342000EB0A4091CE025091CF026091D002709190
:10343000D1022AE088E994E00E94480B82E090E003
:103440000E94C3068823A9F08091CE029091CF02FA
:10345000A091D002B091D1028C509E4FAF4FBF4F80
:103460008093CE029093CF02A093D002B093D1026A
:1034700080CB83E090E00E94C306882369F08091AE
:10348000CE029091CF02A091D002B091D102845F80
:103490009140A109B109E4CF84E090E00E94C30605
:1034A000882309F466CB85E090E00E940F0B6091C1
:1034B000CE027091CF028091D0029091D1020E94F1
:1034C000DD0B57CB6EE471E088E994E00E948B033A
:1034D00081E00E94EB0A4091D2025091D3026091A8
:1034E000D4027091D5022AE088E994E00E94480B4A
:1034F00082E090E00E94C3068823A9F08091D20266
:103500009091D302A091D402B091D5028C509E4FDD
:10351000AF4FBF4F8093D2029093D302A093D402B7
:10352000B093D50226CB83E090E00E94C3068823A7
:1035300069F08091D2029091D302A091D402B0910F
:10354000D502845F9140A109B109E4CF84E090E005
:103550000E94C306882309F40CCB86E090E00E9409
:103560000F0B6091D2027091D3028091D40290919E
:10357000D502A5CF60E471E088E994E00E948B0356
:1035800081E00E94EB0A4091D6025091D7026091EF
:10359000D8027091D9022AE088E994E00E94480B91
:1035A00082E090E00E94C3068823A9F08091D602B1
:1035B0009091D702A091D802B091D9028C509E4F21
:1035C000AF4FBF4F8093D6029093D702A093D802FB
:1035D000B093D902CECA83E090E00E94C30688234C
:1035E00069F08091D6029091D702A091D802B09153
:1035F000D902845F9140A109B109E4CF84E090E051
:103600000E94C306882309F4B4CA87E090E00E94B0
:103610000F0B6091D6027091D7028091D8029091E1
:10362000D9024DCF69E371E088E994E00E948B03F1
:1036300081E00E94EB0A6091DA027091DB0288E976
:1036400094E00E94940B82E090E00E94C3068823DD
:1036500051F08091DA029091DB0201969093DB02A7
:103660008093DA0286CA83E090E00E94C306882332
:1036700031F08091DA029091DB020197EFCF84E084
:1036800090E00E94C306882309F473CA88E090E0A2
:103690000E940F0B8091DA029091DB020E94CA0B0C
:1036A00068CA64E371E088E994E00E948B0381E0DA
:1036B0000E94EB0A6091DC027091DD0288E994E0DF
:1036C0000E94940B82E090E00E94C306882351F090
:1036D0008091DC029091DD0201969093DD0280934F
:1036E000DC0247CA83E090E00E94C306882331F0E1
:1036F0008091DC029091DD020197EFCF84E090E0B1
:103700000E94C306882309F434CA89E090E00E942D
:103710000F0B8091DC029091DD02C0CF6EE271E070
:1037200088E994E00E948B0381E00E94EB0A60919B
:10373000DE027091DF0288E994E00E94940B82E03F
:1037400090E00E94C306882351F08091DE029091A0
:10375000DF0201969093DF028093DE020ACA83E0C3
:1037600090E00E94C306882331F08091DE029091A0
:10377000DF020197EFCF84E090E00E94C306882328
:1037800009F4F7C98AE090E00E940F0B8091DE02F5
:103790009091DF0283CF67E271E088E994E00E94B4
:1037A0008B0381E00E94EB0A6091E0027091E102DC
:1037B00088E994E00E94940B82E090E00E94C306A6
:1037C000882351F08091E0029091E102019690935C
:1037D000E1028093E002CDC983E090E00E94C3063D
:1037E000882331F08091E0029091E1020197EFCFC0
:1037F00084E090E00E94C306882309F4BAC980914E
:10380000E0029091E1020E94CA0B8BE090E0BBCCF9
:1038100062E271E088E994E00E948B0381E00E94FB
:10382000EB0A4091E2025091E3026091E402709150
:10383000E5022AE088E994E00E94480B82E090E0EB
:103840000E94C3068823A1F08091E2029091E302D6
:10385000A091E402B091E5020196A11DB11D8093F3
:10386000E2029093E302A093E402B093E50281C9DF
:1038700083E090E00E94C306882361F08091E20219
:103880009091E302A091E402B091E5020197A109B1
:10389000B109E5CF84E090E00E94C306882309F4D3
:1038A00068C96091E2027091E3028091E402909114
:1038B000E5020E94DD0B8CE090E065CC6CE171E0EC
:1038C00088E994E00E948B0381E00E94EB0A40911A
:1038D000E6025091E7026091E8027091E9022AE065
:1038E00088E994E00E94480B82E090E00E94C306C1
:1038F0008823A1F08091E6029091E702A091E8026E
:10390000B091E9020196A11DB11D8093E60290934A
:10391000E702A093E802B093E9022BC983E090E0AC
:103920000E94C306882361F08091E6029091E7022D
:10393000A091E802B091E9020197A109B109E5CF90
:1039400084E090E00E94C306882309F412C96091C4
:10395000E6027091E7028091E8029091E9020E94EC
:10396000DD0B8EE090E00FCC82E090E00E94DD065F
:103970008823F9F080911C0290911D020097B1F00C
:10398000019709F0F6C822E332E04EEB50E070E018
:1039900060E080E091E00E944D0F0E94820C84E183
:1039A00091E00E94050C90E080E0EDCB8FE090E08C
:1039B000EACB6BE071E088E994E00E948B0381E040
:1039C0000E94EB0A80911C0290911D02009731F039
:1039D000019709F0CEC861E071E0F1CB66E071E0DB
:1039E000EECB6AEF70E088E994E00E948B0381E0FF
:1039F0000E94EB0A6091EA027091EB0288E994E080
:103A00000E94940B82E090E00E94C306882309F193
:103A1000C090EA02D090EB022FEFC21AD20A0D2C0E
:103A2000000CEE08FF0881E00E94EB0A68EA70E0F3
:103A300088E994E00E948B0330E1C316D104E104CD
:103A4000F1043CF5F7FC0DC2D092EB02C092EA0201
:103A500090C883E090E00E94C3068823F1F0C090F4
:103A6000EA02D090EB0241E0C41AD1080D2C000C00
:103A7000EE08FF0881E00E94EB0A68EA70E088E93E
:103A800094E00E948B0350E1C516D104E104F104D7
:103A9000CCF2C12CD12C7601D7CF84E090E00E94EB
:103AA000C306882309F465C88091EA029091EB026D
:103AB0000E94CA0B81E190E066CB61EF70E088E97B
:103AC00094E00E948B0381E00E94EB0A89E08E9DC6
:103AD00080018F9D100D11240E5C1D4FD80114968E
:103AE0006D917C9188E994E00E94940B82E090E0D3
:103AF0000E94C3068823A9F0F801E480F580FFEF57
:103B0000EF1AFF0A81E00E94EB0A68EA70E088E998
:103B100094E00E948B03D8011596FC92EE921497C4
:103B200028C883E090E00E94C306882339F0F8019A
:103B3000E480F580F1E0EF1AF108E4CF84E090E052
:103B40000E94C306882309F414C8F8018481958172
:103B50000E94CA0B80E190E016CB67EE70E088E926
:103B600094E00E948B0381E00E94EB0A89E08E9D25
:103B700080018F9D100D11240E5C1D4FD8014D91B9
:103B80005D916D917C912AE088E994E00E94480B58
:103B900082E090E00E94C3068823D9F0F801C0803B
:103BA000D180E280F380FFEFCF1ADF0AEF0AFF0A2D
:103BB00081E00E94EB0A68EA70E088E994E00E94E4
:103BC0008B03D801CD92DD92ED92FC9213970C9469
:103BD000B91583E090E00E94C306882359F0F801EC
:103BE000C080D180E280F380F1E0CF1AD108E108F3
:103BF000F108DECF84E090E00E94C306882311F430
:103C00000C94B915F80160817181828193810E94C1
:103C1000DD0B82E190E0B7CA6EED70E088E994E0D8
:103C20000E948B0389E08E9D80018F9D100D1124D1
:103C30000E5C1D4FD80116968C910E94F90A82E005
:103C400090E00E94C306882339F0F801868191E054
:103C5000892786830C94B91583E090E00E94C306FF
:103C6000882351F0D80116968C91169791E08927F8
:103C700016968C930C94B91584E090E00E94C306CC
:103C8000882311F40C94B915F8018681882339F042
:103C90008BED90E00E94050C83E190E074CA88ED02
:103CA00090E0F8CF6FEC70E088E994E00E948B031D
:103CB00089E08E9D80018F9D100D11240E5C1D4F9B
:103CC000D80117968C910E94F90A82E090E00E9438
:103CD000C306882339F0F801878191E0892787831B
:103CE0000C94B91583E090E00E94C306882351F03C
:103CF000D80117968C91179791E0892717968C9386
:103D00000C94B91584E090E00E94C306882311F456
:103D10000C94B915F8018781882339F08CEC90E078
:103D20000E94050C84E190E02ECA89EC90E0F8CF67
:103D300060EC70E088E994E00E948B0389E08E9D3E
:103D400080018F9D100D11240E5C1D4FD801189617
:103D50008C910E94F90A82E090E00E94C3068823B9
:103D600039F0F801808591E0892780870C94B91596
:103D700083E090E00E94C306882351F0D801189692
:103D80008C91189791E0892718968C930C94B9150B
:103D900084E090E00E94C306882311F40C94B915C6
:103DA000F8018085882329F08DEB90E00E94050CB6
:103DB000D8CD8AEB90E0FACF63EB70E088E994E02D
:103DC0000E948B0381E00E94EB0A6091EA027091ED
:103DD000EB0288E994E00E94940B82E090E00E945C
:103DE000C3068823E1F0C090EA02D090EB02FFEF17
:103DF000CF1ADF0A0D2C000CEE08FF0881E00E94AC
:103E0000EB0A68EA70E088E994E00E948B0320E105
:103E1000C216D104E104F1040CF414CE3ACE83E0CE
:103E200090E00E94C306882311F1C090EA02D0906E
:103E3000EB0231E0C31AD1080D2C000CEE08FF088C
:103E400081E00E94EB0A68EA70E088E994E00E9451
:103E50008B0340E1C416D104E104F1040CF4F2CD6B
:103E600018CEAFE0CA2ED12CE12CF12CEDCD84E0A0
:103E700090E00E94C306882311F40C94B9158FE1D9
:103E800090E00E940F0B89E08E9D80018F9D100DA8
:103E900011240E5C1D4FF80180819181A281B381B4
:103EA0008093DC039093DD03A093DE03B093DF03E4
:103EB00088ED93E00E947207D80114966D917C9171
:103EC000072E000C880B990B0E942D2460930C0187
:103ED00070930D0180930E0190930F0181E0809308
:103EE000EC02E3E0F0E0F0933002E0932F020E9456
:103EF000180C0C94B91584E090E00E94C306882346
:103F000011F40C94B9154FCDBE016F5F7F4FCE01F8
:103F10000A960E942406882311F40C94CF156A8116
:103F200070E0762F6627770F770F770F2981F8E0FB
:103F30002F9F90011124262B372B8A858031E1F4A5
:103F400068856623C9F070E08F81AB01481B510979
:103F5000CA019695982F8827979587950E9468257E
:103F6000CB018097B90153E0660F771F5A95E1F7AF
:103F700060789C01260F371F213854EE350714F462
:103F80000C94CF15B901330F880B990B0E942D2487
:103F900020E030E040E05CE30E94E2246B017C0121
:103FA0000C94D5158091F202811103C082E00E9429
:103FB0004A0AC0921001D0921101E0921201F092CF
:103FC000130181E08093F2020C94F0158CE691E0ED
:103FD0000E94F20B8091660490916704019611F49F
:103FE0000C9445164091E0025091E1026091E60286
:103FF0007091E7028091E8029091E9020C944316D7
:1040000083E090E00E94C306882311F40C945716B5
:1040100080E00C945516409110015091110160916F
:1040200012017091130122E088E994E00E94520E7F
:104030000C94971680905A0490905B04A0905C04B6
:10404000B0905D04A50194016B8D7C8D8D8D9E8D4E
:104050000E94852387FD02C00C94991780924E041C
:1040600090924F04A0925004B09251040C9499176E
:10407000C12CD12C76010C94AC179093EB02809359
:10408000EA020C9436181092300210922F020E940D
:10409000180C07C82AE939E949E95EEBC701B601FE
:1040A0000E94DD2418160CF436C880912F029091DE
:1040B0003002019709F051C088ED93E00E94320769
:1040C000882309F494C08CED91E00E94050CE2E095
:1040D000F0E0F0933002E0932F028091EA02909199
:1040E000EB0229E0289FF001299FF00D1124EE5CDE
:1040F000FD4F80858823C1F181E080932E0261E02D
:104100008CE00E94EF02E3E4F2E08491833009F452
:10411000D3C150F48130E1F0823009F4C7C161E0CD
:104120008CE00E94B20119C0873009F4D1C18830F7
:1041300009F4D7C1843099F7809180008062809320
:10414000800084EB90E090938B0080938A0005C000
:1041500084B5806884BD84EB87BD80912F029091E7
:104160003002029709F043C080912E02882381F02B
:1041700083E090E00E94C306882351F010922E0243
:1041800061E08CE00E94EF0260E08CE00E94B201EE
:104190008091EA029091EB0229E0289FF001299F8B
:1041A000F00D1124EE5CFD4F2781222309F4A2C1FA
:1041B00082E090E00E94C3068823C9F023E030E04B
:1041C0003093300220932F0210922E0261E08CE097
:1041D0000E94EF0260E08CE00E94B2018091EA024E
:1041E0009091EB0201969093EB028093EA0285ECAA
:1041F00093E00E94600785EC93E00E9432078823D9
:1042000009F4AAC085EC93E00E947F0769ED71E094
:1042100088E994E00E948B036091EA027091EB02BE
:1042200088E994E00E94940B65ED71E088E994E0E0
:104230000E948B038091ED0263ED71E0811102C059
:1042400061ED71E088E994E00E948B0380912F0278
:10425000909130028130910509F053C16DEC71E00D
:1042600088E994E00E948B03C090DC03D090DD03CA
:10427000E090DE03F090DF038091E0039091E10392
:10428000A091E203B091E303C81AD90AEA0AFB0A33
:10429000C701B60128EE33E040E050E00E947C25E3
:1042A000283731054105510540F0C701B60120E628
:1042B0003AEE40E050E00E947C253F932F9380E748
:1042C00091E09F938F93EEE1F2E0FF93EF930E94D2
:1042D000BE256EE172E088E994E00E94390B0F90F0
:1042E0000F900F900F900F900F9081E00E94EB0ABB
:1042F00061EC71E088E994E00E948B0320E030E0FB
:104300004EEF52EC60910201709103018091040123
:10431000909105010E94852381111BC16EEB71E014
:1043200088E994E00E948B0369EB71E088E994E0EE
:104330000E948B038091EA029091EB0229E0289F72
:10434000F001299FF00D1124EE5CFD4F6481758111
:1043500088E994E00E94940B82EB93E00E9460074E
:1043600082EB93E00E943207882309F48FC082EB2E
:1043700093E00E947F0780912E0266EB71E081112D
:1043800002C063EB71E08EEF92E00E948B036091BC
:104390002F02709130028EEF92E00E94940B6FEA30
:1043A00071E08EEF92E00E948B036091EA027091BF
:1043B000EB028EEF92E00E94940B6BEA71E08EEFBD
:1043C00092E00E948B038091ED0269EA71E0811115
:1043D00002C067EA71E08EEF92E00E948B0362EA0E
:1043E00071E08EEF92E00E948B034091100150919A
:1043F0001101609112017091130122E08EEF92E0A1
:104400000E94520E6DE971E08EEF92E00E948B03E4
:104410008091EA029091EB0219E0189FF001199F38
:10442000F00D1124EE5CFD4F648175818EEF92E0FA
:104430000E94940B80912F0290913002813091055F
:1044400009F095C069E971E08EEF92E00E948B035C
:104450006091DC037091DD038091DE039091DF03B6
:104460000091E0031091E1032091E2033091E30316
:10447000601B710B820B930B28EE33E040E050E0A1
:104480000E947C25CA01B9010E94DD0B80E090E00A
:10449000892B11F40C942E150E941904882311F411
:1044A0000C942E150E9400000C942E1584B5806289
:1044B00084BD84EB88BD51CE80918000806880935C
:1044C000800084EB90E0909389008093880045CE33
:1044D0008091B00080688093B00084EB8093B3003B
:1044E0003CCE8091B00080628093B00084EB8093DA
:1044F000B40033CE43E050E05093300240932F029B
:1045000071CE0097E1F469EC71E088E994E00E94D3
:104510008B038091EA029091EB0229E0289FF00141
:10452000299FF00D1124EE5CFD4F40815181628185
:1045300073812AE088E994E00E94480BD6CE029766
:1045400009F0D3CE65EC71E088E994E00E948B031A
:10455000CCCE4091100150911101609112017091E7
:10456000130122E088E994E00E94520EDDCE00970C
:10457000B1F465E971E08EEF92E00E948B038091C7
:10458000EA029091EB02189FF001199FF00D11249F
:10459000EE5CFD4F608171818281938175CF0297BE
:1045A00009F074CF81E991E00E94050C6FCF01E022
:1045B00010E0F801EE5EFD4F808181110C946D15C5
:1045C00081E080836AE571E08EEF92E00E94390B12
:1045D000C8010E94CA0B0C946D1502E010E0E9CFEF
:1045E00003E010E0E6CF04E010E0E3CF05E010E0E8
:1045F000E0CFFB01DC0102C005900D92415050401C
:10460000D8F70895F999FECF92BD81BDF89A992700
:1046100080B50895262FF999FECF1FBA92BD81BDAE
:1046200020BD0FB6F894FA9AF99A0FBE0196089534
:104630005058BB27AA270E9430230C94A3240E9421
:10464000952438F00E949C2420F039F49F3F19F4FF
:1046500026F40C9492240EF4E095E7FB0C948C2441
:10466000E92F0E94B42458F3BA176207730784072E
:10467000950720F079F4A6F50C94D6240EF4E09575
:104680000B2EBA2FA02D0B01B90190010C01CA010C
:10469000A0011124FF27591B99F0593F50F4503EB7
:1046A00068F11A16F040A22F232F342F4427585FA9
:1046B000F3CF469537952795A795F0405395C9F7C1
:1046C0007EF41F16BA0B620B730B840BBAF0915079
:1046D000A1F0FF0FBB1F661F771F881FC2F70EC018
:1046E000BA0F621F731F841F48F4879577956795EB
:1046F000B795F7959E3F08F0B0CF9395880F08F0D7
:104700009927EE0F9795879508950E94682408F4DD
:1047100081E008950E949E230C94A3240E949C246F
:1047200058F00E94952440F029F45F3F29F00C9442
:104730008C2451110C94D7240C9492240E94B424FC
:1047400068F39923B1F3552391F3951B550BBB27C0
:10475000AA2762177307840738F09F5F5F4F220F05
:10476000331F441FAA1FA9F335D00E2E3AF0E0E8FC
:1047700032D091505040E695001CCAF72BD0FE2F46
:1047800029D0660F771F881FBB1F261737074807DA
:10479000AB07B0E809F0BB0B802DBF01FF27935892
:1047A0005F4F3AF09E3F510578F00C948C240C94A6
:1047B000D7245F3FE4F3983ED4F3869577956795C9
:1047C000B795F7959F5FC9F7880F911D96958795C7
:1047D00097F90895E1E0660F771F881FBB1F6217E6
:1047E00073078407BA0720F0621B730B840BBA0BA4
:1047F000EE1F88F7E09508950E94BC2488F09F572B
:1048000098F0B92F9927B751B0F0E1F0660F771FF4
:10481000881F991F1AF0BA95C9F714C0B13091F0EA
:104820000E94D624B1E008950C94D624672F782FE7
:104830008827B85F39F0B93FCCF3869577956795AF
:10484000B395D9F73EF490958095709561957F4F1B
:104850008F4F9F4F0895E89409C097FB3EF49095C1
:104860008095709561957F4F8F4F9F4F9923A9F049
:10487000F92F96E9BB279395F695879577956795D8
:10488000B795F111F8CFFAF4BB0F11F460FF1BC01C
:104890006F5F7F4F8F4F9F4F16C0882311F096E9AF
:1048A00011C0772321F09EE8872F762F05C066235D
:1048B00071F096E8862F70E060E02AF09A95660F16
:1048C000771F881FDAF7880F9695879597F90895CF
:1048D000990F0008550FAA0BE0E8FEEF1616170611
:1048E000E807F907C0F012161306E407F50798F079
:1048F000621B730B840B950B39F40A2661F0232B92
:10490000242B252B21F408950A2609F4A140A6950D
:104910008FEF811D811D089597F99F6780E870E0F2
:1049200060E008959FEF80EC089500240A94161625
:10493000170618060906089500240A94121613068D
:10494000140605060895092E0394000C11F488231B
:1049500052F0BB0F40F4BF2B11F460FF04C06F5F37
:104960007F4F8F4F9F4F089557FD9058440F551F0D
:1049700059F05F3F71F04795880F97FB991F61F0E1
:104980009F3F79F087950895121613061406551F58
:10499000F2CF4695F1DF08C0161617061806991FC4
:1049A000F1CF86957105610508940895E894BB27B9
:1049B00066277727CB0197F908950E94682408F4A9
:1049C0008FEF08950E94F5240C94A3240E9495244F
:1049D00038F00E949C2420F0952311F00C948C2434
:1049E0000C94922411240C94D7240E94B42470F3C4
:1049F000959FC1F3950F50E0551F629FF001729F84
:104A0000BB27F00DB11D639FAA27F00DB11DAA1F92
:104A1000649F6627B00DA11D661F829F2227B00DDF
:104A2000A11D621F739FB00DA11D621F839FA00D6A
:104A3000611D221F749F3327A00D611D231F849FBA
:104A4000600D211D822F762F6A2F11249F57504011
:104A50009AF0F1F088234AF0EE0FFF1FBB1F661F8C
:104A6000771F881F91505040A9F79E3F510580F055
:104A70000C948C240C94D7245F3FE4F3983ED4F339
:104A8000869577956795B795F795E7959F5FC1F7F9
:104A9000FE2B880F911D9695879597F908950E9492
:104AA0006824880B990B0895AA1BBB1B51E107C012
:104AB000AA1FBB1FA617B70710F0A61BB70B881FAE
:104AC000991F5A95A9F780959095BC01CD0108953D
:104AD00097FB072E16F4009407D077FD09D00E94AB
:104AE000542507FC05D03EF4909581959F4F08957D
:104AF000709561957F4F0895A1E21A2EAA1BBB1BEA
:104B0000FD010DC0AA1FBB1FEE1FFF1FA217B30799
:104B1000E407F50720F0A21BB30BE40BF50B661FAF
:104B2000771F881F991F1A9469F760957095809573
:104B300090959B01AC01BD01CF010895EE0FFF1FC1
:104B40000590F491E02D09940E94AF25A59F900D4A
:104B5000B49F900DA49F800D911D11240895A29FD4
:104B6000B001B39FC001A39F700D811D1124911D41
:104B7000B29F700D811D1124911D0895AEE0B0E02B
:104B8000E4ECF5E20C946D280D891E8986E08C8397
:104B90001A8309838FEF9FE79E838D83AE01475E63
:104BA0005F4F6F89788DCE0101960E94E1252F819C
:104BB0003885020F131FF80110822E96E4E00C9442
:104BC0008928ABE0B0E0E7EEF5E20C945F287C01C9
:104BD0003B018A01FC0117821682838181FFC8C1D3
:104BE000CE0101965C01F7019381F30193FD85915C
:104BF00093FF81913F01882309F453C1853239F431
:104C000093FD859193FF81913F01853229F4B7018E
:104C100090E00E94D127E7CF912C212C312CFFE18D
:104C2000F31538F08B3211F190F4803209F18332B0
:104C300029F137FC3CC020ED280F2A3050F536FE14
:104C400020C08AE0989E200D1124922E06C08D323D
:104C500091F0803371F7689430F8F30193FD8591FA
:104C600093FF81913F018111DACF21C0689431F81F
:104C7000689432F8F2CF689433F8EFCF689434F840
:104C8000ECCFEAE02E9E200D1124222E689435F8F8
:104C9000E4CF8E3229F436FC04C1689436F8DDCFB7
:104CA0008C3619F4689437F8D8CF8836B1F2982F3B
:104CB0009F7D95549330E0F08336A1F18337C1F1A5
:104CC000833509F063C02801F2E04F0E511CF80152
:104CD000C080D180692D70E036FC02C06FEF7FEF9D
:104CE000C6010E94BB274C01689437F882010AC0B4
:104CF0000C5F1F4FFFE3F98388248394912C650197
:104D0000E89437F833FE2DC0522C8114910471F5CC
:104D1000552009F468CFB70180E290E00E94D127C6
:104D20005A94F6CFF801808189830E5F1F4FE4CF3C
:104D30002801F2E04F0E511CF801C080D180692D8E
:104D400070E036FC02C06FEF7FEFC6010E94C627FD
:104D50004C018201D5CFB70180E290E00E94D127BB
:104D60002A942814190409F0B0F7CECFF60137FCC5
:104D7000859137FE81916F01B70190E00E94D127A4
:104D800051105A94F1E08F1A9108BFCF843619F070
:104D9000893609F077C0F80137FE6BC060817181F8
:104DA000828193810C5F1F4FF32DFF763F2E97FF7B
:104DB00009C090958095709561957F4F8F4F9F4F5B
:104DC000689437F82AE030E0A5010E940128C82E37
:104DD000CA188C2C432C36FE0CC0E89440F8C91439
:104DE00040F434FE05C032FC03C0F32DFE7E4F2E8E
:104DF000892C44FE95C0FE01EC0DF11D80818033AD
:104E000009F087C0242D297E422E842D8870582ECB
:104E100043FC95C040FE8FC09C2C821418F42C0CCF
:104E2000922C981844FE91C0B70180E390E00E9454
:104E3000D12742FE09C088E790E041FE02C088E524
:104E400090E0B7010E94D127C91408F48AC0CA941F
:104E5000D12C9FEFC91AD90ACA0CDB1CF60182912A
:104E60006F01B70190E00E94D127AC14BD04B1F7E7
:104E70004FCF60817181072E000C880B990B0E5F5C
:104E80001F4F92CFD32CE894D4F82AE030E0853736
:104E900039F1232D297FD22E8F3601F148F4883540
:104EA000A9F0F701868197812B96E2E10C947B288B
:104EB000803749F08837A9F7D4FE02C06894D2F849
:104EC00020E130E00DC06894D4F8F6CF34FE03C082
:104ED000822F8660D82E20E132E002C028E030E048
:104EE000F801D7FE0FC060817181828193810C5FD0
:104EF0001F4FA5010E940128C82ECA183D2CE89416
:104F000037F867CF6081718190E080E00E5F1F4FBE
:104F1000F0CF42FC02C0839478CF8394839475CF02
:104F2000842D867809F471CFF6CFB70180E290E046
:104F30000E94D12783948214C0F3512C73CF522C3A
:104F40005818821408F46ECFF8CF842D867809F4AF
:104F50007BCF8BE241FE80E247FC8DE2B70190E01F
:104F600071CFB70180E390E00E94D1279A946CCF73
:104F70008FEF9FEF99CFFC010590615070400110B9
:104F8000D8F7809590958E0F9F1F0895FC01615072
:104F9000704001900110D8F7809590958E0F9F1F5B
:104FA00008950F931F93CF93DF93182F092FEB01D1
:104FB0008B8181FD09C01FEF0FEF812F902FDF91B3
:104FC000CF911F910F91089582FF14C02E813F81D0
:104FD0008C819D81281739073CF4E881F981CF0144
:104FE00001969983888310838E819F8101969F8388
:104FF0008E83E3CFE885F985812F0995892BA1F36D
:10500000DACFFA01AA27283051F1203181F1E89452
:105010006F936E7F6E5F7F4F8F4F9F4FAF4FB1E0AB
:105020003ED0B4E03CD0670F781F891F9A1FA11DA6
:10503000680F791F8A1F911DA11D6A0F711D811DA7
:10504000911DA11D20D009F468943F912AE0269F6C
:1050500011243019305D3193DEF6CF010895462FCB
:105060004770405D4193B3E00FD0C9F7F6CF462FAC
:105070004F70405D4A3318F0495D31FD4052419315
:1050800002D0A9F7EACFB4E0A695979587957795D2
:105090006795BA95C9F700976105710508959B0159
:1050A000AC010A2E06945795479537952795BA95E2
:1050B000C9F7620F731F841F951FA01D08952F92BB
:1050C0003F924F925F926F927F928F929F92AF9298
:1050D000BF92CF92DF92EF92FF920F931F93CF93E5
:1050E000DF93CDB7DEB7CA1BDB0B0FB6F894DEBF7C
:1050F0000FBECDBF09942A88398848885F846E84A2
:105100007D848C849B84AA84B984C884DF80EE80EB
:10511000FD800C811B81AA81B981CE0FD11D0FB6F4
:10512000F894DEBF0FBECDBFED010895F894FFCF18
:1051300018010000C841A001A0013C000000C841C6
:105140000000C84100000000780F4D0F5E00BC0059
:105150007701000000004F04AF03DC039C040D0442
:10516000EB03FF0300000000090BAF03BD04BC0408
:105170000D0A006E616E00696E66006F7666004C07
:105180006F616456616C75657300620044495343F6
:105190004F4E4E4543544544004F6E004F666600E7
:0651A0002530337500000C
:107E0000112484B714BE81FFF0D085E080938100F7
:107E100082E08093C00088E18093C10086E0809377
:107E2000C20080E18093C4008EE0C9D0259A86E02C
:107E300020E33CEF91E0309385002093840096BBD3
:107E4000B09BFECF1D9AA8958150A9F7CC24DD24C4
:107E500088248394B5E0AB2EA1E19A2EF3E0BF2EE7
:107E6000A2D0813461F49FD0082FAFD0023811F036
:107E7000013811F484E001C083E08DD089C08234E0
:107E800011F484E103C0853419F485E0A6D080C0E4
:107E9000853579F488D0E82EFF2485D0082F10E0AE
:107EA000102F00270E291F29000F111F8ED06801E7
:107EB0006FC0863521F484E090D080E0DECF843638
:107EC00009F040C070D06FD0082F6DD080E0C81688
:107ED00080E7D80618F4F601B7BEE895C0E0D1E017
:107EE00062D089930C17E1F7F0E0CF16F0E7DF06D8
:107EF00018F0F601B7BEE89568D007B600FCFDCFD4
:107F0000A601A0E0B1E02C9130E011968C91119780
:107F100090E0982F8827822B932B1296FA010C0160
:107F200087BEE89511244E5F5F4FF1E0A038BF0790
:107F300051F7F601A7BEE89507B600FCFDCF97BE46
:107F4000E89526C08437B1F42ED02DD0F82E2BD052
:107F50003CD0F601EF2C8F010F5F1F4F84911BD097
:107F6000EA94F801C1F70894C11CD11CFA94CF0C13
:107F7000D11C0EC0853739F428D08EE10CD085E9AC
:107F80000AD08FE07ACF813511F488E018D01DD067
:107F900080E101D065CF982F8091C00085FFFCCF94
:107FA0009093C60008958091C00087FFFCCF809118
:107FB000C00084FD01C0A8958091C6000895E0E648
:107FC000F0E098E1908380830895EDDF803219F02E
:107FD00088E0F5DFFFCF84E1DECF1F93182FE3DFCA
:107FE0001150E9F7F2DF1F91089580E0E8DFEE27F6
:047FF000FF270994CA
:027FFE00040479
:00000001FF
